:020000040800F2
:1000000038130020A90100084D1D0008AF1B00088F
:10001000491D000879180008FB3A0008000000009C
:10002000000000000000000000000000692400083B
:100030008F1A000800000000DB22000811330008BE
:10004000C3010008C3010008C3010008C301000880
:10005000C3010008C3010008C3010008C301000870
:10006000C3010008C3010008C30100087D1800088F
:10007000C3010008C3010008C3010008C301000850
:10008000C3010008C3010008C3010008C301000840
:10009000C3010008C3010008C3010008C301000830
:1000A000C3010008C3010008C3010008C301000820
:1000B0001D340008C3010008C3010008C301000883
:1000C000C3010008C3010008C3010008C301000800
:1000D000C3010008193900083D390008C3010008B0
:1000E000C3010008C3010008C301000800F002F8C2
:1000F00000F04AF80AA090E8000C82448344AAF178
:100100000107DA4501D100F03FF8AFF2090EBAE875
:100110000F0013F0010F18BFFB1A43F0010318473B
:10012000A4600000C4600000103A24BF78C878C101
:10013000FAD8520724BF30C830C144BF04680C60ED
:10014000704700000023002400250026103A28BF35
:1001500078C1FBD8520728BF30C148BF0B60704739
:10016000662904F0DC82642900F07C80002070475E
:100170001FB500F047FC04000020002103F0C8FD7B
:10018000E0601FBD10B510BD00F03CFD1146FFF74B
:10019000EFFF03F035FD00F05AFD03B4FFF7F2FF67
:1001A00003BC03F0C7FC000009488047094800472A
:1001B000FEE7FEE7FEE7FEE7FEE7FEE7FEE7FEE717
:1001C000FEE7FEE704480549054A064B7047000074
:1001D00015330008ED000008380D0020381300200A
:1001E000380F0020380F00200FB41CB5084B06AAAA
:1001F0007B4469460090059800F0EBFB0446002024
:10020000694600F0F9FB20461CBC5DF814FB0000B9
:100210000508000070B5044685690068C10601D56F
:10022000302600E02026C00707D070BDD4E90121A8
:1002300030469047206A401C20626D1EF6D570BD86
:1002400070B5044685690078C00707D170BDD4E950
:10025000012120209047206A401C20626D1EF6D5A7
:1002600070BD00002DE9F041064600241068752994
:10027000314616A510D0AFF30080002802DA4042C4
:1002800013A507E031688A0701D512A502E04907E6
:1002900004D511A5012401E0AFF3008000210A225A
:1002A00006F1240709E0B0FBF2FCB0FBF2F302FB1D
:1002B0001C00303078541846491C0028F3D12346DE
:1002C0002A463046BDE8F04100F015B900000000B4
:1002D0002D0000002B000000200000002DE9F05F41
:1002E000894604464FF0000ADFF874B1FB44C0F8B9
:1002F00020A02046E1688847002874D0252806D031
:10030000D4E901219047206A401C2062F1E70026D1
:100310005F462046E16888472028054607DB312DE7
:1003200005D2781910F8200C08B10643F1E7B007A0
:1003300001D526F00406C4F81CA00027C4F818A0B4
:100340002A2D09D0284603F0EEFB38B304EB8708CA
:10035000303DC8F8185019E059F8041B204604EB4A
:1003600087029161E1688847012F054618D1E0694D
:10037000002820DA26F020061DE0D8F8180000EB4F
:10038000800005EB40003038C8F818002046E168CE
:100390008847054603F0C7FB0028EED1012F0AD09D
:1003A0002E2D08D12046E16888477F1C0546022F84
:1003B00046F02006C4DBA069002803DA404246F07C
:1003C0000106A061F00701D026F010066C2D0BD0BD
:1003D000682D09D04C2D39D06A2D35D0742D35D0EB
:1003E0007A2D33D016E038E0E1682F462046884762
:1003F000B842054609D16C2F26D04FF48060E168E1
:10040000064320468847054604E06C2F1AD04FF477
:10041000807006430DB3A5F14100192802D820359C
:1004200046F400664A462946204626604E46FFF7B7
:1004300097FE80B101280BD0F61D26F0070000F1D1
:10044000080956E74020E4E78020D8E70020D6E7F7
:1004500006F104094DE7284652E7206ABDE8F09FFF
:100460002E5E000010B5431C02E010F8011B71B1B4
:100470008107FAD14FF0013202C88C1A8C4314EA7A
:10048000C211F9D0C01A0A0603D0C01E10BDC01A8E
:1004900010BD0A0401D0801E10BD0902FCD0401E10
:1004A00010BD4FF0000200B5134694469646203921
:1004B00022BFA0E80C50A0E80C50B1F12001BFF41D
:1004C000F7AF090728BFA0E80C5048BF0CC05DF883
:1004D00004EB890028BF40F8042B08BF704748BFD1
:1004E00020F8022B11F0804F18BF00F8012B704745
:1004F0007047704770472DE9F0470D469946924680
:10050000044600F124080168880604D5E06921F05A
:100510001001216000E00120A84201DD471B00E03E
:100520000027A1697A1902EB0900081AA061207856
:10053000C00602D42046FFF76DFE002608E0D4E98D
:1005400001211AF806009047206A401C761C2062A0
:100550004E45F4DB2078C0060AD52046FFF75AFE48
:1005600006E0D4E9012130209047206A401C206237
:10057000381EA7F10107F4DC07E0D4E9012118F8DF
:1005800005009047206A401C2062281EA5F1010545
:10059000F3DC2046FFF754FE2078000602D5022047
:1005A000BDE8F0870120FBE770472DE9FF4F0C46BF
:1005B0001E464FF0FF378BB0D2E90001DDF86080B6
:1005C0000A908A46C1F30A5505B93D4600210846FE
:1005D0004FF00000BAF1000F00F4400005DA00EB24
:1005E00080004FF4400101EA50004FEA9059B9F100
:1005F000010F00DDB9460A9850EA4A000ED044F6D1
:100600001050A5F2FF3545432F14B8F1000F1ED04E
:100610007542291E1EDDC9F100021CE0B8F1010F70
:100620004FF0000001D0302103E0F24305E02154F7
:10063000401CB042FBDB30460022002121540B99C4
:10064000C1F80880C1E900200FB0BDE8F08FBD1BE4
:100650006D1CDEE74A4600DA694206A800F05CFA43
:1006600006AB93E8070003AB83E8070050460A99FE
:1006700000F036FB8DE80700A0F500501F38009011
:100680000398002D0ADD42F21F014A460844002368
:1006900003A90390684600F09FFD09E0A0F5005013
:1006A0004A461F38002303A90390684600F0A9FDBD
:1006B0008DE807000004000C03D04FF0FF30410824
:1006C00000E01046B8F1000F03D00022009215465A
:1006D0001EE0751E05D400F099F9303262556D1E8A
:1006E000F9D5B3460122084302D000227F1C04E062
:1006F0002078302801D100227F1E002A099784D05B
:100700001DE0112D07DA00F081F9303262556D1CC1
:1007100050EA0102F5D1084302D00098C8B10EE0BA
:100720000021681E05E0235C625C63542254401E75
:10073000491C8142F7DBAB46A81B401E09900020F4
:1007400004F80B000B98099AC0F80880C0E9002B48
:100750007AE711264FF0000857E72DE9F04F884659
:100760000446D21D22F0070191B0D1E90001CDE984
:100770000A0103F0C4F902460B98C00F01D02D20E6
:1007800007E02068810701D52B2002E0202101EA43
:10079000C000032A099001D0072A05DB0346414621
:1007A000204600F079F90BE12078800601D5E06958
:1007B00000E00620B8F1650F814606D0B8F1660F5B
:1007C00018D0B8F1670F70D131E00020B9F1110FE6
:1007D000009001DB112301E009F101030AAA01A93C
:1007E0000CA8FFF7E2FEDDE90C70002609F1010517
:1007F000834647E001204B4600904FF000470AAA8D
:1008000001A90CA8FFF7D1FEDDE90DB00C995D46FA
:10081000002610B909F101000D18B9EB050003D449
:10082000C0F1FF3609F10105A5EB09002BE0B9F194
:10083000010F01DA4FF001090020B9F1110F00900A
:10084000484601DD112300E003460AAA01A90CA8CD
:10085000FFF7ABFEDDE90C704D460026834620789D
:1008600000070AD4AB4500DA5D4601A8012D04DD7E
:10087000411911F8011C302907D04F4502DA17F150
:10088000040F04DA012082460FE06D1EEEE7002F10
:1008900002DCED1B3E4403E0781CA84200DD7D1C19
:1008A000B81B00F1010A4FF000472078000703D47D
:1008B000AA4501DB4FF0FF3A0021B7F1004F0DF1DF
:1008C00043088DF8431024D002202B23002F01DA97
:1008D0007F422D230A21021EA0F1010000DC5FB13E
:1008E00097FBF1FC97FBF1F201FB1C7C17460CF126
:1008F000300C08F801CDEEE7A8F101000370218863
:10090000090501D5452100E06521A0F1010800F8A5
:10091000011C09980FA9A1EB0807FF1D00B10120D8
:10092000411901EBEA70A1693844081A401EA06120
:100930002078C00602D42046FFF76CFC099828B145
:10094000D4E901219047206A401C20622078C0062B
:1009500022D52046FFF75EFC1EE0002E04DBB345E7
:1009600002DD01A8805D00E03020D4E9012190473C
:10097000206A401C2062761CAAF101005FEA000A8E
:100980000AD100F03FF8C0680168405CD4E9012159
:100990009047206A401C2062281EA5F10105DCDC7E
:1009A00007E0D4E9012118F8010B9047206A401CA8
:1009B0002062381EA7F10107F3DC2046FFF740FC58
:1009C000032011B041E6000001694A1C0261087869
:1009D000704700B58FB0CDE901310021059105497F
:1009E0007944CDE9031011466846FFF777FC0FB054
:1009F00000BD0000E5FFFFFF0A6802F8010B0A6076
:100A00007047000000487047F80C002030B5B0F186
:100A10000A024FEA900E71F100034EEA817EB0EBBC
:100A20000E0061EB91014FEA101E4EEA017E10EBC1
:100A30000E0041EB11114FEA102E4EEA016E10EB41
:100A40000E0041EB11214FEA104E4EEA014E10EB21
:100A50000E0041EB1141401841F100014FEAD00076
:100A600040EA41704FEAD10110EB80054FEA810462
:100A700044EA907444EB01046D1944EB0404521BE6
:100A8000A3414FF0000348BF0A3200D530BD401CDF
:100A900041F1000130BD00002DE9F0411F46044640
:100AA00003260168072A01F4006004DB08B116A5DB
:100AB00005E016A503E008B115A500E015A521F095
:100AC00010002060A069C01EA0610FB1401EA0618F
:100AD0002046FFF79FFB4FB1D4E9012138469047EC
:100AE000206A401C2062C01C206206E0206AFAE7EF
:100AF000D4E9012115F8010B9047761EF8D2204663
:100B0000FFF79EFBBDE8F0814E414E006E616E0026
:100B1000494E4600696E66002DE9F047814616464B
:100B20008AB0354878440DC88DE80D0032487844C5
:100B3000801C03AC0DC884E80D0041F69B300844CE
:100B4000372190FBF1F290FBF1F5A5F1800501FB57
:100B500012041B3C02D56442012000E00020DFF8B3
:100B600098A080460027FA44AAF1BE0A0EE0E007EA
:100B70000AD03246684607EB470101230AEB8101A0
:100B800000F03FFB8DE8070064107F1C002CEED1C5
:100B9000194F7F44AE3F19E0E80715D007EB04106A
:100BA0000DF1180A90E80E008AE80E00C068F042C5
:100BB00001D1981908903246012306A903A800F034
:100BC00020FB03AB83E807006D10641C002DE3D10C
:100BD0004FF0010332466946B8F1000F03A802D076
:100BE00000F0FAFA01E000F00CFBC9E90001C9F8D5
:100BF00008200AB0BDE8F08784560000004870471E
:100C0000D80C00207546FFF7F9FFAE46050069468F
:100C1000534620F00700854618B020B5FFF7D2FAFA
:100C2000BDE820404FF000064FF000074FF00008ED
:100C30004FF0000B21F00701AC46ACE8C009ACE86E
:100C4000C009ACE8C009ACE8C0098D46704710B5D2
:100C50000446AFF300802046BDE81040FFF79DBA80
:100C60004FF0013C50F8042B51F8043B9A4221D13B
:100C7000A2EB0C03934313EACC1317D150F8042BC7
:100C800051F8043B9A4215D1A2EB0C03934313EAAB
:100C9000CC130BD150F8042B51F8043B9A4209D1E4
:100CA000A2EB0C03934313EACC13DBD04FF000000C
:100CB000704700BFD01A01BAB1FA81F101F01801F2
:100CC00022FA01F0CB40C1F12001DBB2C0B2C01A60
:100CD0002CFA01F3D11A914311EAC311E6D17047FE
:100CE0005FEA400C08BF91F0000F4FEA8C234FEAF7
:100CF000C12243EA51514FEA1C5018BF00F5F040A1
:100D00004FEA300018BF41F000415FEA6C5C00F030
:100D10002980BCF1FF3F08BF40F080407047130CB2
:100D200006BF12044FF0100C4FF0000C130E04BF5E
:100D300012020CF1080C130F04BF12010CF1040C89
:100D4000930F04BF92000CF1020CD30F04BF5200AA
:100D50000CF1010C11464FF00002A0F11F00A0EBB6
:100D60000C00704711F0004F08BF704731F0004190
:100D70003FF4D5AF0B0C06BF09044FF0100C4FF039
:100D8000000C0B0E04BF09020CF1080C0B0F04BF82
:100D900009010CF1040C8B0F04BF89000CF1020C4B
:100DA000CB0F04BF49000CF1010CCCF12003A0EBE8
:100DB0000C0022FA03F302FA0CF241EA030100F1FB
:100DC0000100704720F07F4C80EA030023F07F474A
:100DD000ACEB070303F57C5300F0004003F1FF0385
:100DE0002DE980494FEA154B09B44FEA144325EA2F
:100DF0000B4E24EA03480FF2042606EB132749089A
:100E00003E785FEA320203FB0667C7F5000707FB7F
:100E100006F64FEA54374FEAD64606F1020607FBBC
:100E2000066CCCF1005C4FEA1C472CEA074C07FB30
:100E300006F40CFB06F504EB15464FEA961634BF94
:100E400000204FF000404FEAD13706FB07FC4FEA85
:100E50001C4C0CFB0BF7D21B03FB0CF761EB0701DF
:100E60000CFB0EF7B0EB074072EB17420CFB08F7D8
:100E700034BFA2EB0742B2EB074261EB17414FEAE6
:100E80000C444FEA910706FB07FC4FEA1C4C0CFB95
:100E90000BF7B0EBC74072EB573203FB0CF734BFD4
:100EA000A2EBC742B2EBC74261EB57310CFB0EF726
:100EB000B0EBC70072EB57720CFB08F734BFA2EB24
:100EC000C702B2EBC70261EB5771039F4FEA816122
:100ED00041EA921104EBCC044FEAD1374FEA826227
:100EE00006FB07FC42EA90124FEA80604FEA1C4C76
:100EF0000CFB0BF7D21B03FB0CF761EB07010CFBA0
:100F00000EF7B0EB074072EB17420CFB08F734BF4B
:100F1000A2EB0742B2EB074261EB17414FEA8C5557
:100F20004FEA910704EB9C2406FB07FC4FEA1C4C9C
:100F30000CFB0BF7B0EBC74072EB573203FB0CF71F
:100F400034BFA2EBC742B2EBC74261EB57310CFB97
:100F50000EF7B0EBC70072EB57720CFB08F734BF0B
:100F6000A2EBC702B2EBC70261EB577115EB4C2540
:100F70004FEA816141EA92114FEA82624FEAD1372A
:100F800042EA901206FB07FC44F100044FEA80603D
:100F90004FEA1C4C0CFB0BF7D21B03FB0CF761EB6D
:100FA00007010CFB0EF7B0EB074072EB17420CFB8E
:100FB00008F734BFA2EB0742B2EB074261EB1741DF
:100FC00015EB1C154FEA813141EA92414FEA82321A
:100FD00042EA90424FEA80304FEA0C7644F1000436
:100FE00048EA03434EEA0B484FF0000EB2EB080C00
:100FF00071EB030724BF624639464EEB0E0E4FF0ED
:10100000000B0018524149414BEB0B0BB2EB080CA3
:1010100071EB03077BF1000B24BF624639464EEBB0
:101020000E0E4FF0000B0018524149414BEB0B0BD9
:10103000B2EB080C71EB03077BF1000B24BF624697
:1010400039464EEB0E0E51EA020718BF46F0010674
:1010500016EB0E7655F1000254F1000103D5BDE800
:101060008901BDE80088BDE88901BDE80048B619DE
:10107000524141EB0101A3F10103704780807F7E63
:101080007D7C7B7A797877767675747372717170FE
:101090006F6E6E6D6C6C6B6A6A69686867666665B0
:1010A0006464636362616160605F5F5E5E5D5D5C3E
:1010B0005C5B5B5A5A5959585857575656555555AF
:1010C0005454535352525251515050504F4F4F4E0F
:1010D0004E4D4D4D4C4C4C4B4B4B4A4A4A4949495D
:1010E000484848474747474646464545454444449F
:1010F000444343434342424242414141002B9C46C8
:1011000030D477002BD01CB54FEA370703B44FF02B
:1011100010004FF01001BAF1000F06D0BCF1000F23
:10112000DCBF40F0080040F008014FF000000FBCA9
:10113000BDE810400BF1010BBBF1010F08BF5FEAE6
:10114000170722BF12F1010211F101014FF0004116
:1011500043F1000300F0004043EA00007047F9D378
:101160005708D0E746EA064613F1400F4FEA164605
:101170001FDD13F1200FDFBF16430A460021203385
:101180005B42BED0C3F1200746EA064602FA07F7E3
:101190004FEA164646EA0706C3F1200722FA03F291
:1011A00001FA07F721FA03F14FF0000342EA0702C0
:1011B000A7E746EA020646EA06464FEA164646EA28
:1011C0000106BCBF46EA0646360C4FF000034FF05E
:1011D00000024FF0000194E72DE9804C9A469346B7
:1011E00070B491E8380007C831EA400C48BF34EACF
:1011F000430C03D5FFF7E6FDFFF780FFF0BCBDE829
:10120000008C2DE9804C9A46934670B491E83800E2
:1012100007C810F0804F08BF13F0804F03D100F0D3
:1012200005F8FFF76BFFF0BCBDE8008C20F07F47AE
:1012300080EA030023F07F4C07EB0C03A3F57C53FB
:1012400000F00040A3F1FE0392F0000F00F0B38025
:1012500095F0000F00F077802DE901494FEA114029
:101260004FEA144621EA004800FB06FC24EA064740
:1012700008FB06F607FB08F800FB07F718EB064823
:101280004CEB164C4FEA124B18EB07484FEA154649
:101290004CEB174022EA0B4E0BFB06FC25EA0647F7
:1012A0000EFB06F607FB0EFE0BFB07F71EEB064ECA
:1012B0004CEB164C4FF000061EEB074E4CEB174B59
:1012C00018EB0B0840F1000018EB0E0B58EB000870
:1012D00040F100008F1A4FF000013CBFC943661B6C
:1012E00014BFB5EB040C00213CBFC943F61B4FEA09
:1012F00017444EEA8E0E27EA04454FEA1C4704FBCA
:1013000007622CEA074C05FB07F70CFB05F604FB0C
:101310000CFC16EB074642EB174216EB0C4642EB71
:101320001C421BEB060658EB0202414146EA9E06B0
:1013300001D5BDE80189B619524141EB0101A3F184
:101340000103BDE801894FEA14454FEA114724EA39
:10135000054621EA074C05FB07F406FB07F70CFBE3
:1013600006F105FB0CFC11EB074144EB17444FEA77
:10137000124711EB0C4144EB1C4422EA074C05FBDD
:1013800007F206FB07F70CFB06F605FB0CFC16EB59
:10139000074642EB174216EB0C4642EB1C456A1817
:1013A00054F1000148BF7047B619524141EB0101A9
:1013B000A3F10103704795F0000F37D04FEA1142B7
:1013C0004FEA144721EA024624EA074C02FB07F1E0
:1013D00006FB07F70CFB06F402FB0CFC14EB0744BE
:1013E00041EB17414FEA154714EB0C4441EB1C410C
:1013F00025EA074C02FB07F506FB07F70CFB06F690
:1014000002FB0CFC16EB074645EB174516EB0C46AA
:1014100045EB1C42121951F1000148BF7047B61943
:10142000524141EB0101A3F1010370474FEA14451A
:101430004FEA114724EA054621EA074C05FB07F16C
:1014400006FB07F70CFB06F24FF0000605FB0CFC51
:1014500012EB074241EB174112EB0C4251EB1C41DE
:1014600048BF7047921841EB0101A3F10103704797
:1014700000B587B0142102A8FFF713F800200190EF
:101480000121480200F066FF0121042000F062FF04
:101490004FF4004000F022FF00F0C8F900F07CF8A3
:1014A0000120ADF8040000208DF8070001A91F48B5
:1014B00000F0EEFA1E4800F0BDF8002002908DF812
:1014C0000C008DF80D004FF40020049000200590D2
:1014D00001208DF8180002A9154800F003F9002337
:1014E00001221946124800F025F90121104800F0A8
:1014F00021F801210E4800F028F80D4800F076F997
:1015000000BF0B4800F0D9F80028FAD1084800F0D5
:1015100087F900BF064800F0C6F80028FAD101217B
:10152000034800F0B5F807B000BD00000008014016
:101530000024014021B1826842F00102826003E090
:10154000826822F001028260704721B1826842F411
:101550008072826003E0826822F480728260704749
:101560000748806820F00100054988604FF4FA7050
:10157000C8600846806840F001008860704700003D
:10158000000002400348806820F0010001498860A3
:10159000704700000000024000B58DB02C2102A869
:1015A000FEF77FFF002001900121084600F0A2FE17
:1015B0001D4800F089F91D4802901D480390002045
:1015C00004904FF4FA700590002006908020079058
:1015D000400008908000099000200A904FF40050CD
:1015E0000B9000200C9002A90F4800F032FA0B205B
:1015F0008DF8040000208DF805008DF8060001200C
:101600008DF8070001A800F0A3FB022000F042F9CA
:1016100001220221044800F013FA0121024800F0DF
:1016200047F90DB000BD0000080002404C24014005
:101630003800002010B504461248844208D1012128
:10164000401500F097FE0021601500F093FE17E0B2
:101650000D48844208D10121001500F08BFE0021C5
:10166000201500F087FE0BE00848844208D10121D4
:10167000C80300F07FFE00214FF4004000F07AFE26
:1016800010BD00000024014000280140003C014042
:1016900021B1826842F48012826003E0826822F401
:1016A000801282607047014600208A6802F00402BE
:1016B0000AB1012000E000207047014600208A683E
:1016C00002F008020AB1012000E00020704700008B
:1016D0000348007808B1012070470020FCE70000B3
:1016E0000E00002030B502460020002350680F4C49
:1016F00020400D790C6844EA05242043506090682E
:101700000B4C2040D1E902542C434D7944EA450466
:1017100020439060D06A20F470000C7C641EE4B218
:10172000234340EA0350D06230BD0000FFFEF0FFCB
:10173000FDF7F1FFF0B504460D4600200021092D0C
:1017400011DDE068A5F10A0606EB4607072606FA52
:1017500007F18843A5F10A0606EB460603FA06F1EF
:101760000843E0600CE0206905EB4507072606FA10
:1017700007F1884305EB450603FA06F108432061AB
:10178000072A0FDA606B561E06EB86071F2606FA3D
:1017900007F18843561E06EB860605FA06F1084354
:1017A000606322E00D2A0FDA206BD61F06EB860756
:1017B0001F2606FA07F18843D61F06EB860605FAB0
:1017C00006F10843206310E0E06AA2F10D0606EB83
:1017D00086071F2606FA07F18843A2F10D0606EBDD
:1017E000860605FA06F10843E062F0BD816841F023
:1017F00008018160704700000020014908707047AF
:101800000E000020024A1080121D11807047000057
:101810002804004001200149087070470E00002094
:10182000816841F004018160704700000EB500201E
:101830000090019002900121022000F06BFD0D4804
:1018400001F060FE4720ADF800000120ADF8040073
:101850000020ADF80600ADF802006946054801F029
:10186000AFFF2021034801F0A0FF0121014801F052
:101870002EFE0EBD0004004000BFFEE710B50220A2
:1018800000F0C8F820B1FFF7C5FF022000F002F811
:1018900010BD000000F0805111B10349086001E063
:1018A0000249486070470000040402400000024002
:1018B00021B1026842F00102026004E002684FF6C2
:1018C000FE731A400260704701684FF6FE721140C5
:1018D00001600021016041608160C1604B49884224
:1018E00008D14A490839496841F00F01474A083A86
:1018F00051608AE045491431884208D1434908398A
:10190000496841F0F001414A083A51607DE03F49A1
:101910002831884208D13D490839496841F470614D
:101920003A4A083A516070E038493C31884208D15F
:1019300036490839496841F47041344A083A5160DF
:1019400063E032495031884208D13049083949684A
:1019500041F470212D4A083A516056E02B49643118
:10196000884208D129490839496841F47001274A59
:10197000083A516049E025497831884208D1234925
:101980000839496841F07061204A083A51603CE0EA
:101990001F49884206D1011F096841F00F01021F4B
:1019A000116032E01A491431884208D11849091FE0
:1019B000096841F0F001164A121F116025E0144930
:1019C0002831884208D11249091F096841F4706121
:1019D0000F4A121F116018E00D493C31884208D1AE
:1019E0000B49091F096841F47041094A121F11602F
:1019F0000BE007495031884207D10549091F0968A2
:101A000041F47021024A121F116070470800024021
:101A10000804024001460020002201F0805313B167
:101A2000054B1A6801E0054B1A6802EA01030BB185
:101A3000012000E000207047000402400000024046
:101A40001AB103680B43036002E003688B43036031
:101A5000704710B50022026847F6F0739A430C6A8B
:101A60008B6823430C6923434C6923438C692343CC
:101A7000CC6923434C6A23438C6A23431A43026094
:101A8000CB6843600B6883604B68C36010BD7047D0
:101A90002DE9F04102460025002600200023002405
:101AA000002791F803C00CF00F0591F803C00CF06B
:101AB000100CBCF1000F03D091F802C04CEA0505F0
:101AC00091F800C0BCF1000F31D0146800202BE069
:101AD0004FF0010C0CFA00F3B1F800C00CEA030659
:101AE0009E4220D183004FF00F0C0CFA03F7BC4349
:101AF00005FA03FC4CEA040491F803C0BCF1280F7A
:101B000006D14FF0010C0CFA00FCC2F814C00AE038
:101B100091F803C0BCF1480F05D14FF0010C0CFA4D
:101B200000FCC2F810C0401C0828D1D31460B1F8E2
:101B300000C0BCF1FF0F34DD546800202EE000F13E
:101B4000080C4FF0010808FA0CF3B1F800C00CEAD9
:101B500003069E4221D183004FF00F0C0CFA03F7CD
:101B6000BC4305FA03FC4CEA040491F803C0BCF141
:101B7000280F05D100F1080C08FA0CF8C2F81480FF
:101B800091F803C0BCF1480F07D100F1080C4FF0E9
:101B9000010808FA0CF8C2F81080401C0828CED3BF
:101BA0005460BDE8F081416170470161704700BF3A
:101BB000FEE7000010B580210A48FFF7F6FF40213C
:101BC0000848FFF7F2FF00F037F880210548FFF7DB
:101BD000EAFF00F031F840210248FFF7E4FF00F08F
:101BE0002BF810BD000C014010B580210648FFF70E
:101BF000DAFF40210448FFF7D8FF00F01DF88021EC
:101C00000148FFF7D2FF10BD000C014010B5802144
:101C10000848FFF7CAFF00F00FF840210548FFF71A
:101C2000C4FF00F009F840210248FFF7BCFF00F0B4
:101C300003F810BD000C0140032000BF011EA0F1FD
:101C40000102D0B2FAD1704708B5002000900121FE
:101C5000042000F07FFB0121082000F07BFBF02036
:101C6000ADF8000048208DF8030069460648FFF7EC
:101C70000FFF0120ADF8000048208DF803006946F1
:101C80000248FFF705FF08BD00080140000C0140B5
:101C900010B5044614B1012028490870274800787F
:101CA000002833D02648006870B12548001D006820
:101CB00050B123480830006830B121480C3000682A
:101CC00010B12048006808BB0A2001F057FF00202F
:101CD0001A4908701A48006808B9012010BD184850
:101CE000001D006808B90220F8E7154808300068B0
:101CF00008B90320F2E712480C30006808B9042044
:101D0000ECE710480068B0B90420E7E70C48006829
:101D100088B10B48001D006868B1094808300068A8
:101D200048B107480C30006828B10648006810B177
:101D30000120024908700020D0E700000F000020B9
:101D4000100121420081214200BFFEE770470000E0
:101D500070B5002100230F22C47804B3154C246809
:101D600004F4E064C4F5E064210AC1F10403CA404C
:101D7000447804FA03F184781440214309010E4C9D
:101D80000678A155047804F01F050124AC400578BD
:101D90006D11AD0005F1E025C5F8004109E00478BA
:101DA00004F01F050124AC40044D0678761145F877
:101DB000264070BD0CED00E000E400E080E100E0B2
:101DC00002490143024A1160704700000000FA0511
:101DD0000CED00E070B500240CE0002506E00020CA
:101DE000074901EBC5010855681CC5B2802DF6DB1B
:101DF000601CC4B2082CF0DB00F05CF970BD000080
:101E00005808002010B504461CB90021A62000F097
:101E100048FA012C03D10021A72000F042FA10BD9E
:101E200010B504463CB90021C82000F03AFA002160
:101E3000A12000F036FA012C07D10021C02000F0CB
:101E400030FA0021A02000F02CFA10BD2DE9FF4F40
:101E500084B081468A460020029083460698A0EB13
:101E600009040798A0EB0A06CDF80490CDF800A06D
:101E7000002C01DD012705E00CB9002702E04FF03E
:101E8000FF376442002E02DD4FF0010806E016B96C
:101E90004FF0000802E04FF0FF386642B44201DD27
:101EA000254600E03546002003901EE0009AD1B29E
:101EB000019AD0B2119A00F01FF8029820440290C3
:101EC000B3440298A84205DD0298401B0290019895
:101ED00038440190AB4504DDABEB050B0098404462
:101EE00000900398401C80B20390691C03988842BC
:101EF000DCDB08B0BDE8F08FF0B514460B46CF1719
:101F000001EB5777C7F3C702CF1701EB5777FF10E5
:101F1000A1EBC707FEB20123B340DDB24CB1134BB6
:101F200003EBC0039B5C2B43104F07EBC007BB5474
:101F30001AE00E4B03EBC0039B5CDB430B4F07EB3C
:101F4000C007BB54094B03EBC0039B5C2B43074FFB
:101F500007EBC007BB54054B03EBC0039B5CDB43A3
:101F6000024F07EBC007BB54F0BD0000580800202B
:101F700008B50121082000F0EDF9C020ADF80000FF
:101F800014208DF8030003208DF8020069464748AD
:101F9000FFF77EFDC0214548FFF707FE0420ADF89E
:101FA000000010208DF8030003208DF80200694620
:101FB0003F48FFF76DFD04213D48FFF7F6FD042182
:101FC0003B48FFF7F0FDC82001F0D8FD0421384858
:101FD000FFF7EBFD0021AE2000F063F90021084679
:101FE00000F05FF90021102000F05BF90021402093
:101FF00000F057F90021812000F053F90021CF2093
:1020000000F04FF90021A12000F04BF90021C82079
:1020100000F047F90021A62000F043F90021A82094
:1020200000F03FF900213F2000F03BF90021D320D0
:1020300000F037F90021084600F033F90021D520DF
:1020400000F02FF90021802000F02BF90021D92089
:1020500000F027F90021F12000F023F90021DA2017
:1020600000F01FF90021122000F01BF90021DB20F5
:1020700000F017F90021302000F013F90021202092
:1020800000F00FF90021022000F00BF900218D2053
:1020900000F007F90021142000F003F9FFF79AFE81
:1020A0000021AF2000F0FDF808BD0000000C014049
:1020B0000008014070B500242BE004F1B001C8B263
:1020C000002100F0EEF80021084600F0EAF80021B7
:1020D000102000F0E6F8FFF76DFD782001F06AF8B7
:1020E000FFF794FD402001F065F8FFF78FFD002514
:1020F00009E0094901EBC501085D01F05BF8FFF754
:1021000085FD681CC5B2802DF3DBFFF76DFD601CFB
:10211000C4B2082CD1DB70BD580800202DE9FE4F59
:102120000746884692461C460197CDF80080082C49
:1021300002D14FF006091FE02046E31704EB53736A
:10214000DB1021464FEAE47C04EB5C7C4FEAEC0CAC
:10215000A4EBCC0CBCF1000F02D04FF0010C01E05D
:102160004FF0000C6344224604EBD27C4FEA6C0C27
:1021700003FB0CF303F0FF09AAF12000C6B200250F
:102180005EE0082C07D106EB46002F4901EB40002A
:1021900010F805B01DE00C2C07D106EB46002B49CA
:1021A00001EB800010F805B013E0102C05D1284891
:1021B00000EB061010F805B00BE0182C07D106EB69
:1021C000C600244901EB800010F805B001E0BDE82D
:1021D000FE8F002002901CE00BF0010028B1414668
:1021E00038460C9AFFF788FE09E00C9808B90120E0
:1021F00000E00020024641463846FFF77DFE4FEAE8
:102200006B0B08F1010000F0FF080298401CC0B2FF
:10221000029002980828DFDB781CC7B2082C0BD08C
:1022200004EBD4714A100199791A8A4204D1019FB2
:1022300000980830C0B20090DDF80080681CC5B27C
:102240004D459EDB00BFC2E7364700085E490008E7
:10225000D24D0008C25300082DE9F84106460F464A
:1022600014461D46DDF81C8013E0CDF8008022786E
:102270002B4639463046FFF751FF082D02D1B01DDD
:10228000C6B205E0284605EBD07106EB6101CEB27F
:10229000641C2078202802DB20787E28E5DDBDE85C
:1022A000F88170B505460C46FFF784FC782000F0F5
:1022B00081FFFFF7ABFC1CB1402000F07BFF02E088
:1022C000002000F077FFFFF7A1FC284600F072FF26
:1022D000FFF79CFCFFF788FC70BD704701460020AB
:1022E000034A506820F440400843506070470000A3
:1022F0000010024029B1064A52690243044B5A6158
:1023000004E0034A52698243014B5A61704700005E
:102310000010024029B1064AD2690243044BDA6137
:1023200004E0034AD2698243014BDA61704700003E
:102330000010024029B1064A12690243044B1A6197
:1023400004E0034A12698243014B1A61704700009E
:102350000010024029B1064A92690243044B9A6177
:1023600004E0034A92698243014B9A61704700007E
:102370000010024029B1064AD2680243044BDA60D9
:1023800004E0034AD2688243014BDA6070470000E0
:102390000010024030B500210022002400232D4D02
:1023A0006D6805F00C0121B1042905D0082923D15D
:1023B00005E0294D056022E0274D05601FE0254D11
:1023C0006D6805F47012234D6D6805F480340225A4
:1023D00005EB92421CB9214D554305600BE01D4DA4
:1023E0006D6805F400351DB11C4D5543056002E0D4
:1023F000194D5543056002E0174D056000BF00BF51
:10240000144D6D6805F0F0010909154D6B5C056808
:10241000DD4045600F4D6D6805F4E061090A104D1F
:102420006B5C4568DD4085600A4D6D6805F4605160
:10243000C90A0B4D6B5C4568DD40C560054D6D6894
:1024400005F44041890B074D6B5CC568B5FBF3F59E
:10245000056130BD0010024000127A0000093D0005
:1024600010000020200000207047000070B50546D5
:102470000E241AE00F490C7000F068FCFFF7BCF95D
:10248000FFF76EF800BFFFF723F90028FBD02846BE
:1024900000F074F940B107484088142804DD05486D
:1024A0004088322800DA02E0641E002CE2DA00BF25
:1024B00070BD00003808002070B504460D46164671
:1024C000E9B2E0B20022FFF717FD70BD70B501243C
:1024D00015E001250FE00B4B1B8804FB03F291B2C2
:1024E000094B1B8805FB03F290B24FF6FF7200F018
:1024F000D1F8681C85B2042DEDDD601C84B2042C7B
:10250000E7DD70BD04000020020000202DE9FE4F31
:1025100005460E4617461C464FF00009E8B20190EA
:10252000F0B200902046E21704EB5272D21021461E
:10253000E31704EB5373DB10A4EBC3030BB10123CC
:1025400000E000231A4494B24FF000083CE04FF042
:10255000000A33E00C9810F809B009F101001FFAE5
:1025600080F90020029016E00BF0010030B14FF628
:10257000FF723146284600F08DF804E00022314613
:102580002846FFF799FF4FEA6B0B701C86B2029842
:10259000401CC0B2029002980828E5DB681C85B296
:1025A0000198281AB84204D1019D00980830C0B2A1
:1025B0000090009E0AF1010000F0FF0ABA45C9DB55
:1025C00008F1010000F0FF08A045C0DBBDE8FE8F68
:1025D0002DE9FE4F05460E4617461C464FF00009F2
:1025E000E8B20190F0B200902046E21704EB52727C
:1025F000D2102146E31704EB5373DB10A4EBC303A3
:102600000BB1012300E000231A4494B24FF00008FC
:102610003CE04FF0000A33E00C9810F809B009F1E3
:1026200001001FFA80F90020029016E00BF0010073
:1026300030B14FF6FF7231462846FFF73DFF04E008
:1026400000223146284600F025F84FEA6B0B701C3B
:1026500086B20298401CC0B2029002980828E5DBBE
:10266000681C85B20198281AB84204D1019D0098CF
:102670000830C0B20090009E0AF1010000F0FF0A8D
:10268000BA45C9DB08F1010000F0FF08A045C0DB36
:10269000BDE8FE8F70B504460D461646E9B2E0B2BD
:1026A0000122FFF729FC70BD2DE9F84304460D46D1
:1026B00016461F46DDF820800120EBB2F2B2E9B2E7
:1026C0000090E0B2FFF7C2FB0120FBB2F2B2F9B218
:1026D0000090E0B2FFF7BAFB0120FBB2E2B2E9B230
:1026E0000090E0B2FFF7B2FB0120FBB2F2B2E9B218
:1026F0000090F0B2FFF7AAFBBDE8F8832DE9F047A0
:1027000006460F4690469946DDF820A00024002595
:10271000BAF1010F18D100BF11E0002509E07A19C4
:1027200091B2321990B24FF6FF72FFF7B3FF681CF7
:1027300085B2A9EB0700A842F1DA601C84B2A8EBCD
:102740000600A042E9DA16E0002410E0002508E0C7
:102750007A1991B2321990B20022FFF7ADFE681CCF
:1027600085B2A9EB0700A842F2DA601C84B2A8EB9C
:102770000600A042EADABDE8F08700002DE9F04744
:102780008246504600F096F900287BD0B248007887
:102790000F2878D2DFE800F0081E344A60788EA453
:1027A000BAD0E6FDFCFBFA00AB49488801F04BFCCF
:1027B0008046AA4AAA4B01F059FC064632460B460F
:1027C0000020A84901F0BAFA044601F00FFCA24922
:1027D000C8603BE1A049488801F035FC80469F4A2B
:1027E000A14B01F043FC064632460B4600209D49B2
:1027F00001F0A4FA044601F0F9FB9749C86025E10D
:102800009549488801F01FFC0646984A984B01F00C
:102810002DFC044622460B460020924901F08EFA18
:10282000804601F0E3FB8C49C8600FE18A49488883
:1028300001F009FC80468D4A8E4B01F017FC0646DC
:1028400032460B460020874901F078FA044601F031
:10285000CDFB8149C860F9E07F49488801F0F3FB6E
:102860000646824A844B01F001FC804642460B46F4
:1028700000207C4901F062FA044601F0B7FB76497A
:10288000C860E3E0E6E0E0E07349488801F0DBFB84
:1028900080467A4A7A4B01F0E9FB064632460B46FF
:1028A0000020704901F04AFA044601F09FFB6A4992
:1028B000C860CBE06849488801F0C5FB80466F4A94
:1028C000704B01F0D3FB064632460B4600206549AB
:1028D00001F034FA044601F089FB5F49C860B5E0B5
:1028E0005D49488801F0AFFB8046644A664B01F0C1
:1028F000BDFB064632460B4600205A4901F01EFA3F
:10290000044601F073FB5449C8609FE0524948886F
:1029100001F099FB06465D4A5D4B01F0A7FB0446BA
:1029200022460B4600204F4901F008FA804601F08C
:102930005DFB4949C86089E04749488801F083FB4D
:102940000646524A534B01F091FB804642460B46E5
:102950000020444901F0F2F9044601F047FB3E49EA
:10296000C86073E03C49488801F06DFB8046474AE7
:10297000494B01F07BFB064632460B4600203949A5
:1029800001F0DCF9044601F031FB03E047E030E000
:1029900019E002E03049C86058E02F49488801F04A
:1029A00052FB80463D4A3E4B01F060FB06463246F4
:1029B0000B4600202B4901F0C1F9044601F016FB3B
:1029C0002549C86042E02449488801F03CFB804624
:1029D000324A344B01F04AFB064632460B46002091
:1029E000204901F0ABF9044601F000FB1A49C86028
:1029F0002CE01949488801F026FB8046274A2A4BDB
:102A000001F034FB064632460B460020154901F022
:102A100095F9044601F0EAFA0F49C86016E00E493C
:102A2000488801F010FB8046204A214B01F01EFB34
:102A3000064632460B4600200A4901F07FF904465B
:102A400001F0D4FA0449C86000E000BF00BF0120D3
:102A5000BDE8F0870020FBE7380800209A99999993
:102A60009999A93F0000F03F9999993F7B14AE478F
:102A7000E17A843FE17A743FE17A643FFCA9F1D2C4
:102A80004D62503F4D62403F4D62303F2D431CEB45
:102A9000E2361A3FE2360A3FE236FA3EF168E38850
:102AA000B5F8E43EB5F8D43EB5F8C43E8EEDB5A019
:102AB000F7C6B03E2DE9F04F87B006460027B8466E
:102AC0000020059006900290039004908146824673
:102AD0000025002498E0BAF1000F0DD1544B9A88DC
:102AE000631C36F8131036F8140000F0D7F878B3EA
:102AF000A0464FF0010A2BE036F814004C498988B3
:102B0000884201DB781C87B2494B9A88631C36F8EF
:102B1000131036F8140000F0C1F8C8B1A4EB080097
:102B200005A921F8150031F8150001F0B3FC834622
:102B3000384601F0AFFC5946019001F0CDFB02A9E7
:102B400041F82500681CC5B200274FF00109BA46BC
:102B5000032D57DBBDF81400BDF81610884214DDB4
:102B6000BDF81400BDF81810884202DDBDF816004B
:102B70001FE0BDF81400BDF81810884202DDBDF852
:102B8000180016E0BDF8140013E0BDF81400BDF8FD
:102B90001810884202DDBDF814000AE0BDF81600E6
:102BA000BDF81810884202DDBDF8180001E0BDF83C
:102BB00016001F494880DDE9020101F07FFD0FD2B8
:102BC0000499029801F07AFD01D2039817E0049964
:102BD000029801F073FD01D2049810E002980EE013
:102BE0000499029801F06AFD01D2029807E0DDE93C
:102BF000030101F063FD01D2049800E003980C4941
:102C0000C86105E0601C84B2B4F5F97F7FF763AF5B
:102C100000BF002D07DD032D05DABDF814000449BF
:102C200048800298C861484607B0BDE8F08F0000B0
:102C3000380800202DE9F0410546002640F6FF77D0
:102C400000240DE035F81400B04201DD35F81460C1
:102C500035F81400B84201DA35F81470601C84B2FB
:102C6000642CEFDB0B48C6800781304601F012FC74
:102C70008046094901F056FC06494861384601F092
:102C800009FC8046044901F04DFC02498861BDE819
:102C9000F0810000380800206740533A0346934211
:102CA00003DC914201DD012070470020FCE710B5F4
:102CB000FFF700FA10BD00002DE9FC5F81460020FF
:102CC00036236322012100900846FFF717FD0024F8
:102CD00032E039F8140001F0B6F907460022194B2A
:102CE00001F02CF80022184BCDE9000101F0BEF9EB
:102CF000054601F07BF91FFA80FA611C39F81100D2
:102D000001F0A1F9074600220E4B01F017F8054625
:102D100000220D4B01F0AAF9CDE9000101F066F99E
:102D20001FFA80FBCAF12D0291B2A0B24FF6FF72DA
:102D3000FFF7B0FC601C84B2642CCADBFFF7C6FB53
:102D4000BDE8FC9F0000B0400000444010B54A4878
:102D500000780F2874D2DFE800F008121C26303902
:102D6000424B535B636B747C840040F2F31141F679
:102D70001F40FEF747FD41A03F4908617AE040F659
:102D8000C31140F2CF20FEF73DFD3EA03A49086155
:102D900070E040F2E73140F2CF20FEF733FD3BA078
:102DA0003549086166E040F2E73140F2CF20FEF796
:102DB00029FD38A0304908615CE040F6C311472086
:102DC000FEF720FD35A02C49086153E040F2E731C1
:102DD0004720FEF717FD33A0274908614AE040F27B
:102DE000F3114720FEF70EFD30A02349086141E0B2
:102DF000F9214720FEF706FD2EA01F49086139E0A2
:102E000063214720FEF7FEFC2CA01B49086131E03E
:102E100031214720FEF7F6FC2AA01749086129E076
:102E200018214720FEF7EEFC28A01349086121E095
:102E300009214720FEF7E6FC26A00F49086119E0AA
:102E400017E004214720FEF7DDFC24A00A490861B1
:102E500010E004212320FEF7D5FC22A006490861DA
:102E600008E001214720FEF7CDFC20A002490861BF
:102E700000E000BF00BF10BD380800202020312036
:102E8000730000003530306D730000003230306D5B
:102E9000730000003130306D730000002035306D5C
:102EA000730000002032306D730000002031306D5F
:102EB000730000002035206D730000002032206D6B
:102EC000730000002031206D730000003530307534
:102ED00073000000323030757300000031303075FF
:102EE000730000002035307573000000203230750B
:102EF000730000002DE9F84304460D4616461F46B0
:102F0000DDF820800120E9B20090E0B23B46324675
:102F1000FFF7A2F9BDE8F8832DE9F84304460D4612
:102F200016461F46DDF820800020E9B20090E0B28E
:102F30003B463246FFF790F9BDE8F88308B54FF6F7
:102F4000FF7037236422002100900846FFF7ACFB96
:102F5000FFF7BCFA08BD00002DE9F04186B0044639
:102F60002046FFF7A9FE4FF6FF70082375A2002147
:102F700000906520FFF7BEFF4FF6FF70082373A295
:102F8000194600906920FFF7B5FF2046FFF752FE73
:102F90002046FFF7F3FB002859D06E49C8696E49F7
:102FA00001F0C0FA064601F059FA05462A466BA11F
:102FB00003A8FDF719F94FF6FF70082303AA18219B
:102FC00000906720FFF796FF6248C0684FF47A715F
:102FD000B0FBF1F058B35F48C0686249B0FBF1F054
:102FE00058B15C48C0684FF47A71B0FBF1F52A46DD
:102FF0005DA103A8FDF7F8F80FE05649C86801F095
:1030000022F807460022594B00F098FE05462A4652
:103010000B4657A103A8FDF7E7F84FF6FF7008230A
:1030200055A2194600906920FFF764FF35E0494832
:103030004DA1C26803A8FDF7D7F84FF6FF7008232B
:103040004EA2194600906920FFF754FF25E04CA1DD
:1030500003A8FDF7C9F84FF6FF70082347A21946E9
:1030600000906920FFF746FF3A48C08839498988AF
:10307000884209DB4FF6FF70082343A21821009015
:103080006720FFF737FF08E04FF6FF70082340A2E4
:10309000182100906720FFF72DFF03A8FDF7E2F944
:1030A000C0F10400652101EBC00085B24FF6FF704E
:1030B000082303AA002100902846FFF71BFF4FF6C4
:1030C000FF70009023480823382102690020FFF791
:1030D00023FF314808230722382100902020FFF7E2
:1030E00077FA1C49486901F0BFF805460E461949B0
:1030F000886901F0B9F807463A460B4627A103A8AC
:10310000CDE90056FDF770F84FF6FF70082303AACB
:10311000382100902820FFF7EDFE244808230322E1
:10312000202100900120FFF7F1F921480823032214
:10313000202100906120FFF7E9F9FFF7B8FD06B004
:10314000BDE8F08120202020200000002020202049
:1031500000000000380800200000C842202532642A
:1031600000000000A08601002533640000408F406D
:10317000252E3166000000004B487A0020487A0076
:10318000202D2D2D000000003130302500000000E2
:1031900020203025000000002947000825342E3269
:1031A000662D25342E326676000000003047000878
:1031B0003347000870B5044600251BE004F080008A
:1031C00020B180210D48FEF7F0FC03E080210B4880
:1031D000FEF7E9FCFEF730FD40210848FEF7E5FC6C
:1031E000FEF72AFD40210548FEF7DDFC6006040ECF
:1031F000681CC5B2082DE1DB70BD0000000C014069
:1032000010B500F001F810BD0CB500200190009041
:103210003348006840F480303149086000BF3048CE
:10322000006800F4003000900198401C0190009864
:1032300018B90198B0F5A06FF1D12948006800F4E1
:10324000003010B10120009001E0002000900098B3
:10325000012843D12348006840F01000214908604C
:103260000846006820F0030008600846006840F047
:10327000020008601A4840681949486008464068DA
:1032800048600846406840F48060486008464068EE
:1032900020F47C1048600846406840F4E81048601C
:1032A0000846006840F08070086000BF0C48006865
:1032B00000F000700028F9D00948406820F00300B1
:1032C000074948600846406840F00200486000BF77
:1032D0000348406800F00C000828F9D10CBD00003C
:1032E0000010024000200240042808D14FF0E021E5
:1032F000096941F004014FF0E022116107E04FF04D
:10330000E021096921F004014FF0E02211617047CA
:103310007047000010B51348006840F001001149E3
:10332000086008464068104908400E494860084651
:1033300000680E4908400B4908600846006820F400
:10334000802008600846406820F4FE0048604FF482
:103350001F008860FFF754FF4FF0006004490860C9
:1033600010BD0000001002400000FFF8FFFFF6FE55
:1033700008ED00E030B589B005460C460020089005
:10338000059006900790019002900390049001210F
:10339000C802FEF7DFFF01210520FEF7DBFF4FF437
:1033A0008070ADF8200018208DF8230003208DF8E0
:1033B000220008A91748FEF76BFBADF81850ADF8CE
:1033C00014400020ADF81A00ADF8160005A9124807
:1033D00000F0F6F96020ADF804000120ADF8060019
:1033E0000020ADF80C0001A90B4800F089F901217B
:1033F000094800F078F80821074800F0CDF90121CC
:10340000054800F055F80121034800F060F809B0C4
:1034100030BD000000080140002C014010B50B48F1
:1034200001880088401C094A1080B1F57A7F07DBCB
:1034300007480088401C0649088000201146088083
:103440000121880700F040F810BD00000C000020AA
:103450000A0000207FB505460C4601210846FEF70C
:1034600059FFADF80850ADF804400020ADF80A004F
:10347000ADF8060001A94FF0804000F0A1F91C2032
:103480008DF8000002208DF8010000208DF8020068
:1034900001208DF803006846FEF75AFC0122114610
:1034A000900700F023F90121880700F010F87FBD94
:1034B00021B1028842F08002028004E002884FF6C7
:1034C0007F731A4002807047CA430282704721B15D
:1034D000028842F00102028004E002884FF6FE7387
:1034E0001A400280704731B1B0F8442042F40042E3
:1034F000A0F8442005E0B0F84420C2F30E02A0F882
:103500004420704710B504466848844208D1012120
:10351000C014FEF72FFF0021E014FEF72BFFC4E0DC
:10352000B4F1804F08D101210846FEF703FF0021C6
:103530000120FEF7FFFEB8E05D48844208D101217A
:103540000220FEF7F7FE00210220FEF7F3FEACE0BA
:103550005848844208D101210420FEF7EBFE0021E7
:103560000420FEF7E7FEA0E05348844208D1012181
:103570000820FEF7DFFE00210820FEF7DBFE94E0C6
:103580004E48844208D101211020FEF7D3FE0021CD
:103590001020FEF7CFFE88E04948844208D101217F
:1035A0002020FEF7C7FE00212020FEF7C3FE7CE0AE
:1035B0004448844208D101214014FEF7DBFE00217B
:1035C0006014FEF7D7FE70E03F48844209D1012124
:1035D000C804FEF7CFFE00214FF40020FEF7CAFE1C
:1035E00063E03A48844209D101210805FEF7C2FE92
:1035F00000214FF48010FEF7BDFE56E034488442AF
:1036000009D101214805FEF7B5FE00214FF4001055
:10361000FEF7B0FE49E02F48844208D10121402046
:10362000FEF788FE00214020FEF784FE3DE02A4898
:10363000844208D101218020FEF77CFE00218020F9
:10364000FEF778FE31E02548844208D1012180153B
:10365000FEF770FE0021A015FEF76CFE25E0204865
:10366000844209D101210804FEF784FE00214FF4B1
:103670008030FEF77FFE18E01A48844209D101210C
:103680004804FEF777FE00214FF40030FEF772FE8B
:103690000BE01548844208D101218804FEF76AFE38
:1036A00000214FF48020FEF765FE10BD002C014084
:1036B0000004004000080040000C004000100040E2
:1036C0000014004000340140004C01400050014013
:1036D0000054014000180040001C00400020004041
:1036E0000040014000440140004801401AB1838974
:1036F0000B43838102E083898B4383817047000001
:1037000070B5002400220023058C4FF6FE7635406C
:103710000584028C8388048B4FF68F752C40B51E70
:103720002C400D882C43751E2A400D892A434D8854
:103730002A43144DA8420BD0134DA84208D0134D74
:10374000A84205D0124DA84202D0124DA84213D172
:103750004FF6F7752A404D892A434FF6FB752A40EC
:103760008D882A434FF6FF652B404FF6FF552B40BF
:103770008D892B43CD892B4383800483CD88858617
:10378000028470BD002C0140003401400040014023
:1037900000440140004801400A460021018B4FF6D9
:1037A000F773194011430183704782884FF68F7376
:1037B0001A40828082880A438280704781867047DF
:1037C000002202881D4B98420ED01D4B98420BD010
:1037D000B0F1804F08D01B4B984205D01A4B98424D
:1037E00002D01A4B984204D14FF68F731A404B887F
:1037F0001A43174B984207D0164B984204D04FF605
:10380000FF431A40CB881A4302808B8883850B883C
:1038100003850A4B98420BD0094B984208D00E4BB7
:10382000984205D00D4B984202D00D4B984201D1E1
:103830000B7A03860123838270470000002C01402D
:10384000003401400004004000080040000C00402B
:1038500000100040001400400040014000440140BE
:103860000048014010B586B0044600200590019044
:10387000029003900490009025208DF80000022013
:103880008DF8010001208DF802008DF803006846D4
:10389000FEF75EFA01210420FEF75CFD012188039A
:1038A000FEF758FD4FF40070ADF8140018208DF8A5
:1038B000170003208DF8160005A91548FEF7E8F853
:1038C0004FF48060ADF8140004208DF8170005A9AE
:1038D0000F48FEF7DDF801940020ADF80800ADF8C0
:1038E0000A00ADF80C00ADF810000C20ADF80E0089
:1038F00001A9084800F090F8012240F2255105483E
:1039000000F064F80121034800F02AF806B010BD69
:10391000000801400038014010B540F2255105482B
:1039200000F02AF820B1034800F0E2F802490870DC
:1039300010BD0000003801400000002010B540F22A
:103940002551054800F018F820B1034800F0D0F8E0
:103950000249087010BD0000004400400100002032
:1039600021B1828942F40052828104E082894DF6BD
:10397000FF731A408281704770B50246002400230D
:103980000025002040F66A16B14200D100BFC1F305
:10399000421501F01F03012606FA03F3012D02D19F
:1039A0009689334006E0022D02D1168A334001E0A9
:1039B000968A33400C12012606FA04F41688344025
:1039C00013B10CB1012000E0002070BDF0B503463A
:1039D000002400260025002040F66A17B94200D1D5
:1039E00000BF1846C1F3421401F01F06012707FA71
:1039F00006F5012C01D10C3004E0022C01D110306D
:103A000000E014301AB107682F43076002E007682E
:103A1000AF430760F0BD00002DE9F04786B00546D2
:103A20000E460024A24600BFA1460027B08900B17F
:103A300000BF2F462C8A4CF6FF700440F0880443E8
:103A40002C82AC894EF6F3100440B08831890843CB
:103A5000718908430443AC81AC8A4FF6FF400440AF
:103A6000B0890443AC8201A8FEF794FC1F4887424A
:103A700002D1DDF810A001E0DDF80CA0A88900F467
:103A8000004040B10AEBCA0000EB0A10316849005F
:103A9000B0FBF1F807E00AEBCA0000EB0A1031684E
:103AA0008900B0FBF1F86420B8FBF0F004012009B4
:103AB000642101FB1089A88900F4004040B1322044
:103AC00000EBC900B0FBF1F000F00700044308E090
:103AD000322000EB09106421B0FBF1F000F00F0080
:103AE00004432C8106B0BDE8F08700000038014097
:103AF00001468888C0F30800704700BFFEE7490010
:103B000050EAC12018BF04204A0D18BF40F0010040
:103B100040F2FF72B2EB515F08BF40F00200012893
:103B200008BF0520704730380A2801D201207047AD
:103B30000020704700BF704710B56FF00400FFF71A
:103B4000D3FB0A4800680A49B0FBF1F00949087044
:103B50000846007800EB4001C1EBC0104FF6FF7142
:103B600001EAC0000449088010BD000024000020C4
:103B700000127A000600002008000020F0B504467C
:103B80004FF47A70B4FBF0F087B24FF47A70B4FB64
:103B9000F0F100FB1145002604E04FF47A7000F0CC
:103BA00009F8761CBE42F8DB15B1284600F002F891
:103BB000F0BD00000146114A12884A434FF0E0234D
:103BC0005A6100229A611A46126942F001021A6192
:103BD00000BF4FF0E022106900F001021AB100F4BA
:103BE0008032002AF5D04FF0E022126922F0010263
:103BF0004FF0E0231A6100229A617047080000200C
:103C000001254FF4A060FEF7DBF8FFF795FF4FF4B6
:103C1000E130FFF727FE47214FF47A70FFF71AFCD7
:103C2000472142F21070FFF7A5FB4FF4FA713548B7
:103C3000FFF7C4FDFDF71CFCFEF79AF90020FEF724
:103C4000E1F80020FEF7ECF8FDF7FEFFFFF776F94C
:103C500009202D490870FFF779F8A8022A498880C1
:103C6000FEF728FA4CE00020FEF712F80446012C7B
:103C70000DD1254801780078401C234A10700E2988
:103C800002DB0E2011460870FFF760F81CE0022CE2
:103C90000DD11D4801780078401E1B4A1070002984
:103CA00002DC002011460870FFF750F80CE0042CED
:103CB00005D10DB9012000E00020054604E0032CE9
:103CC00002D11248FEF7D2FB7DB109E00120FFF7D7
:103CD00055FF3046711C8EB2642801DB002603E0DC
:103CE000FDF7F6FC0028F1D000BF0848FFF734F9D3
:103CF00015B1FDF735FC01E0FDF744FCFDF77CFD57
:103D0000B1E70000002C01403808002038000020F6
:103D100010B500290AD00878002807D00548784453
:103D2000FCF79EFF002801D0002010BD0248784417
:103D300010BD0000C6240000BE2400002DE9C041D3
:103D400030B4DFF8A0C23CEA111418BF3CEA1314E7
:103D500000F0EC8081EA03051CEA111444EAD574F2
:103D600018BF1CEA131500F0C780A4EB05044FF040
:103D7000004545EAC12145EAC32341EA505143EADF
:103D8000525304F17F74994204F500344FEAC02085
:103D90004FEAC22208BF904200F09C804FEA1365B0
:103DA0000FF24016765D4FEA134506FB05F7C7F1A3
:103DB000807706FB07F74FEAD737A7FB0368764201
:103DC000C8F58038A7FB06CE38BFA8F1010807FB6D
:103DD00008E64FF0000EA6FB028CE6FB03CEDCF1FA
:103DE000000CCEF1004E38BFAEF1010EA6FB0C5810
:103DF0004FF000074FF00005E6FB0E87A1FB08C659
:103E0000A0FB07CE16EB0E0645F10005E1FB0765AA
:103E100015F1E04E7EBFA4F580345FEA46066D41A1
:103E200016F1800745F100054FEA17274FEA0666AD
:103E300047EA0567A6F1DE46B6F1805F4FEA152531
:103E40001FD9384624F0010C05EBC471BCF1FE6F9C
:103E500001EB0C1102D8F0BCBDE8008124425CBF2C
:103E600001F5801E9EEAC47F02D4F0BCBDE800814B
:103E7000244238D4F0BCA1F1C041BDE8004100F0BB
:103E8000EDB94FEAD22242EA43524FEAD323A7FBCD
:103E900002864FEAD02040EA415007FB03661EEA43
:103EA0000E0F4FEAD12105FB026658BFA6EB005664
:103EB000B6EB00564FEA520E4EEAC37E18EB0E0EDA
:103EC00056EB530EBDD518EB02085E417F1C55F131
:103ED0000005B6E74FF480154FF000074FF00006DD
:103EE0004FF00008ADE7F0BC4FF0000001F1C04119
:103EF00001F00041BDE8008111EA0C1F0CEA131526
:103F000000D00CE013EA0C1F00F025804FF00000F9
:103F1000F0BC81EA030101F00041BDE80081F0BC82
:103F2000BDE8004181EA030100F098B9F0BCBDE8AA
:103F3000004170B500F044F9097EFC3E00F007B87E
:103F400081EA03014FF0000001F00041704781EA6F
:103F5000030100F083B9F0BCBDE800414FF0000060
:103F600021497047FFFDFBF9F7F5F4F2F0EEEDEBB8
:103F7000E9E8E6E4E3E1E0DEDDDBDAD8D7D5D4D367
:103F8000D1D0CFCDCCCBCAC8C7C6C5C4C2C1C0BFB3
:103F9000BEBDBCBBBAB9B8B7B6B5B4B3B2B1B0AFB9
:103FA000AEADACABAAA9A8A8A7A6A5A4A3A3A2A19D
:103FB000A09F9F9E9D9C9C9B9A9999989797969558
:103FC00095949393929191908F8F8E8E8D8C8C8BF4
:103FD0008B8A89898888878786858584848383827C
:103FE000828181800000FF070000F87F4FEA1153B3
:103FF000A3F58063D3F11E03A8BFD3F1200C08DB27
:104000004FF0004242EAC12252EA505232FA03F023
:10401000704709420BD4102BC4BF0020704703F532
:10402000787CBCF1FF3F05D04FF0FF3070474FF078
:104030000000704770B500F0C3F800BF49922480BB
:1040400000207047F0E7B0FA80F310FA03F10AD0CD
:10405000C3F11D0303F580634FEA41504FEA035259
:1040600002EBD12170474FF000007047DFF848C1E4
:1040700070B51CEA111E1EBF1CEA13159EEA0C0F38
:1040800095EA0C0F00F06F8081EA030423EA4C13D9
:104090004EEAD47E21EA4C1141F4801143F480139E
:1040A000AE44A1FB024CA0FB0365AEF17F7E361946
:1040B00055EB0C05A1FB034C4CF10003A0FB021CCB
:1040C00016EB0C06654153F10003094218BF46F098
:1040D000010613F4007F0BD14FEA03314FEA05309C
:1040E000340341EA155140EA16506FF003020AE02A
:1040F0004FEAC3214FEAC520F40241EA555140EA94
:1041000056506FF0020202EB2E4201EB025585EA97
:10411000CE710AD05FEA440C18BF24F0004450F17D
:10412000000041F1000120EAD47040F2FE7C6245BB
:1041300000D270BDA84214BF4FF080444FF04044FD
:10414000002E08BF0024BEF1806FA8BFA1F1C041BE
:10415000BDE8704080F282804FF0000001F1C04164
:1041600001F0004170479EEA0C0F0CEA131518BFCE
:1041700095EA0C0F06D04FF0000081EA030E0EF016
:10418000004170BD00F01CF88900013E00F007B846
:1041900000F009B84FEA430C5FEA5C5C08D081EAA2
:1041A000030100F05BB84FEA410C5FEA5C5CF6D1BA
:1041B0004FF00000014970470000FF070000F87F42
:1041C0000EF1020E2EF0030E5EF8046B364205D49B
:1041D000012A43EB030515F5001F12D8012841EB16
:1041E000010C1CF5001F0CD80ED14FEAD17C15F53F
:1041F000001F0CEB4C0C0CF1020C08BF4CEBD37CF9
:1042000004E04FF0080C01E04FEAD37C0CEB4C05C6
:1042100026FA05F606F00706B6F1040C06D20EEBF8
:10422000860CBDE870404CF0010C6047DFE80CF0F4
:10423000090B02024FF000414FF00000A1F50021F0
:1042400070BD19461046012851EB010418BFD4F582
:10425000001484BF002001F0004170BD0808A0F5E3
:1042600000114FEA3101704743004FEAD30C4FEA87
:104270003C0C43401FBF40070CF1605113F0FE4F50
:1042800070471CF0006F03D100200CF00041704714
:104290000CF0004343EA507010B540EACC0000F047
:1042A000C2F900BF000000924FEA0001FFF7D6BF3D
:1042B0004FF000414FF00000A1F500217047401081
:1042C00058BFC0F14040491058BFC1F14041814240
:1042D000EFF30080704700004FF47F0C1CEAD0120F
:1042E0001EBF1CEAD11392EA0C0F93EA0C0F00F0E8
:1042F000858090EA010F48BF42F4807240F4000CC0
:1043000041F400002CF07F4120F07F4000B5814255
:10431000A2EB03020FF2081CACEB504EC0F1000000
:104320009EF800E04FEA4E0E00FB0EFC38BF49003D
:104330004FEA2C1C02F5FA020CFB0EF34FEACE1EDC
:104340004FEA112C4FEAC1210EEB635E42EB224291
:104350000EFB0CFC4FEA1C5300FB03114FEA112C1F
:104360004FEA01310EFB0CFC4FEADC4C00FB0C1158
:10437000C14228BF09184CEB03335DF804EB10EB86
:10438000410143EBC250B2F57C0F38BF704729D5CD
:1043900012F0F00F1CBF00F1C04000F00040704769
:1043A000008182838485868788898B8C8D8E8F910E
:1043B0009293959697999A9C9D9FA0A2A3A5A7A832
:1043C000AAACAEB0B2B3B5B7B9BCBEC0C2C5C7C95E
:1043D000CCCED1D4D7D9DCDFE2E6E9ECF0F3F7FAC2
:1043E000FE0000004FEA400C0CF1807CBCF17E4FD7
:1043F00028BF7047B0F1C04000F05BB990EA010FF0
:104400000CEAD11348BF42F48072624538BF63455D
:1044100007D213F47F0F16D080EA010000F00040AD
:10442000704710B500F0FFF8097EFC3E00F005B8BB
:1044300080EA010000F00040704780EA010000F0CF
:10444000004000F036B912F47F0F04BF02487047F5
:1044500080EA010000F02DB90000C07F41000B0E82
:10446000D3F19E0208D950F400034FEA032323FA44
:1044700002F048BF4042704710B500F0D4F800BFCA
:1044800049922480002070476FF0004282EA2000A9
:1044900070470000B0FA80F310FA03F2C3F19D03F5
:1044A0000AD0D90501EB1220530638BF704700F13E
:1044B000010008BF20F001007047000050EA010C25
:1044C00000F113801CF5000F58BFBCF5000F01D49C
:1044D0008842704707D710F5000F58BF11F5000F3D
:1044E00015D488427047894270471CF5000F04D5E7
:1044F000BCF5000FF7D5814270474FF0807C1CEB74
:10450000400F38BF1CEB410F01D28142704710B5FC
:1045100000F089F8922449004FF000504FF080518C
:10452000FFF7CDBE4FF47F0C1CEAD0121EBF1CEA71
:10453000D11392EA0C0F93EA0C0F00F0478090EA37
:10454000010F48BF42F480724FF0004C4CEA00204B
:104550004CEA012102EB0302A0FB0113A2F50002C9
:10456000002918BF43F001035B0028BF4FEA330363
:1045700042EB22425FEA132C4CEBC2502EBFBCEB45
:10458000436FB2F57C0F70474FEA036CBCF1004FEC
:1045900008BF20F00100B2F57C0F38BF70470BD583
:1045A00082F0FF0212F5803FC8BF704700F1C040A3
:1045B000D8BF00F00040704700F5000C5FEA4C0CDB
:1045C00048BF7047B0F1C04000F073B890EA010FE7
:1045D0000CEAD11348BF42F48072624538BF63458C
:1045E00004D280EA010000F00040704710B500F0EE
:1045F0001AF800BF8900013E00F007B800F009B8C2
:104600005FEA410C5FEA1C6C08D080EA010000F010
:1046100050B85FEA400C5FEA1C6CF6D14FF00040E6
:10462000A0F5800070470EF1020E2EF0030E5EF82A
:10463000044B244204D44FEA4102B2F17F4F11D817
:104640004FEA4003B3F17F4F0CD80ED14FEAD07C34
:10465000B2F17F4F0CEB4C0C0CF1020C08BF4CEB91
:10466000D17C04E04FF0080C01E04FEAD17C0CEB68
:104670004C0324FA03F404F00704B4F1040C06D24A
:104680000EEB840CBDE810404CF0010C6047DFE8F5
:104690000CF0070802024FF00040A0F5800010BDAA
:1046A0000846420018BFD2F1807288BF00F0004077
:1046B00010BDFF2141EAD050C005704751EA000CFF
:1046C00000F113801CF5000F58BFBCF5000F01D49A
:1046D0008142704707D711F5000F58BF10F5000F42
:1046E00015D481427047894270471CF5000F04D5EC
:1046F000BCF5000FF7D5884270474FF0807C1CEB6B
:10470000410F38BF1CEB400F01D28842704780EA4E
:10471000010081EA000180EA0100FFF7F8BEFCF722
:104720001CB800020A7E5040000040507E0A020081
:104730007E3C18183C7E0000000000000000002FA6
:10474000000000000700070000147F147F140024FD
:104750002A7F2A120062640813230036495522502A
:1047600000000503000000001C224100000041225F
:104770001C000014083E08140008083E0808000049
:1047800000A0600000080808080800006060000041
:10479000002010080402003E5149453E0000427FBF
:1047A0004000004261514946002141454B3100180B
:1047B00014127F10002745454539003C4A494930CD
:1047C0000001710905030036494949360006494987
:1047D000291E000036360000000056360000000892
:1047E000142241000014141414140000412214086F
:1047F00000020151090600324959513E007C121154
:10480000127C007F49494936003E41414122007FE8
:104810004141221C007F49494941007F09090901A2
:10482000003E4149497A007F0808087F0000417F27
:104830004100002040413F01007F08142241007FD9
:1048400040404040007F020C027F007F0408107F40
:10485000003E4141413E007F09090906003E4151A9
:10486000215E007F09192946004649494931000166
:10487000017F0101003F4040403F001F2040201FBA
:10488000003F4038403F006314081463000708707D
:10489000080700615149454300007F414100005530
:1048A0002A552A55000041417F00000402010204FC
:1048B00000404040404000000102040000205454E9
:1048C0005478007F48444438003844444420003839
:1048D0004444487F00385454541800087E090102AB
:1048E0000018A4A4A47C007F080404780000447D80
:1048F0004000004080847D00007F102844000000BC
:10490000417F4000007C04180478007C080404788F
:1049100000384444443800FC24242418001824247B
:1049200018FC007C08040408004854545420000477
:104930003F444020003C4040207C001C2040201C84
:10494000003C4030403C004428102844001CA0A0FB
:10495000A07C004464544C44141414141414000037
:10496000000000000000000000000000FC0000004B
:10497000000002000000000C020C02000000000019
:10498000000090D0BCD0BC900003000300001824AD
:10499000FE448C000302070201001824D8B04C80AA
:1049A000000300010201C038E438E0000102020106
:1049B00002020806000000000000000000000000E5
:1049C00000F80402000000010204000204F80000E4
:1049D0000004020100009060F860900000000100F7
:1049E00000002020FC20200000000100000000004A
:1049F0000000000008060000000020202020200009
:104A000000000000000000000000000000020000A4
:104A100000000080601C0200040300000000F80495
:104A20000404F8000102020201000008FC0000007A
:104A3000000203020000188444241800030202024A
:104A4000020008042424D80001020202010040B040
:104A500088FC80000000000302003C242424C400E1
:104A6000010202020100F824242CC000010202020B
:104A700001000C04E41C0400000003000000D82422
:104A80002424D80001020202010038444444F80002
:104A900000030202010000001000000000000200FC
:104AA00000000000200000000000060000000020C0
:104AB0005088040200000000010290909090900045
:104AC00000000000000000020488502000020100E5
:104AD00000001804C4241800000002000000F804BC
:104AE000E494F80001020202020000E09CF0800061
:104AF00002030000030204FC2424D8000203020283
:104B00000100F80404040C0001020202010004FC8C
:104B10000404F80002030202010004FC24740C00E7
:104B200002030202030004FC24740C0002030200CE
:104B30000000F0080444CC4000010202010004FC23
:104B40002020FC040203000003020404FC0404000F
:104B5000020203020200000404FC0404060404032D
:104B6000000004FC24D00C0402030200030204FC35
:104B700004000000020302020203FC3CC03CFC00F3
:104B800003000300030004FC30C4FC040203020021
:104B90000300F8040404F80001020202010004FC0E
:104BA00024241800020302000000F8848404F800A2
:104BB00001020207050004FC2464980002030200BD
:104BC0000302182424448C000302020201000C0496
:104BD000FC040C0000020302000004FC0000FC04C2
:104BE000000102020100047C80E01C0400000300BC
:104BF00000001CE03CE01C00000300030000049CDB
:104C0000609C0400020300030200041CE01C04007A
:104C10000002030200000C84641C04000203020270
:104C200003000000FE020200000007040400000E62
:104C300030C00000000000010200000202FE00007F
:104C4000000404070000000402040000000000004B
:104C50000000000000000000080808080808000024
:104C6000020000000000000000000040A0A0C00002
:104C700000010202030204FC2020C0000003020223
:104C8000010000C02020600000010202020000C0FC
:104C90002024FC0000010202030200C0A0A0C0000A
:104CA0000001020202000020F82424040002030292
:104CB00002000040A0A0602000070A0A0A0404FCC9
:104CC0002020C0000203020003020020E4000000D4
:104CD000000203020000000020E4000008080807AA
:104CE000000004FC80E02020020302000302040410
:104CF000FC000000020203020200E020E020C000ED
:104D000003000300030020E02020C0000203020093
:104D1000030200C02020C00000010202010020E0C8
:104D20002020C000080F0A02010000C02020E0007F
:104D30000001020A0F0820E04020200002030200C8
:104D400000000060A0A0200000020202030000207A
:104D5000F820000000000102020020E00020E00036
:104D600000010202030220E0208060200000030115
:104D700000006080E080600000030003000020600D
:104D80008060200002030003020020E020806020F9
:104D90000808070100000020A060200000020302B4
:104DA0000200000020DE02000000000704000000F6
:104DB00000FF00000000000F00000002DE200000E5
:104DC00000040700000002010204040200000000C9
:104DD00000000000000000000000000000000000D3
:104DE0000000000000F80000000000000033300068
:104DF000000000100C06100C06000000000000006F
:104E0000000040C07840C0784000043F04043F04E4
:104E10000400007088FC08300000001820FF211EEC
:104E20000000F008F000E018000000211C031E2123
:104E30001E0000F00888700000001E21232419279E
:104E4000211010160E0000000000000000000000FD
:104E50000000000000E01804020000000007182015
:104E6000400000020418E000000000402018070085
:104E70000000404080F0804040000202010F01022B
:104E80000200000000F0000000000101011F01010C
:104E90000100000000000000000080B07000000071
:104EA00000000000000000000000000101010101FD
:104EB0000101000000000000000000303000000090
:104EC0000000000000008060180400601806010067
:104ED000000000E010080810E000000F1020201073
:104EE0000F00001010F8000000000020203F2020DC
:104EF0000000007008080888700000302824222173
:104F00003000003008888848300000182020201128
:104F10000E000000C02010F8000000070424243F09
:104F2000240000F8088888080800001921202011B2
:104F30000E0000E0108888180000000F11202011DA
:104F40000E0000380808C83808000000003F0000C4
:104F500000000070880808887000001C22212122AF
:104F60001C0000E010080810E000000031222211AF
:104F70000F00000000C0C000000000000030300042
:104F800000000000008000000000000080600000C1
:104F900000000000804020100800000102040810FA
:104FA0002000404040404040400004040404040409
:104FB00004000008102040800000002010080402B7
:104FC0000100007048080808F000000000303601B9
:104FD0000000C030C828E810E00007182724231478
:104FE0000B000000C038E0000000203C2302022734
:104FF000382008F8888888700000203F2020201181
:105000000E00C030080808083800071820202010BB
:10501000080008F808080810E000203F20202010B1
:105020000F0008F88888E8081000203F202023207F
:10503000180008F88888E8081000203F20000300C6
:105040000000C03008080838000007182020221E81
:10505000020008F808000008F808203F210101219B
:105060003F20000808F8080800000020203F20200A
:10507000000000000808F8080800C08080807F0059
:10508000000008F888C028180800203F20012638B2
:10509000200008F8080000000000203F2020202009
:1050A000300008F8F800F8F80800203F003F003F03
:1050B000200008F830C00008F808203F200007183A
:1050C0003F00E01008080810E0000F10202020101A
:1050D0000F0008F808080808F000203F210101012E
:1050E0000000E01008080810E0000F1824243850D1
:1050F0004F0008F8888888887000203F2000030C43
:10510000302000708808080838000038202121224B
:105110001C00180808F8080818000000203F2000AC
:10512000000008F808000008F808001F20202020D0
:105130001F000878880000C83808000007380E01F2
:105140000000F80800F80008F800033C0700073CDE
:105150000300081868808068180820302C03032C8E
:1051600030200838C800C83808000000203F200060
:10517000000010080808C838080020382621202020
:105180001800000000FE020202000000007F404004
:105190004000000C30C00000000000000001063894
:1051A000C00000020202FE000000004040407F00FC
:1051B00000000000040202020400000000000000E1
:1051C00000000000000000000000808080808080DF
:1051D00080800002020400000000000000000000C7
:1051E000000000008080808000000019242222221C
:1051F0003F2008F8008080000000003F11202011AF
:105200000E000000008080800000000E1120202091
:105210001100000000808088F800000E112020108E
:105220003F200000808080800000001F2222222278
:105230001300008080F0888888180020203F2020FC
:1052400000000000808080808000006B9494949324
:10525000600008F8008080800000203F21000020CE
:105260003F2000809898000000000020203F202070
:105270000000000000809898000000C08080807FBF
:10528000000008F8000080808000203F24022D30BC
:105290002000000808F8000000000020203F202027
:1052A00000008080808080808000203F20003F20A0
:1052B000003F8080008080800000203F210000208F
:1052C0003F200000808080800000001F20202020E0
:1052D0001F00808000808000000080FFA12020113E
:1052E0000E000000008080808000000E112020A0B1
:1052F000FF80808080008080800020203F2120006F
:105300000100000080808080800000332424242459
:105310001900008080E0808000000000001F202035
:1053200000008080000000808000001F20202010EE
:105330003F20808080000080808000010E300806C1
:10534000010080800080008080800F300C030C30D2
:105350000F0000808000808080000020312E0E3100
:105360002000808080000080808080818E70180600
:10537000010000808080808080000021302C22216C
:10538000300000000000807C020200000000003FAE
:10539000404000000000FF00000000000000FF008F
:1053A00000000002027C800000000040403F00003E
:1053B00000000006010102020404000000000000D9
:1053C00000000000000000000000000000000000DD
:1053D00000000000000000000000000000000000CD
:1053E0000000000000000000000000F0F0F00000ED
:1053F00000000000000000017F010000000000002C
:105400000000001C1C1C0000000000008060301C1C
:105410008C60301C0C000000000000000000000048
:10542000000000000000000000000000000000007C
:1054300000E00000000000E000000086E69F868695
:105440008686E69F860000011F01010101011F0100
:105450000100000080C06020F820E0C000000000D3
:1054600003070C18FF70E18100000000070F101007
:105470007F100F0700008060206080000000E020A7
:1054800000000F3020309F70DC371030C00000006B
:10549000100E03000718101807000000C02020E0BD
:1054A000C0000000000080E01F38E88703C43C040F
:1054B0000000070F1810100B070D101008000080D7
:1054C0008C4C3800000000000000000000000000CC
:1054D00000000000000000000000000000000000CC
:1054E000000000000000000080E030080400000020
:1054F000000000FEFF0100000000000000000000AE
:10550000030F1820400000040830E0800000000075
:1055100000000000000001FFFE000000000000404D
:1055200020180F0300000000000000000000000031
:10553000C00000000000004266663C18FF183C6690
:1055400066420000000000000300000000000000B0
:10555000000000008000000000000010101010107B
:10556000FF101010101000000000000003000000E9
:10557000000000000000000000000000000000002B
:105580000000000000000000000000808C4C38008B
:10559000000000000000000000000000000000000B
:1055A000000000101010101010101010100000005B
:1055B00000000000000000000000000000000000EB
:1055C00000000000000000000000000000000000DB
:1055D000000000001C1C1C00000000000000000077
:1055E000000000000000E0380C00000000008070A7
:1055F0001C03000000000060380E010000000000E5
:105600000000000080C060202060C080000000FE1C
:10561000FF010000000001FFFE000001070E18104E
:1056200010180E0701000000808080C0E00000001C
:1056300000000000000000FFFF000000000000006C
:105640001010101F1F10101000000080402020209C
:105650002060C080000000030300804020381F0746
:105660000000001C1A1918181818181F00000080D4
:10567000C020202060C08000000000030300101044
:10568000182FE780000000070F10101010180F07E8
:105690000000000000000000C0E0F000000000C0BA
:1056A000B088868180FFFF8080000000000000102D
:1056B000101F1F1010000000E060606060606060FC
:1056C000000000003F1008080818F0E00000000784
:1056D0000B101010101C0F030000000080C04020B1
:1056E0002020E0C0000000FCFF211008080818F08E
:1056F000E0000001070C18101010080F0300000054
:10570000C0E06060606060E06000000003000000D6
:10571000E0180700000000000000001F1F0000004C
:1057200000000080C0602020202060C08000008732
:10573000EF2C1818303068CF830000070F081010C6
:105740001010180F07000000C0C020202020C080CB
:105750000000001F3F604040402010FFFE0000009E
:105760000C1C101010080F030000000000000000C7
:1057700000000000000000000000000E0E0E0000FF
:10578000000000000000001C1C1C000000000000C5
:105790000000000000000000000000000000000CFD
:1057A0000C0000000000000000000058380000005D
:1057B00000000000000000000080402010000000F9
:1057C00010284482010000000000000000000000DA
:1057D00001020408100000000000000000000000AA
:1057E0000000008484848484848484848400000091
:1057F00000000000000000000000000010204080B9
:1058000000000000000000000000000001824428A9
:10581000100000001008040201000000000000C099
:1058200020201010101030E0C0000003030000F032
:1058300010080C070300000000001C1C1C000000E6
:105840000000000000C0406020202040C00000FC9C
:10585000FF01F00E03C1FE03807F0001070E081157
:105860001110110904020000000080E0E0000000B7
:1058700000000000807C4340477FF8800000101843
:105880001F1000000000131F1C1020E0E02020204B
:105890002060C080000000FFFF10101010182FE7DC
:1058A0008000101F1F1010101010180F07000000AC
:1058B00080C0402020202060E00000FCFF010000AC
:1058C0000000000001000001070E1810101008046D
:1058D000030020E0E02020202040C080000000FFE6
:1058E000FF000000000001FFFE00101F1F1010103D
:1058F00018080E07010020E0E02020202020206072
:10590000800000FFFF101010107C00000000101F2E
:105910001F10101010101018060020E0E0202020AA
:1059200020206060800000FFFF101010107C00003D
:105930000100101F1F100000000000000000000008
:1059400080C06020202040E0000000FCFF0100003B
:105950004040C0C140400001070E181010100F0F4A
:10596000000020E0E0200000000020E0E02000FF38
:10597000FF101010101010FFFF00101F1F1000006C
:105980000000101F1F100000202020E0E020202039
:1059900000000000000000FFFF0000000000000009
:1059A0001010101F1F101010000000000000202019
:1059B00020E0E020202000000000000000FFFF00A9
:1059C00000000060E0808080C07F3F00000020E099
:1059D000E020000020A06020200000FFFF30187CA5
:1059E000E3C000000000101F1F10000001131F1C67
:1059F000181020E0E020000000000000000000FF80
:105A0000FF000000000000000000101F1F10101019
:105A100010101018060020E0E0E000000000E0E0B8
:105A2000E02000FF013FFEC0E01E01FFFF00101F4D
:105A30001000031F0300101F1F1020E0E0C0000033
:105A400000000020E02000FF0003071C78E0800039
:105A5000FF00101F100000000000030F1F000000D7
:105A600080C060202060C080000000FEFF010000B8
:105A7000000000FFFE000001070E181010180C07B0
:105A8000010020E0E0202020202060C0800000FFF6
:105A9000FF2020202020301F0F00101F1F100000AB
:105AA000000000000000000080C060202060C08076
:105AB000000000FEFF010000000000FFFE000001EA
:105AC000070E1111133C7C67210020E0E02020200C
:105AD000202060C0800000FFFF101030F0D0080FC1
