:020000040800F2
:10000000281300208D010008DD0C00087B0B000880
:10001000D90C000821080008972200080000000001
:10002000000000000000000000000000F9130008BC
:100030005B0A0008000000006B1200088D1A00081F
:10004000A7010008A7010008A7010008A7010008F0
:10005000A7010008A7010008A7010008A7010008E0
:10006000A7010008A7010008A7010008250800084B
:10007000A7010008A7010008A7010008A7010008C0
:10008000A7010008A7010008A7010008A7010008B0
:10009000A7010008A7010008A7010008A7010008A0
:1000A000A7010008A7010008A7010008A701000890
:1000B000991B0008A7010008A7010008A701000874
:1000C000A7010008A7010008A7010008A701000870
:1000D000A701000895200008B9200008A701000822
:1000E000A7010008A7010008A701000800F002F816
:1000F00000F03CF80AA090E8000C82448344AAF186
:100100000107DA4501D100F031F8AFF2090EBAE883
:100110000F0013F0010F18BFFB1A43F0010318473B
:100120006042000080420000103A24BF78C878C1C5
:10013000FAD8520724BF30C830C144BF04680C60ED
:10014000704700000023002400250026103A28BF35
:1001500078C1FBD8520728BF30C148BF0B60704739
:10016000002070471FB51FBD10B510BD00F056F937
:100170001146FFF7F7FF02F00FF900F074F903B42E
:10018000FFF7F2FF03BC02F08FF800000948804738
:1001900009480047FEE7FEE7FEE7FEE7FEE7FEE769
:1001A000FEE7FEE7FEE7FEE704480549054A064B81
:1001B00070470000911A0008ED000008280D00208B
:1001C00028130020280F0020280F00200FB4044916
:1001D00010B503AA029800F047F810BC5DF814FBB4
:1001E000140000204FF0000200B5134694469646D6
:1001F000203922BFA0E80C50A0E80C50B1F120013A
:10020000BFF4F7AF090728BFA0E80C5048BF0CC0E7
:100210005DF804EB890028BF40F8042B08BF704745
:1002200048BF20F8022B11F0804F18BF00F8012BB7
:10023000704770477047704701694A1C026108782F
:10024000704700B58FB0CDE9013100210591054916
:100250007944CDE903101146684600F017F80FB055
:1002600000BD0000E5FFFFFF074B70B50D467B4466
:10027000FFF7E7FF0446284600F0CCF810B14FF036
:10028000FF3070BD204670BD032100002DE9F05FF6
:10029000894604464FF0000ADFF874B1FB44C0F809
:1002A00020A02046E1688847002874D0252806D081
:1002B000D4E901219047206A401C2062F1E7002622
:1002C0005F462046E16888472028054607DB312D38
:1002D00005D2781910F8200C08B10643F1E7B007F1
:1002E00001D526F00406C4F81CA00027C4F818A005
:1002F0002A2D09D0284601F0D0FF38B304EB870837
:10030000303DC8F8185019E059F8041B204604EB9A
:1003100087029161E1688847012F054618D1E0699D
:10032000002820DA26F020061DE0D8F8180000EB9F
:10033000800005EB40003038C8F818002046E1681E
:100340008847054601F0A9FF0028EED1012F0AD009
:100350002E2D08D12046E16888477F1C0546022FD4
:1003600046F02006C4DBA069002803DA404246F0CC
:100370000106A061F00701D026F010066C2D0BD00D
:10038000682D09D04C2D39D06A2D35D0742D35D03B
:100390007A2D33D016E038E0E1682F4620468847B2
:1003A000B842054609D16C2F26D04FF48060E16831
:1003B000064320468847054604E06C2F1AD04FF4C8
:1003C000807006430DB3A5F14100192802D82035ED
:1003D00046F400664A462946204626604E46FFF708
:1003E000BFFE80B101280BD0F61D26F0070000F1FA
:1003F000080956E74020E4E78020D8E70020D6E748
:1004000006F104094DE7284652E7206ABDE8F09F4F
:10041000CC400000007B00F080007047754600F083
:100420002BF8AE4605006946534620F00700854686
:1004300018B020B5FFF7B8FEBDE820404FF0000629
:100440004FF000074FF000084FF0000B21F00701BC
:10045000AC46ACE8C009ACE8C009ACE8C009ACE8FF
:10046000C0098D46704710B50446AFF300802046A2
:10047000BDE81040FFF783BE00487047C80C00205D
:1004800000B587B0142102A8FFF7ACFE0020019050
:100490000121480200F026FF0121042000F022FF84
:1004A0004FF4004000F0E2FE00F094F900F060F834
:1004B0000120ADF8040000208DF8070001A91F48B5
:1004C00000F0CCFA1E4800F09FF8002002908DF852
:1004D0000C008DF80D004FF40020049000200590D2
:1004E00001208DF8180002A9154800F0DBF8002360
:1004F00001221946124800F0FDF80121104800F0D1
:1005000021F801210E4800F028F80D4800F04EF9BE
:1005100000BF0B4800F0BBF80028FAD1084800F0F3
:1005200053F900BF064800F0A8F80028FAD10121CD
:10053000034800F097F807B000BD00000008014034
:100540000024014021B1826842F00102826003E090
:10055000826822F001028260704721B1826842F411
:100560008072826003E0826822F480728260704749
:1005700000B58DB02C2102A8FFF734FE00200190B9
:100580000121084600F07EFE1C4800F083F91C485B
:1005900002901C48039000200490642005900020E5
:1005A000069080200790400008908000099020204D
:1005B0000A9000020B9000200C9002A90F4800F056
:1005C0002EFA0B208DF8040000208DF805008DF820
:1005D000060001208DF8070001A800F081FB022031
:1005E00000F03EF901220221044800F00FFA012137
:1005F000024800F043F90DB000BD000008000240C1
:100600004C2401404800002010B5044612488442A2
:1006100008D10121401500F075FE0021601500F0A1
:1006200071FE17E00D48844208D10121001500F049
:1006300069FE0021201500F065FE0BE008488442A9
:1006400008D10121C80300F05DFE00214FF40040F5
:1006500000F058FE10BD00000024014000280140B9
:10066000003C014021B1826842F48012826003E0C4
:10067000826822F4801282607047014600208A68F6
:1006800002F004020AB1012000E000207047014698
:1006900000208A6802F008020AB1012000E0002070
:1006A0007047000030B502460020002350680F4C10
:1006B00020400D790C6844EA05242043506090687E
:1006C0000B4C2040D1E902542C434D7944EA4504B7
:1006D00020439060D06A20F470000C7C641EE4B269
:1006E000234340EA0350D06230BD0000FFFEF0FF1C
:1006F000FDF7F1FFF0B504460D4600200021092D5D
:1007000011DDE068A5F10A0606EB4607072606FAA2
:1007100007F18843A5F10A0606EB460603FA06F13F
:100720000843E0600CE0206905EB4507072606FA60
:1007300007F1884305EB450603FA06F108432061FB
:10074000072A0FDA606B561E06EB86071F2606FA8D
:1007500007F18843561E06EB860605FA06F10843A4
:10076000606322E00D2A0FDA206BD61F06EB8607A6
:100770001F2606FA07F18843D61F06EB860605FA00
:1007800006F10843206310E0E06AA2F10D0606EBD3
:1007900086071F2606FA07F18843A2F10D0606EB2D
:1007A000860605FA06F10843E062F0BD816841F073
:1007B0000801816070470000024A1080121D1180FC
:1007C0007047000028040040816841F00401816006
:1007D000704700000EB500200090019002900121AA
:1007E000022000F05FFD0D4801F04AFA4720ADF805
:1007F00000000120ADF804000020ADF80600ADF8BF
:1008000002006946054801F099FB2021034801F0E8
:100810008AFB0121014801F018FA0EBD00040040D6
:1008200000BFFEE710B5022000F0DAF888B10948F1
:1008300001880088401C074A1080B1F57A7F05DBEB
:1008400005A0FFF7C3FC002002490880022000F049
:1008500007F810BD02000020686168610000000018
:1008600000F0805111B10349086001E0024948607D
:1008700070470000040402400000024021B10268F9
:1008800042F00102026004E002684FF6FE731A4073
:100890000260704701684FF6FE721140016000214E
:1008A000016041608160C1604B49884208D14A497A
:1008B0000839496841F00F01474A083A51608AE017
:1008C00045491431884208D143490839496841F003
:1008D000F001414A083A51607DE03F4928318842A1
:1008E00008D13D490839496841F470613A4A083AEB
:1008F000516070E038493C31884208D136490839A6
:10090000496841F47041344A083A516063E0324921
:100910005031884208D130490839496841F4702182
:100920002D4A083A516056E02B496431884208D17B
:1009300029490839496841F47001274A083A516049
:1009400049E025497831884208D123490839496866
:1009500041F07061204A083A51603CE01F498842EA
:1009600006D1011F096841F00F01021F116032E03A
:100970001A491431884208D11849091F096841F001
:10098000F001164A121F116025E0144928318842EF
:1009900008D11249091F096841F470610F4A121FFA
:1009A000116018E00D493C31884208D10B49091FFC
:1009B000096841F47041094A121F11600BE00749B0
:1009C0005031884207D10549091F096841F4702157
:1009D000024A121F116070470800024008040240DA
:1009E00001460020002201F0805313B1054B1A6824
:1009F00001E0054B1A6802EA01030BB1012000E097
:100A00000020704700040240000002401AB1036851
:100A10000B43036002E003688B430360704710B52B
:100A20000022026847F6F0739A430C6A8B682343EE
:100A30000C6923434C6923438C692343CC692343CA
:100A40004C6A23438C6A23431A430260CB68436099
:100A50000B6883604B68C36010BD70472DE9F0419F
:100A6000024600250026002000230024002791F8DC
:100A700003C00CF00F0591F803C00CF0100CBCF192
:100A8000000F03D091F802C04CEA050591F800C0B0
:100A9000BCF1000F31D0146800202BE04FF0010CA6
:100AA0000CFA00F3B1F800C00CEA03069E4220D114
:100AB00083004FF00F0C0CFA03F7BC4305FA03FC5C
:100AC0004CEA040491F803C0BCF1280F06D14FF0A2
:100AD000010C0CFA00FCC2F814C00AE091F803C043
:100AE000BCF1480F05D14FF0010C0CFA00FCC2F824
:100AF00010C0401C0828D1D31460B1F800C0BCF16C
:100B0000FF0F34DD546800202EE000F1080C4FF098
:100B1000010808FA0CF3B1F800C00CEA03069E4283
:100B200021D183004FF00F0C0CFA03F7BC4305FAF8
:100B300003FC4CEA040491F803C0BCF1280F05D172
:100B400000F1080C08FA0CF8C2F8148091F803C000
:100B5000BCF1480F07D100F1080C4FF0010808FA6A
:100B60000CF8C2F81080401C0828CED35460BDE8B1
:100B7000F081416170470161704700BFFEE70000EE
:100B800010B580210A48FFF7F6FF40210848FFF71B
:100B9000F2FF00F037F880210548FFF7EAFF00F088
:100BA00031F840210248FFF7E4FF00F02BF810BDB8
:100BB000000C014010B580210648FFF7DAFF402104
:100BC0000448FFF7D8FF00F01DF880210148FFF727
:100BD000D2FF10BD000C014010B580210848FFF77E
:100BE000CAFF00F00FF840210548FFF7C4FF00F0EE
:100BF00009F840210248FFF7BCFF00F003F810BDE0
:100C0000000C0140032000BF011EA0F10102D0B280
:100C1000FAD1704708B5002000900121042000F0AF
:100C200061FBF020ADF8000048208DF80300694614
:100C30000148FFF713FF08BD0008014010B5044646
:100C400014B10120224908702148007858B3214886
:100C5000006858B11F48001D006838B11D480830B1
:100C6000006818B11B480C300068E0B90A2001F098
:100C70003FFB0020164908701648006808B901209B
:100C800010BD1448001D006808B90220F8E711489B
:100C90000830006808B90320F2E70E480C300068FD
:100CA00098B90420ECE70B48006870B10948001DB2
:100CB000006850B107480830006830B105480C3072
:100CC000006810B10120024908700020D8E7000038
:100CD0001C0000201001214200BFFEE77047000009
:100CE00070B5002100230F22C47804B3154C24688A
:100CF00004F4E064C4F5E064210AC1F10403CA40CD
:100D0000447804FA03F184781440214309010E4C1D
:100D10000678A155047804F01F050124AC4005783D
:100D20006D11AD0005F1E025C5F8004109E004783A
:100D300004F01F050124AC40044D0678761145F8F7
:100D4000264070BD0CED00E000E400E080E100E032
:100D500002490143024A1160704700000000FA0591
:100D60000CED00E070B500240CE0002506E000204A
:100D7000074901EBC5010855681CC5B2802DF6DB9B
:100D8000601CC4B2082CF0DB00F05CF970BD000000
:100D90004808002010B504461CB90021A62000F028
:100DA00048FA012C03D10021A72000F042FA10BD1F
:100DB00010B504463CB90021C82000F03AFA0021E1
:100DC000A12000F036FA012C07D10021C02000F04C
:100DD00030FA0021A02000F02CFA10BD2DE9FF4FC1
:100DE00084B081468A460020029083460698A0EB94
:100DF00009040798A0EB0A06CDF80490CDF800A0EE
:100E0000002C01DD012705E00CB9002702E04FF0BE
:100E1000FF376442002E02DD4FF0010806E016B9EC
:100E20004FF0000802E04FF0FF386642B44201DDA7
:100E3000254600E03546002003901EE0009AD1B21E
:100E4000019AD0B2119A00F01FF802982044029043
:100E5000B3440298A84205DD0298401B0290019815
:100E600038440190AB4504DDABEB050B00984044E2
:100E700000900398401C80B20390691C039888423C
:100E8000DCDB08B0BDE8F08FF0B514460B46CF1799
:100E900001EB5777C7F3C702CF1701EB5777FF1066
:100EA000A1EBC707FEB20123B340DDB24CB1134B37
:100EB00003EBC0039B5C2B43104F07EBC007BB54F5
:100EC0001AE00E4B03EBC0039B5CDB430B4F07EBBD
:100ED000C007BB54094B03EBC0039B5C2B43074F7C
:100EE00007EBC007BB54054B03EBC0039B5CDB4324
:100EF000024F07EBC007BB54F0BD000048080020BC
:100F000008B50121082000F0EDF9C020ADF800007F
:100F100014208DF8030003208DF80200694647482D
:100F2000FFF79CFDC0214548FFF725FE0420ADF8E2
:100F3000000010208DF8030003208DF802006946A0
:100F40003F48FFF78BFD04213D48FFF714FE0421C5
:100F50003B48FFF70EFEC82001F0CAF904213848CB
:100F6000FFF709FE0021AE2000F063F900210846DA
:100F700000F05FF90021102000F05BF90021402013
:100F800000F057F90021812000F053F90021CF2013
:100F900000F04FF90021A12000F04BF90021C820FA
:100FA00000F047F90021A62000F043F90021A82015
:100FB00000F03FF900213F2000F03BF90021D32051
:100FC00000F037F90021084600F033F90021D52060
:100FD00000F02FF90021802000F02BF90021D9200A
:100FE00000F027F90021F12000F023F90021DA2098
:100FF00000F01FF90021122000F01BF90021DB2076
:1010000000F017F90021302000F013F90021202012
:1010100000F00FF90021022000F00BF900218D20D3
:1010200000F007F90021142000F003F9FFF79AFE01
:101030000021AF2000F0FDF808BD0000000C0140C9
:101040000008014070B500242BE004F1B001C8B2E3
:10105000002100F0EEF80021084600F0EAF8002137
:10106000102000F0E6F8FFF78BFD782000F060FC20
:10107000FFF7B2FD402000F05BFCFFF7ADFD00255F
:1010800009E0094901EBC501085D00F051FCFFF7DB
:10109000A3FD681CC5B2802DF3DBFFF78BFD601C40
:1010A000C4B2082CD1DB70BD480800202DE9FE4FEA
:1010B0000746884692461C460197CDF80080082CCA
:1010C00002D14FF006091FE02046E31704EB5373EB
:1010D000DB1021464FEAE47C04EB5C7C4FEAEC0C2D
:1010E000A4EBCC0CBCF1000F02D04FF0010C01E0DE
:1010F0004FF0000C6344224604EBD27C4FEA6C0CA8
:1011000003FB0CF303F0FF09AAF12000C6B200258F
:101110005EE0082C07D106EB46002F4901EB4000AA
:1011200010F805B01DE00C2C07D106EB46002B494A
:1011300001EB800010F805B013E0102C05D1284811
:1011400000EB061010F805B00BE0182C07D106EBE9
:10115000C600244901EB800010F805B001E0BDE8AD
:10116000FE8F002002901CE00BF0010028B14146E8
:1011700038460C9AFFF788FE09E00C9808B9012060
:1011800000E00020024641463846FFF77DFE4FEA68
:101190006B0B08F1010000F0FF080298401CC0B280
:1011A000029002980828DFDB781CC7B2082C0BD00D
:1011B00004EBD4714A100199791A8A4204D1019F33
:1011C00000980830C0B20090DDF80080681CC5B2FD
:1011D0004D459EDB00BFC2E784290008AC2B000808
:1011E00020300008103600082DE9F84106460F4669
:1011F00014461D46DDF81C8013E0CDF800802278EF
:101200002B4639463046FFF751FF082D02D1B01D5D
:10121000C6B205E0284605EBD07106EB6101CEB2FF
:10122000641C2078202802DB20787E28E5DDBDE8DC
:10123000F88170B505460C46FFF7A2FC782000F057
:1012400077FBFFF7C9FC1CB1402000F071FB02E006
:10125000002000F06DFBFFF7BFFC284600F068FBA4
:10126000FFF7BAFCFFF7A6FC70BD704701460020EF
:10127000034A506820F44040084350607047000023
:101280000010024029B1064A52690243044B5A61D8
:1012900004E0034A52698243014B5A6170470000DF
:1012A0000010024029B1064AD2690243044BDA61B8
:1012B00004E0034AD2698243014BDA6170470000BF
:1012C0000010024029B1064A12690243044B1A6118
:1012D00004E0034A12698243014B1A61704700001F
:1012E0000010024029B1064A92690243044B9A61F8
:1012F00004E0034A92698243014B9A6170470000FF
:101300000010024029B1064AD2680243044BDA6059
:1013100004E0034AD2688243014BDA607047000060
:101320000010024030B500210022002400232D4D82
:101330006D6805F00C0121B1042905D0082923D1DD
:1013400005E0294D056022E0274D05601FE0254D91
:101350006D6805F47012234D6D6805F48034022524
:1013600005EB92421CB9214D554305600BE01D4D24
:101370006D6805F400351DB11C4D5543056002E054
:10138000194D5543056002E0174D056000BF00BFD1
:10139000144D6D6805F0F0010909154D6B5C056889
:1013A000DD4045600F4D6D6805F4E061090A104DA0
:1013B0006B5C4568DD4085600A4D6D6805F46051E1
:1013C000C90A0B4D6B5C4568DD40C560054D6D6815
:1013D00005F44041890B074D6B5CC568B5FBF3F51F
:1013E000056130BD0010024000127A0000093D0086
:1013F0001D0000202D000020704770B504460D46EA
:101400001646E9B2E0B20022FFF73EFD70BD0000D3
:1014100070B5012415E001250FE00B4B1B8804FB80
:1014200003F291B2094B1B8805FB03F290B24FF611
:10143000FF7200F00DF8681C85B2042DEDDD601C14
:1014400084B2042CE7DD70BD0E0000200C000020EB
:1014500070B504460D461646E9B2E0B20122FFF728
:1014600013FD70BD2DE9F84304460D4616461F4690
:10147000DDF820800120EBB2F2B2E9B20090E0B2D8
:10148000FFF7ACFC0120FBB2F2B2F9B20090E0B27F
:10149000FFF7A4FC0120FBB2E2B2E9B20090E0B297
:1014A000FFF79CFC0120FBB2F2B2E9B20090F0B26F
:1014B000FFF794FCBDE8F8832DE9F04706460F4698
:1014C00090469946DDF820A000240025BAF1010FCE
:1014D00018D100BF11E0002509E07A1991B2321944
:1014E00090B24FF6FF72FFF7B3FF681C85B2A9EB0D
:1014F0000700A842F1DA601C84B2A8EB0600A04203
:10150000E9DA16E0002410E0002508E07A1991B22B
:10151000321990B20022FFF770FF681C85B2A9EB68
:101520000700A842F2DA601C84B2A8EB0600A042D1
:10153000EADABDE8F087000008B54FF6FF700090CA
:101540000348082338214268002000F057F908BDFD
:101550000400002010B5FFF775FD10BD10B57648EA
:101560000078192871D2DFE800F0E30D17212B3540
:101570003F49535D67717A838B939BA3ABB3BBC326
:10158000CBD3DB0046F2A71141F61F40FFF714F959
:101590006AA069494860CCE042F20F7141F61F40F1
:1015A000FFF70AF967A064494860C2E041F2873159
:1015B00041F61F40FFF700F964A05F494860B8E0BA
:1015C00040F6C31141F61F40FFF7F6F861A05A49F3
:1015D0004860AEE040F2E73141F61F40FFF7ECF81B
:1015E0005EA055494860A4E040F2F31141F61F4067
:1015F000FFF7E2F85BA0504948609AE040F6C3115B
:1016000040F2CF20FFF7D8F858A04B49486090E04F
:1016100040F2E73140F2CF20FFF7CEF855A046491F
:10162000486086E040F2E73140F2CF20FFF7C4F88F
:1016300052A0414948607CE040F6C3114720FFF7C3
:10164000BBF850A03C49486073E071E040F2E731DC
:101650004720FFF7B1F84DA03749486069E040F2F4
:10166000F3114720FFF7A8F84AA03349486060E02B
:10167000F9214720FFF7A0F848A02F49486058E01B
:1016800063214720FFF798F846A02B49486050E0B7
:1016900031214720FFF790F844A02749486048E0EF
:1016A00018214720FFF788F842A02349486040E00E
:1016B00009214720FFF780F840A01F49486038E023
:1016C00004214720FFF778F83EA01B49486030E02E
:1016D00005212320FFF770F83CA01749486028E057
:1016E00001214720FFF768F83AA01349486020E03D
:1016F00001214720FFF760F838A00F49486018E043
:1017000001214720FFF758F836A00B49486010E048
:1017100001214720FFF750F834A00749486008E04E
:1017200001214720FFF748F832A00349486000E054
:1017300000BF00BF10BD0000040000202020353095
:101740007300000020203230730000002020313070
:10175000730000002020203573000000202020327C
:101760007300000020202031730000003530306D00
:10177000730000003230306D730000003130306D86
:10178000730000002035306D730000002032306D92
:10179000730000002031306D730000002020356D93
:1017A000730000002020326D730000002020316D96
:1017B0007300000035303075730000003230307532
:1017C0007300000031303075730000002035307533
:1017D0007300000020323075730000002031307536
:1017E0007300000020203575730000002020327542
:1017F0007300000020203175730000002DE9F843CC
:1018000004460D4616461F46DDF820800020E9B24A
:101810000090E0B23B463246FFF7E6FCBDE8F883B5
:1018200008B54FF6FF703723642200210090084668
:10183000FFF718FEFFF7ECFD012037237F22002180
:1018400000906620FFF738FE002018237F220C212D
:1018500000906620FFF730FE002030237F222421F5
:1018600000906620FFF728FE4FF6FF70082308A2BD
:10187000022100906920FFF7C1FF4FF6FF70082397
:1018800004A21A2100906920FFF7B8FF08BD0000EC
:1018900056505000467265002DE9FC5F81460020DD
:1018A00036236322012100900846FFF705FE00243D
:1018B00032E039F8140000F054FF074600221A4BBA
:1018C00000F0CAFD0022194BCDE9000100F05CFFD9
:1018D000054600F019FF1FFA80FA611C39F8110063
:1018E00000F03FFF074600220F4B00F0B5FD054614
:1018F00000220E4B00F048FFCDE9000100F004FF8C
:101900001FFA80FBCAF12D0291B2A0B24FF6FF720E
:10191000FFF79EFD601C84B2642CCADBFFF778FDE4
:10192000FFF718FEBDE8FC9F0000B04000004440F7
:1019300070B5044600251BE004F0800020B1802132
:101940000D48FFF718F903E080210B48FFF711F964
:10195000FFF758F940210848FFF70DF9FFF752F952
:1019600040210548FFF705F96006040E681CC5B262
:10197000082DE1DB70BD0000000C014010B500F047
:1019800001F810BD0CB500200190009033480068AC
:1019900040F480303149086000BF3048006800F4EE
:1019A000003000900198401C0190009818B90198EF
:1019B000B0F5A06FF1D12948006800F4003010B1F3
:1019C0000120009001E0002000900098012843D100
:1019D0002348006840F0100021490860084600686C
:1019E00020F0030008600846006840F0020008602C
:1019F0001A484068194948600846406848600846E7
:101A0000406840F4806048600846406820F47C10DC
:101A100048600846406840F4E8104860084600689E
:101A200040F08070086000BF0C48006800F0007053
:101A30000028F9D00948406820F0030007494860B1
:101A40000846406840F00200486000BF0348406814
:101A500000F00C000828F9D10CBD00000010024075
:101A600000200240042808D14FF0E021096941F02C
:101A700004014FF0E022116107E04FF0E021096915
:101A800021F004014FF0E02211617047704700001F
:101A900010B51348006840F001001149086008467D
:101AA0004068104908400E494860084600680E49E1
:101AB00008400B4908600846006820F48020086050
:101AC0000846406820F4FE0048604FF41F0088601C
:101AD000FFF754FF4FF000600449086010BD00009C
:101AE000001002400000FFF8FFFFF6FE08ED00E0E6
:101AF00030B589B005460C46002008900590069048
:101B0000079001900290039004900121C802FFF712
:101B1000E9FB01210520FFF7E5FB4FF48070ADF8EC
:101B2000200018208DF8230003208DF8220008A93A
:101B30001748FEF793FFADF81850ADF81440002099
:101B4000ADF81A00ADF8160005A9124800F0F6F934
:101B50006020ADF804000120ADF806000020ADF8CB
:101B60000C0001A90B4800F089F90121094800F097
:101B700078F80821074800F0CDF90121054800F068
:101B800055F80121034800F060F809B030BD0000AD
:101B900000080140002C014010B50B480188008866
:101BA000401C094A1080B1F57A7F07DB074800889E
:101BB000401C064908800020114608800121880742
:101BC00000F040F810BD00001A00002018000020AE
:101BD0007FB505460C4601210846FFF763FBADF8CB
:101BE0000850ADF804400020ADF80A00ADF806003A
:101BF00001A94FF0804000F0A1F91C208DF80000F1
:101C000002208DF8010000208DF8020001208DF8DF
:101C100003006846FFF764F801221146900700F0C0
:101C200023F90121880700F010F87FBD21B1028857
:101C300042F08002028004E002884FF67F731A406F
:101C400002807047CA430282704721B1028842F085
:101C50000102028004E002884FF6FE731A400280FF
:101C6000704731B1B0F8442042F40042A0F844205B
:101C700005E0B0F84420C2F30E02A0F844207047FB
:101C800010B504466848844208D10121C014FFF70A
:101C900039FB0021E014FFF735FBC4E0B4F1804FBD
:101CA00008D101210846FFF70DFB00210120FFF7B5
:101CB00009FBB8E05D48844208D101210220FFF70A
:101CC00001FB00210220FFF7FDFAACE058488442F6
:101CD00008D101210420FFF7F5FA00210420FFF7C5
:101CE000F1FAA0E05348844208D101210820FFF70F
:101CF000E9FA00210820FFF7E5FA94E04E48844213
:101D000008D101211020FFF7DDFA00211020FFF794
:101D1000D9FA88E04948844208D101212020FFF700
:101D2000D1FA00212020FFF7CDFA7CE0444884421C
:101D300008D101214014FFF7E5FA00216014FFF7F4
:101D4000E1FA70E03F48844209D10121C804FFF75D
:101D5000D9FA00214FF40020FFF7D4FA63E03A48A3
:101D6000844209D101210805FFF7CCFA00214FF484
:101D70008010FFF7C7FA56E03448844209D10121A8
:101D80004805FFF7BFFA00214FF40010FFF7BAFA39
:101D900049E02F48844208D101214020FFF792FA00
:101DA00000214020FFF78EFA3DE02A48844208D106
:101DB00001218020FFF786FA00218020FFF782FAB8
:101DC00031E02548844208D101218015FFF77AFAD5
:101DD0000021A015FFF776FA25E02048844209D1BA
:101DE00001210804FFF78EFA00214FF48030FFF73D
:101DF00089FA18E01A48844209D101214804FFF702
:101E000081FA00214FF40030FFF77CFA0BE015480F
:101E1000844208D101218804FFF774FA00214FF4AD
:101E20008020FFF76FFA10BD002C01400004004035
:101E300000080040000C004000100040001400406A
:101E400000340140004C014000500140005401406A
:101E500000180040001C00400020004000400140ED
:101E600000440140004801401AB183890B4383813B
:101E700002E083898B4383817047000070B50024A2
:101E800000220023058C4FF6FE7635400584028C37
:101E90008388048B4FF68F752C40B51E2C400D881F
:101EA0002C43751E2A400D892A434D882A43144D20
:101EB000A8420BD0134DA84208D0134DA84205D01C
:101EC000124DA84202D0124DA84213D14FF6F77519
:101ED0002A404D892A434FF6FB752A408D882A43B4
:101EE0004FF6FF652B404FF6FF552B408D892B4356
:101EF000CD892B4383800483CD888586028470BD81
:101F0000002C0140003401400040014000440140E9
:101F1000004801400A460021018B4FF6F773194033
:101F200011430183704782884FF68F731A40828075
:101F300082880A4382807047818670470022028827
:101F40001D4B98420ED01D4B98420BD0B0F1804FE4
:101F500008D01B4B984205D01A4B984202D01A4B1E
:101F6000984204D14FF68F731A404B881A43174B8F
:101F7000984207D0164B984204D04FF6FF431A40C0
:101F8000CB881A4302808B8883850B8803850A4B94
:101F900098420BD0094B984208D00E4B984205D07E
:101FA0000D4B984202D00D4B984201D10B7A03861B
:101FB0000123838270470000002C0140003401405F
:101FC0000004004000080040000C004000100040E9
:101FD000001400400040014000440140004801401E
:101FE00010B586B004460020059001900290039041
:101FF0000490009025208DF8000002208DF801004B
:1020000001208DF802008DF803006846FEF768FE97
:1020100001210420FFF766F901218803FFF762F927
:102020004FF40070ADF8140018208DF8170003204D
:102030008DF8160005A91548FEF710FD4FF48060D5
:10204000ADF8140004208DF8170005A90F48FEF71D
:1020500005FD01940020ADF80800ADF80A00ADF8C8
:102060000C00ADF810000C20ADF80E0001A90848D6
:1020700000F09CF8012240F22551054800F071F86B
:102080000121034800F02AF806B010BD0008014005
:102090000038014010B540F22551054800F037F8EE
:1020A00020B1034800F0EEF80249087010BD0000AE
:1020B000003801400000002010B540F225510548CD
:1020C00000F025F820B1034800F0DCF80249087060
:1020D00010BD0000004400400100002021B18289B1
:1020E00042F40052828104E082894DF6FF731A4067
:1020F0008281704702460020B1F5007F00D100BF09
:1021000013880B400BB1012000E00020704770B530
:102110000246002400230025002040F66A16B14242
:1021200000D100BFC1F3421501F01F03012606FADA
:1021300003F3012D02D19689334006E0022D02D12E
:10214000168A334001E0968A33400C12012606FAC3
:1021500004F41688344013B10CB1012000E00020D3
:1021600070BDF0B50346002400260025002040F68F
:102170006A17B94200D100BF1846C1F3421401F0FA
:102180001F06012707FA06F5012C01D10C3004E0E7
:10219000022C01D1103000E014301AB107682F432F
:1021A000076002E00768AF430760F0BD2DE9F04724
:1021B00086B005460E460024A24600BFA146002771
:1021C000B08900B100BF2F462C8A4CF6FF70044046
:1021D000F08804432C82AC894EF6F3100440B0889A
:1021E00031890843718908430443AC81AC8A4FF6B6
:1021F000FF400440B0890443AC8201A8FFF792F885
:102200001F48874202D1DDF810A001E0DDF80CA0E4
:10221000A88900F4004040B10AEBCA0000EB0A10A4
:1022200031684900B0FBF1F807E00AEBCA0000EBA7
:102230000A1031688900B0FBF1F86420B8FBF0F0B7
:1022400004012009642101FB1089A88900F40040E1
:1022500040B1322000EBC900B0FBF1F000F0070004
:10226000044308E0322000EB09106421B0FBF1F0D8
:1022700000F00F0004432C8106B0BDE8F087000099
:102280000038014001468888C0F308007047C1F358
:1022900008028280704700BFFEE730380A2801D26A
:1022A000012070470020704700BF704710B56FF0E5
:1022B0000400FFF7D7FB0A4800680A49B0FBF1F0B9
:1022C000094908700846007800EB4001C1EBC010D6
:1022D0004FF6FF7101EAC0000449088010BD0000FC
:1022E0003400002000127A001000002012000020AC
:1022F000F0B504464FF47A70B4FBF0F087B24FF4B7
:102300007A70B4FBF0F100FB1145002604E04FF4B5
:102310007A7000F009F8761CBE42F8DB15B1284649
:1023200000F002F8F0BD00000146114A12884A434D
:102330004FF0E0235A6100229A611A46126942F076
:1023400001021A6100BF4FF0E022106900F00102A3
:102350001AB100F48032002AF5D04FF0E022126961
:1023600022F001024FF0E0231A6100229A617047C7
:102370001200002070B504460D46E1B20548FFF793
:1023800086FF00BF80210348FFF7B4FE0028F9D084
:10239000204670BD003801404FF4A060FEF7D8FC25
:1023A000FFF784FF4FF4E130FFF71AFE47214FF4A7
:1023B0007A70FFF70DFC47216420FFF799FB32216B
:1023C0002248FFF7B9FDFEF75BF8FEF799FD002004
:1023D000FEF7E0FC0020FEF7EBFCFEF71BFCFFF72E
:1023E0001FFA0C201A490870FFF7B8F8FEF72AFE0A
:1023F0002AE00020FEF722FC0446012C0DD11448EF
:102400000078401C1249087008460078192801DB42
:1024100018200870FFF7A2F80EE0022C0CD10C482F
:102420000078401E0A49087008460078002801DC40
:1024300001200870FFF792F80648FFF72DFAFFF722
:102440007BF8C820FFF754FFD3E70000002C0140C1
:1024500004000020480000202DE9C04130B4DFF81E
:10246000A0C23CEA111418BF3CEA131400F0EC803F
:1024700081EA03051CEA111444EAD57418BF1CEA6A
:10248000131500F0C780A4EB05044FF0004545EAA2
:10249000C12145EAC32341EA505143EA525304F1B2
:1024A0007F74994204F500344FEAC0204FEAC222FB
:1024B00008BF904200F09C804FEA13650FF240166F
:1024C000765D4FEA134506FB05F7C7F1807706FBFB
:1024D00007F74FEAD737A7FB03687642C8F580387D
:1024E000A7FB06CE38BFA8F1010807FB08E64FF0AE
:1024F000000EA6FB028CE6FB03CEDCF1000CCEF155
:10250000004E38BFAEF1010EA6FB0C584FF000078D
:102510004FF00005E6FB0E87A1FB08C6A0FB07CE27
:1025200016EB0E0645F10005E1FB076515F1E04EDF
:102530007EBFA4F580345FEA46066D4116F1800740
:1025400045F100054FEA17274FEA066647EA056797
:10255000A6F1DE46B6F1805F4FEA15251FD9384651
:1025600024F0010C05EBC471BCF1FE6F01EB0C1102
:1025700002D8F0BCBDE8008124425CBF01F5801E9A
:102580009EEAC47F02D4F0BCBDE80081244238D466
:10259000F0BCA1F1C041BDE8004100F0EDB94FEA47
:1025A000D22242EA43524FEAD323A7FB02864FEAE4
:1025B000D02040EA415007FB03661EEA0E0F4FEAA7
:1025C000D12105FB026658BFA6EB0056B6EB0056BC
:1025D0004FEA520E4EEAC37E18EB0E0E56EB530E28
:1025E000BDD518EB02085E417F1C55F10005B6E72A
:1025F0004FF480154FF000074FF000064FF0000831
:10260000ADE7F0BC4FF0000001F1C04101F0004126
:10261000BDE8008111EA0C1F0CEA131500D00CE094
:1026200013EA0C1F00F025804FF00000F0BC81EA97
:10263000030101F00041BDE80081F0BCBDE80041AC
:1026400081EA030100F098B9F0BCBDE8004170B523
:1026500000F044F9097EFC3E00F007B881EA03016E
:102660004FF0000001F00041704781EA030100F0E3
:1026700083B9F0BCBDE800414FF00000214970472C
:10268000FFFDFBF9F7F5F4F2F0EEEDEBE9E8E6E437
:10269000E3E1E0DEDDDBDAD8D7D5D4D3D1D0CFCDBE
:1026A000CCCBCAC8C7C6C5C4C2C1C0BFBEBDBCBBF7
:1026B000BAB9B8B7B6B5B4B3B2B1B0AFAEADACABF2
:1026C000AAA9A8A8A7A6A5A4A3A3A2A1A09F9F9ECC
:1026D0009D9C9C9B9A99999897979695959493937E
:1026E000929191908F8F8E8E8D8C8C8B8B8A898915
:1026F0008888878786858584848383828281818098
:102700000000FF070000F87F4FEA1153A3F5806334
:10271000D3F11E03A8BFD3F1200C08DB4FF0004219
:1027200042EAC12252EA505232FA03F0704709429B
:102730000BD4102BC4BF0020704703F5787CBCF18C
:10274000FF3F05D04FF0FF3070474FF0000070475B
:1027500070B500F0C3F800BF499224800020704794
:10276000F0E7B0FA80F310FA03F10AD0C3F11D03C9
:1027700003F580634FEA41504FEA035202EBD12147
:1027800070474FF000007047DFF848C170B51CEA91
:10279000111E1EBF1CEA13159EEA0C0F95EA0C0FC2
:1027A00000F06F8081EA030423EA4C134EEAD47EE2
:1027B00021EA4C1141F4801143F48013AE44A1FB93
:1027C000024CA0FB0365AEF17F7E361955EB0C057C
:1027D000A1FB034C4CF10003A0FB021C16EB0C0602
:1027E000654153F10003094218BF46F0010613F496
:1027F000007F0BD14FEA03314FEA0530340341EA41
:10280000155140EA16506FF003020AE04FEAC32167
:102810004FEAC520F40241EA555140EA56506FF0A4
:10282000020202EB2E4201EB025585EACE710AD07C
:102830005FEA440C18BF24F0004450F1000041F15D
:10284000000120EAD47040F2FE7C624500D270BDE7
:10285000A84214BF4FF080444FF04044002E08BF00
:102860000024BEF1806FA8BFA1F1C041BDE8704057
:1028700080F282804FF0000001F1C04101F0004180
:1028800070479EEA0C0F0CEA131518BF95EA0C0F5F
:1028900006D04FF0000081EA030E0EF0004170BD3B
:1028A00000F01CF88900013E00F007B800F009B8FC
:1028B0004FEA430C5FEA5C5C08D081EA030100F058
:1028C0005BB84FEA410C5FEA5C5CF6D14FF0000068
:1028D000014970470000FF070000F87F0EF1020E6B
:1028E0002EF0030E5EF8046B364205D4012A43EB4A
:1028F000030515F5001F12D8012841EB010C1CF54A
:10290000001F0CD80ED14FEAD17C15F5001F0CEB3F
:102910004C0C0CF1020C08BF4CEBD37C04E04FF0E4
:10292000080C01E04FEAD37C0CEB4C0526FA05F6C7
:1029300006F00706B6F1040C06D20EEB860CBDE8D5
:1029400070404CF0010C6047DFE80CF0090B02020C
:102950004FF000414FF00000A1F5002170BD194675
:102960001046012851EB010418BFD4F5001484BFB0
:10297000002001F0004170BD0808A0F500114FEAE9
:10298000310170470000000000000000002F00002F
:1029900000000700070000147F147F1400242A7F22
:1029A0002A120062640813230036495522500000A1
:1029B0000503000000001C224100000041221C0011
:1029C0000014083E08140008083E0808000000A093
:1029D000600000080808080800006060000000208F
:1029E00010080402003E5149453E0000427F40006D
:1029F000004261514946002141454B3100181412F3
:102A00007F10002745454539003C4A4949300001BF
:102A10007109050300364949493600064949291E0E
:102A20000000363600000000563600000008142270
:102A30004100001414141414000041221408000270
:102A40000151090600324959513E007C1211127C95
:102A5000007F49494936003E41414122007F4141C2
:102A6000221C007F49494941007F09090901003EB4
:102A70004149497A007F0808087F0000417F4100F2
:102A8000002040413F01007F08142241007F404068
:102A90004040007F020C027F007F0408107F003E50
:102AA0004141413E007F09090906003E4151215E36
:102AB000007F091929460046494949310001017F33
:102AC0000101003F4040403F001F2040201F003FC9
:102AD0004038403F0063140814630007087008077B
:102AE00000615149454300007F41410000552A558E
:102AF0002A55000041417F00000402010204004009
:102B0000404040400000010204000020545454782A
:102B1000007F48444438003844444420003844444A
:102B2000487F00385454541800087E0901020018E8
:102B3000A4A4A47C007F080404780000447D400025
:102B4000004080847D00007F102844000000417F09
:102B50004000007C04180478007C080404780038E5
:102B60004444443800FC242424180018242418FC6D
:102B7000007C0804040800485454542000043F44D6
:102B80004020003C4040207C001C2040201C003C99
:102B90004030403C004428102844001CA0A0A07CE9
:102BA000004464544C441414141414140000000021
:102BB00000000000000000000000FC000000000019
:102BC00002000000000C020C0200000000000000E7
:102BD00090D0BCD0BC900003000300001824FE4439
:102BE0008C000302070201001824D8B04C800003B7
:102BF00000010201C038E438E000010202010202D3
:102C0000080600000000000000000000000000F8BE
:102C10000402000000010204000204F800000004A5
:102C2000020100009060F8609000000001000000C8
:102C30002020FC2020000000010000000000000017
:102C400000000806000000002020202020000000D6
:102C50000000000000000000000000020000000072
:102C60000080601C0200040300000000F80404045B
:102C7000F8000102020201000008FC00000000024E
:102C80000302000018844424180003020202020018
:102C900008042424D80001020202010040B088FC8C
:102CA00080000000000302003C242424C400010230
:102CB00002020100F824242CC000010202020100DB
:102CC0000C04E41C0400000003000000D8242424A9
:102CD000D80001020202010038444444F800000315
:102CE00002020100000010000000000002000000CD
:102CF00000002000000000000600000000205088B6
:102D000004020000000001029090909090000000EA
:102D100000000000000204885020000201000000B2
:102D20001804C4241800000002000000F804E49411
:102D3000F80001020202020000E09CF080000203A1
:102D40000000030204FC2424D80002030202010054
:102D5000F80404040C0001020202010004FC040453
:102D6000F80002030202010004FC24740C000203B8
:102D70000202030004FC24740C00020302000000A1
:102D8000F0080444CC4000010202010004FC2020B1
:102D9000FC040203000003020404FC040400020219
:102DA00003020200000404FC0404060404030000FF
:102DB00004FC24D00C0402030200030204FC0400FF
:102DC0000000020302020203FC3CC03CFC000300C2
:102DD0000300030004FC30C4FC04020302000300EF
:102DE000F8040404F80001020202010004FC242497
:102DF0001800020302000000F8848404F8000102B5
:102E00000207050004FC2464980002030200030288
:102E1000182424448C000302020201000C04FC0468
:102E20000C0000020302000004FC0000FC0400018E
:102E300002020100047C80E01C040000030000008A
:102E40001CE03CE01C00000300030000049C609CAC
:102E50000400020300030200041CE01C0400000242
:102E6000030200000C84641C04000203020203003D
:102E70000000FE020200000007040400000E30C043
:102E80000000000000010200000202FE0000000439
:102E9000040700000004020400000000000000001D
:102EA00000000000000008080808080800000200F0
:102EB00000000000000000000040A0A0C0000001D1
:102EC0000202030204FC2020C000000302020100F1
:102ED00000C02020600000010202020000C0202487
:102EE000FC0000010202030200C0A0A0C00000011B
:102EF000020202000020F82424040002030202005F
:102F00000040A0A0602000070A0A0A0404FC202058
:102F1000C0000203020003020020E40000000002DF
:102F200003020000000020E4000008080807000079
:102F300004FC80E020200203020003020404FC00E1
:102F40000000020203020200E020E020C0000300B3
:102F50000300030020E02020C0000203020003025F
:102F600000C02020C00000010202010020E020205B
:102F7000C000080F0A02010000C02020E00000018C
:102F8000020A0F0820E04020200002030200000097
:102F90000060A0A020000002020203000020F82030
:102FA000000000000102020020E00020E00000011B
:102FB0000202030220E020806020000003010000E4
:102FC0006080E080600000030003000020608060FB
:102FD000200002030003020020E020806020080897
:102FE000070100000020A060200000020302020090
:102FF000000020DE0200000000070400000000FFC7
:1030000000000000000F00000002DE2000000004AD
:10301000070000000201020404020000000000009A
:1030200000000000000000000000000000000000A0
:10303000000000F800000000000000333000000035
:1030400000100C06100C060000000000000000003C
:1030500040C07840C0784000043F04043F040400AE
:10306000007088FC08300000001820FF211E0000BE
:10307000F008F000E018000000211C031E211E00D3
:1030800000F00888700000001E2123241927211059
:1030900010160E00000000000000000000000000FC
:1030A000000000E0180402000000000718204000A3
:1030B00000020418E0000000004020180700000093
:1030C000404080F0804040000202010F01020200F7
:1030D000000000F0000000000101011F01010100DB
:1030E000000000000000000080B070000000000040
:1030F00000000000000000000001010101010101C9
:10310000000000000000000000303000000000005F
:103110000000000080601804006018060100000034
:1031200000E010080810E000000F102020100F0031
:10313000001010F8000000000020203F20200000B8
:103140000070080808887000003028242221300010
:1031500000300888884830000018202020110E0018
:103160000000C02010F8000000070424243F2400C1
:1031700000F80888880808000019212020110E0096
:1031800000E0108888180000000F112020110E00A8
:1031900000380808C83808000000003F00000000A0
:1031A0000070880808887000001C222121221C0061
:1031B00000E010080810E0000000312222110F008A
:1031C000000000C0C000000000000030300000001F
:1031D000000000800000000000008060000000008F
:1031E00000008040201008000001020408102000A8
:1031F00040404040404040000404040404040400F3
:103200000008102040800000002010080402010087
:10321000007048080808F000000000303601000087
:10322000C030C828E810E0000718272423140B003A
:103230000000C038E0000000203C230202273820B4
:1032400008F8888888700000203F202020110E0098
:10325000C03008080808380007182020201008008F
:1032600008F808080810E000203F202020100F0078
:1032700008F88888E8081000203F20202320180044
:1032800008F88888E8081000203F200003000000AC
:10329000C03008080838000007182020221E02004D
:1032A00008F808000008F808203F210101213F200C
:1032B000000808F8080800000020203F2020000037
:1032C00000000808F8080800C08080807F00000027
:1032D00008F888C028180800203F20012638200060
:1032E00008F8080000000000203F202020203000C7
:1032F00008F8F800F8F80800203F003F003F2000E1
:1033000008F830C00008F808203F200007183F00E8
:10331000E01008080810E0000F10202020100F0017
:1033200008F808080808F000203F2101010100000A
:10333000E01008080810E0000F18242438504F004F
:1033400008F8888888887000203F2000030C30200F
:1033500000708808080838000038202121221C004D
:10336000180808F8080818000000203F2000000096
:1033700008F808000008F808001F202020201F007F
:103380000878880000C83808000007380E010000DF
:10339000F80800F80008F800033C0700073C0300A9
:1033A000081868808068180820302C03032C30200F
:1033B0000838C800C83808000000203F200000007E
:1033C00010080808C83808002038262120201800D6
:1033D000000000FE020202000000007F40404000AA
:1033E000000C30C000000000000000010638C000E2
:1033F00000020202FE000000004040407F0000008A
:1034000000000402020204000000000000000000AE
:1034100000000000000000008080808080808080AC
:103420000002020400000000000000000000000094
:1034300000008080808000000019242222223F208A
:1034400008F8008080000000003F112020110E00CD
:103450000000008080800000000E1120202011005C
:10346000000000808088F800000E112020103F200E
:103470000000808080800000001F22222222130092
:10348000008080F0888888180020203F20200000DD
:103490000000808080808000006B94949493600092
:1034A00008F8008080800000203F210000203F209D
:1034B00000809898000000000020203F202000009D
:1034C000000000809898000000C08080807F00008D
:1034D00008F8000080808000203F24022D3020006A
:1034E000000808F8000000000020203F2020000015
:1034F0008080808080808000203F20003F20003F2F
:103500008080008080800000203F210000203F203C
:103510000000808080800000001F202020201F00ED
:10352000808000808000000080FFA12020110E001C
:103530000000008080808000000E112020A0FF800D
:10354000808080008080800020203F2120000100BA
:10355000000080808080800000332424242419000F
:10356000008080E0808000000000001F202000001C
:103570008080000000808000001F202020103F205D
:10358000808080000080808000010E3008060100ED
:1035900080800080008080800F300C030C300F0092
:1035A00000808000808080000020312E0E312000BD
:1035B000808080000080808080818E7018060100ED
:1035C00000808080808080000021302C222130000B
:1035D00000000000807C020200000000003F40402C
:1035E00000000000FF00000000000000FF000000DD
:1035F0000002027C800000000040403F000000000C
:1036000000060101020204040000000000000000A6
:1036100000000000000000000000000000000000AA
:10362000000000000000000000000000000000009A
:10363000000000000000000000F0F0F000000000BA
:103640000000000000017F010000000000000000F9
:10365000001C1C1C0000000000008060301C8C60FE
:10366000301C0C0000000000000000000000000002
:10367000000000000000000000000000000000E06A
:103680000000000000E000000086E69F8686868637
:10369000E69F860000011F01010101011F010100D9
:1036A000000080C06020F820E0C000000000030798
:1036B0000C18FF70E18100000000070F10107F1050
:1036C0000F0700008060206080000000E020000004
:1036D0000F3020309F70DC371030C0000000100E1B
:1036E00003000718101807000000C02020E0C000E9
:1036F0000000000080E01F38E88703C43C0400009D
:10370000070F1810100B070D1010080000808C4CCC
:103710003800000000000000000000000000000071
:103720000000000000000000000000000000000099
:1037300000000000000080E03008040000000000ED
:1037400000FEFF0100000000000000000000030F69
:103750001820400000040830E08000000000000055
:103760000000000001FFFE000000000000402018E3
:103770000F03000000000000000000000000C00077
:1037800000000000004266663C18FF183C66664276
:103790000000000000000300000000000000000026
:1037A0000000800000000000001010101010FF103A
:1037B00010101010000000000000030000000000C6
:1037C00000000000000000000000000000000000F9
:1037D000000000000000000000808C4C3800000059
:1037E00000000000000000000000000000000000D9
:1037F0000010101010101010101010000000000029
:1038000000000000000000000000000000000000B8
:1038100000000000000000000000000000000000A8
:1038200000001C1C1C000000000000000000000044
:1038300000000000E0380C000000000080701C0355
:10384000000000000060380E0100000000000000D1
:10385000000080C060202060C080000000FEFF01EA
:103860000000000001FFFE000001070E18101018F4
:103870000E0701000000808080C0E0000000000012
:103880000000000000FFFF0000000000000010101A
:10389000101F1F101010000000804020202020600A
:1038A000C080000000030300804020381F07000094
:1038B000001C1A1918181818181F00000080C020C2
:1038C000202060C080000000000303001010182FAB
:1038D000E780000000070F10101010180F070000FD
:1038E000000000000000C0E0F000000000C0B08850
:1038F000868180FFFF808000000000000010101F04
:103900001F1010000000E0606060606060600000F8
:1039100000003F1008080818F0E0000000070B1036
:103920001010101C0F030000000080C04020202059
:10393000E0C0000000FCFF211008080818F0E000BB
:103940000001070C18101010080F03000000C0E061
:103950006060606060E06000000003000000E0184C
:103960000700000000000000001F1F000000000012
:103970000080C0602020202060C080000087EF2CE5
:103980001818303068CF830000070F08101010108F
:10399000180F07000000C0C020202020C0800000B9
:1039A000001F3F604040402010FFFE0000000C1C44
:1039B000101010080F0300000000000000000000BD
:1039C0000000000000000000000E0E0E00000000CD
:1039D00000000000001C1C1C000000000000000093
:1039E000000000000000000000000000000C0C00BF
:1039F0000000000000000000005838000000000037
:103A0000000000000000008040201000000010288E
:103A100044820100000000000000000000000102DC
:103A2000040810000000000000000000000000007A
:103A3000008484848484848484848400000000005E
:103A40000000000000000000000010204080000086
:103A50000000000000000000000001824428100067
:103A600000001008040201000000000000C0202037
:103A70001010101030E0C0000003030000F0100828
:103A80000C070300000000001C1C1C0000000000CC
:103A9000000000C0406020202040C00000FCFF016A
:103AA000F00E03C1FE03807F0001070E0811111004
:103AB000110904020000000080E0E00000000000A6
:103AC0000000807C4340477FF880000010181F10E2
:103AD00000000000131F1C1020E0E02020202060C8
:103AE000C080000000FFFF10101010182FE78000AA
:103AF000101F1F1010101010180F0700000080C0BA
:103B0000402020202060E00000FCFF0100000000B9
:103B1000000001000001070E181010100804030037
:103B200020E0E02020202040C080000000FFFF00B7
:103B30000000000001FFFE00101F1F1010101808E9
:103B40000E07010020E0E0202020202020608000DF
:103B500000FFFF101010107C00000000101F1F104D
:103B6000101010101018060020E0E0202020202067
:103B70006060800000FFFF101010107C000001004A
:103B8000101F1F100000000000000000000080C097
:103B90006020202040E0000000FCFF0100004040C9
:103BA000C0C140400001070E181010100F0F000098
:103BB00020E0E0200000000020E0E02000FFFF10F7
:103BC0001010101010FFFF00101F1F100000000049
:103BD000101F1F100000202020E0E0202020000007
:103BE0000000000000FFFF000000000000001010B7
:103BF000101F1F101010000000000000202020E007
:103C0000E020202000000000000000FFFF00000076
:103C10000060E0808080C07F3F00000020E0E02066
:103C2000000020A06020200000FFFF30187CE3C0CF
:103C300000000000101F1F10000001131F1C1810AF
:103C400020E0E020000000000000000000FFFF0076
:103C50000000000000000000101F1F1010101010C6
:103C60001018060020E0E0E000000000E0E0E020A6
:103C700000FF013FFEC0E01E01FFFF00101F10000B
:103C8000031F0300101F1F1020E0E0C00000000011
:103C90000020E02000FF0003071C78E08000FF0008
:103CA000101F100000000000030F1F00000080C064
:103CB00060202060C080000000FEFF0100000000C6
:103CC00000FFFE000001070E181010180C0701007D
:103CD00020E0E0202020202060C0800000FFFF20A6
:103CE00020202020301F0F00101F1F100000000098
:103CF00000000000000080C060202060C080000044
:103D000000FEFF010000000000FFFE000001070EA2
:103D10001111133C7C67210020E0E02020202020AE
:103D200060C0800000FFFF101030F0D0080F0700C7
:103D3000101F1F10000000030F1C10100080C06037
:103D4000202020204040E00000070F0C18183030E1
:103D500060E08100001F0C0810101010180F070001
:103D60008060202020E0E020202060800100000012
:103D700000FFFF000000000100000000101F1F10E6
:103D80000000000020E0E020000000000020E02013
:103D900000FFFF00000000000000FF0000070F18F8
:103DA00010101010100807002060E0E02000000054
:103DB00020E060200000077FF88000807C03000086
:103DC00000000000071F1C070000000020E0E020AA
:103DD00000E0E0200020E0200007FFF8E01FFFFCEB
:103DE000E01F00000000031F0300011F030000008C
:103DF000002060E0A0000020E06020000000000340
:103E00008F7CF8C6010000000010181E1300011777
:103E10001F1810002060E0E02000000020E060207B
:103E2000000001073EF8E018070000000000001045
:103E3000101F1F101000000000806020202020A014
:103E4000E0E0200000000000C0F03E0F0300000092
:103E500000101C1F171010101018060000000000A2
:103E600000FC0404040404000000000000FF000043
:103E70000000000000000000007F40404040400083
:103E8000000010E000000000000000000000000042
:103E9000031C608000000000000000000000000320
:103EA0000C70800000000404040404FC0000000006
:103EB00000000000000000FF000000000000404083
:103EC0004040407F0000000000000010080C040C7F
:103ED00008100000000000000000000000000000CA
:103EE00000000000000000000000000000000000D2
:103EF00000000000000000000000000000000000C2
:103F000000000000808080808080808080808080B1
:103F10000000000404080800000000000000000089
:103F20000000000000000000000000000000000091
:103F30000000000000000000000000000000000081
:103F4000000098D844642424FCF80000000F1F18D7
:103F5000101010081F1F10180020E0F000000000D3
:103F6000000000000000FFFF180804040CF8F00037
:103F700000001F0F18101010180F030000000000A1
:103F8000000000000000000000E0F8180404043CF9
:103F90003800000000030F0C10101010080600007D
:103FA0000000000000000020E0F0000000E0F81C2D
:103FB00004040408FFFF000000030F18101010088D
:103FC0001F0F0800000000000000000000000000BB
:103FD0000000E0F8484444444C7870000000030FAF
:103FE0000C181010100804000000000080C06020B1
:103FF00020E0C00000040404FFFF040404040000E7
:10400000000010101F1F1010100000000000000022
:104010000000000000000000000070F88C04048C18
:10402000F874040C007076CF8D8D8D89C87870007F
:104030000020E0F000000000000000000000FFFF92
:1040400008040404FCF8000000101F1F10000010FA
:104050001F1F100000000000006060000000000052
:104060000000040404FCFC0000000000000010102C
:10407000101F1F1010100000000000000000006062
:104080006000000000000000040404FCFC000000CC
:104090000000C0C08080C07F3F0000000020E0F032
:1040A00000000000000000000000FFFF80C0F41CC2
:1040B0000404000000101F1F1100031F1C1010003B
:1040C0000000202020E0F0000000000000000000C0
:1040D00000FFFF000000000000001010101F1F1064
:1040E00010100000000000000000000000000000B0
:1040F00004FCFC0804FCFC0804FCFC00101F1F105E
:10410000001F1F10001F1F10000000000000000013
:10411000000000000004FCFC08080404FCF8000097
:1041200000101F1F100000101F1F100000000000D3
:10413000000000000000000000E0F0180C04040C77
:1041400018F0E00000030F0C101010100C0F03000B
:104150000000000000000000000000000004FCFC63
:10416000080404040CF8F0000080FFFF8890101091
:104170001C0F030000000000000000000000000011
:1041800000E0F81C04040408F8FC000000030F1809
:1041900010109088FFFF8000000000000000000069
:1041A00000000000040404FCFC100804040C0C00D3
:1041B0001010101F1F101010000000000000000061
:1041C000000000000000000000003078CCC48484AF
:1041D000840C1C0000001E1810101011190F06008E
:1041E0000000000000C00000000000000004040403
:1041F000FFFF040404000000000000000F1F101067
:10420000100C000000000000000000000000000092
:104210000004FCFE00000004FCFE000000000F1F74
:10422000181010081F0F0800000000000000000018
:104230000000000000040C3CFCC40000C43C0C0462
:1042400000000000010F1E0E010000000000000031
:104250000000000000000000043CFCC400E47CFC02
:1042600084807C040000071F070000071F07000070
:104270000000000000000000000000000004041C1A
:104280007CE4C0341C0404000010101C1601131F31
:104290001C181000000000000000000000000000DA
:1042A00000040C3CFCC400C43C0404000000C080BA
:1042B000C1370E01000000000000000000000000F7
:1042C0000000000000001C0404C4F47C1C04000076
:1042D0000000101C1F17111010180E000000000025
:1042E000000000F80C04000000000000001028EF9F
:1042F00000000000000000000000003F60400000DF
:10430000000000000000FF000000000000000000AE
:104310000000FF0000000000000000000000FF009F
:10432000000000000000040CF80000000000000085
:1043300000000000EF2810000000000000004060B6
:104340003F000000000000000018060202040810F0
:1043500020203008000000000000000000000000E5
:104360000000000000000000000000000400000841
:10437000000000000000000200010000100000002A
:10438000A0430008000000204800000028010008A9
:10439000E843000848000020E01200004401000843
:1043A00000000000000000000000000014000B00EE
:1043B00000000000000000000000000001000000FC
:1043C00000010203040102030406070809020406AF
:1043D0000800000000A24A040000000000000000E5
:0843E0000102030406070809AD
:04000005080000ED02
:00000001FF
