:020000040800F2
:10000000882A0020A9010008891D0008AF1B0008EC
:10001000851D000879180008CF3C0008000000008A
:10002000000000000000000000000000A5240008FF
:100030008F1A00080000000017230008E5340008AC
:10004000C3010008C3010008C3010008C301000880
:10005000C3010008C3010008C3010008C301000870
:10006000C3010008C3010008C30100087D1800088F
:10007000C3010008C3010008C3010008C301000850
:10008000C3010008C3010008C3010008C301000840
:10009000C3010008C3010008C3010008C301000830
:1000A000C3010008C3010008C3010008C301000820
:1000B000F1350008C3010008C3010008C3010008AE
:1000C000C3010008C3010008C3010008C301000800
:1000D000C3010008ED3A0008113B0008C301000805
:1000E000C3010008C3010008C301000800F002F8C2
:1000F00000F04AF80AA090E8000C82448344AAF178
:100100000107DA4501D100F03FF8AFF2090EBAE875
:100110000F0013F0010F18BFFB1A43F0010318473B
:10012000C8620000E8620000103A24BF78C878C1B5
:10013000FAD8520724BF30C830C144BF04680C60ED
:10014000704700000023002400250026103A28BF35
:1001500078C1FBD8520728BF30C148BF0B60704739
:10016000662904F0EE83642900F07C80002070474B
:100170001FB500F047FC04000020002103F0BAFE88
:10018000E0601FBD10B510BD00F03CFD1146FFF74B
:10019000EFFF03F01FFE00F05AFD03B4FFF7F2FF7C
:1001A00003BC03F0B1FD000009488047094800473F
:1001B000FEE7FEE7FEE7FEE7FEE7FEE7FEE7FEE717
:1001C000FEE7FEE704480549054A064B7047000074
:1001D000E9340008ED00000888240020882A002067
:1001E00088260020882600200FB41CB5084B06AADC
:1001F0007B4469460090059800F0EBFB0446002024
:10020000694600F0F9FB20461CBC5DF814FB0000B9
:100210000508000070B5044685690068C10601D56F
:10022000302600E02026C00707D070BDD4E90121A8
:1002300030469047206A401C20626D1EF6D570BD86
:1002400070B5044685690078C00707D170BDD4E950
:10025000012120209047206A401C20626D1EF6D5A7
:1002600070BD00002DE9F041064600241068752994
:10027000314616A510D0AFF30080002802DA4042C4
:1002800013A507E031688A0701D512A502E04907E6
:1002900004D511A5012401E0AFF3008000210A225A
:1002A00006F1240709E0B0FBF2FCB0FBF2F302FB1D
:1002B0001C00303078541846491C0028F3D12346DE
:1002C0002A463046BDE8F04100F015B900000000B4
:1002D0002D0000002B000000200000002DE9F05F41
:1002E000894604464FF0000ADFF874B1FB44C0F8B9
:1002F00020A02046E1688847002874D0252806D031
:10030000D4E901219047206A401C2062F1E70026D1
:100310005F462046E16888472028054607DB312DE7
:1003200005D2781910F8200C08B10643F1E7B007A0
:1003300001D526F00406C4F81CA00027C4F818A0B4
:100340002A2D09D0284603F0D8FC38B304EB8708DF
:10035000303DC8F8185019E059F8041B204604EB4A
:1003600087029161E1688847012F054618D1E0694D
:10037000002820DA26F020061DE0D8F8180000EB4F
:10038000800005EB40003038C8F818002046E168CE
:100390008847054603F0B1FC0028EED1012F0AD0B2
:1003A0002E2D08D12046E16888477F1C0546022F84
:1003B00046F02006C4DBA069002803DA404246F07C
:1003C0000106A061F00701D026F010066C2D0BD0BD
:1003D000682D09D04C2D39D06A2D35D0742D35D0EB
:1003E0007A2D33D016E038E0E1682F462046884762
:1003F000B842054609D16C2F26D04FF48060E168E1
:10040000064320468847054604E06C2F1AD04FF477
:10041000807006430DB3A5F14100192802D820359C
:1004200046F400664A462946204626604E46FFF7B7
:1004300097FE80B101280BD0F61D26F0070000F1D1
:10044000080956E74020E4E78020D8E70020D6E7F7
:1004500006F104094DE7284652E7206ABDE8F09FFF
:100460005360000010B5431C02E010F8011B71B18D
:100470008107FAD14FF0013202C88C1A8C4314EA7A
:10048000C211F9D0C01A0A0603D0C01E10BDC01A8E
:1004900010BD0A0401D0801E10BD0902FCD0401E10
:1004A00010BD4FF0000200B5134694469646203921
:1004B00022BFA0E80C50A0E80C50B1F12001BFF41D
:1004C000F7AF090728BFA0E80C5048BF0CC05DF883
:1004D00004EB890028BF40F8042B08BF704748BFD1
:1004E00020F8022B11F0804F18BF00F8012B704745
:1004F0007047704770472DE9F0470D469946924680
:10050000044600F124080168880604D5E06921F05A
:100510001001216000E00120A84201DD471B00E03E
:100520000027A1697A1902EB0900081AA061207856
:10053000C00602D42046FFF76DFE002608E0D4E98D
:1005400001211AF806009047206A401C761C2062A0
:100550004E45F4DB2078C0060AD52046FFF75AFE48
:1005600006E0D4E9012130209047206A401C206237
:10057000381EA7F10107F4DC07E0D4E9012118F8DF
:1005800005009047206A401C2062281EA5F1010545
:10059000F3DC2046FFF754FE2078000602D5022047
:1005A000BDE8F0870120FBE770472DE9FF4F0C46BF
:1005B0001E464FF0FF378BB0D2E90001DDF86080B6
:1005C0000A908A46C1F30A5505B93D4600210846FE
:1005D0004FF00000BAF1000F00F4400005DA00EB24
:1005E00080004FF4400101EA50004FEA9059B9F100
:1005F000010F00DDB9460A9850EA4A000ED044F6D1
:100600001050A5F2FF3545432F14B8F1000F1ED04E
:100610007542291E1EDDC9F100021CE0B8F1010F70
:100620004FF0000001D0302103E0F24305E02154F7
:10063000401CB042FBDB30460022002121540B99C4
:10064000C1F80880C1E900200FB0BDE8F08FBD1BE4
:100650006D1CDEE74A4600DA694206A800F05CFA43
:1006600006AB93E8070003AB83E8070050460A99FE
:1006700000F036FB8DE80700A0F500501F38009011
:100680000398002D0ADD42F21F014A460844002368
:1006900003A90390684600F09FFD09E0A0F5005013
:1006A0004A461F38002303A90390684600F0A9FDBD
:1006B0008DE807000004000C03D04FF0FF30410824
:1006C00000E01046B8F1000F03D00022009215465A
:1006D0001EE0751E05D400F099F9303262556D1E8A
:1006E000F9D5B3460122084302D000227F1C04E062
:1006F0002078302801D100227F1E002A099784D05B
:100700001DE0112D07DA00F081F9303262556D1CC1
:1007100050EA0102F5D1084302D00098C8B10EE0BA
:100720000021681E05E0235C625C63542254401E75
:10073000491C8142F7DBAB46A81B401E09900020F4
:1007400004F80B000B98099AC0F80880C0E9002B48
:100750007AE711264FF0000857E72DE9F04F884659
:100760000446D21D22F0070191B0D1E90001CDE984
:100770000A0103F0AEFA02460B98C00F01D02D20FB
:1007800007E02068810701D52B2002E0202101EA43
:10079000C000032A099001D0072A05DB0346414621
:1007A000204600F079F90BE12078800601D5E06958
:1007B00000E00620B8F1650F814606D0B8F1660F5B
:1007C00018D0B8F1670F70D131E00020B9F1110FE6
:1007D000009001DB112301E009F101030AAA01A93C
:1007E0000CA8FFF7E2FEDDE90C70002609F1010517
:1007F000834647E001204B4600904FF000470AAA8D
:1008000001A90CA8FFF7D1FEDDE90DB00C995D46FA
:10081000002610B909F101000D18B9EB050003D449
:10082000C0F1FF3609F10105A5EB09002BE0B9F194
:10083000010F01DA4FF001090020B9F1110F00900A
:10084000484601DD112300E003460AAA01A90CA8CD
:10085000FFF7ABFEDDE90C704D460026834620789D
:1008600000070AD4AB4500DA5D4601A8012D04DD7E
:10087000411911F8011C302907D04F4502DA17F150
:10088000040F04DA012082460FE06D1EEEE7002F10
:1008900002DCED1B3E4403E0781CA84200DD7D1C19
:1008A000B81B00F1010A4FF000472078000703D47D
:1008B000AA4501DB4FF0FF3A0021B7F1004F0DF1DF
:1008C00043088DF8431024D002202B23002F01DA97
:1008D0007F422D230A21021EA0F1010000DC5FB13E
:1008E00097FBF1FC97FBF1F201FB1C7C17460CF126
:1008F000300C08F801CDEEE7A8F101000370218863
:10090000090501D5452100E06521A0F1010800F8A5
:10091000011C09980FA9A1EB0807FF1D00B10120D8
:10092000411901EBEA70A1693844081A401EA06120
:100930002078C00602D42046FFF76CFC099828B145
:10094000D4E901219047206A401C20622078C0062B
:1009500022D52046FFF75EFC1EE0002E04DBB345E7
:1009600002DD01A8805D00E03020D4E9012190473C
:10097000206A401C2062761CAAF101005FEA000A8E
:100980000AD100F03FF8C0680168405CD4E9012159
:100990009047206A401C2062281EA5F10105DCDC7E
:1009A00007E0D4E9012118F8010B9047206A401CA8
:1009B0002062381EA7F10107F3DC2046FFF740FC58
:1009C000032011B041E6000001694A1C0261087869
:1009D000704700B58FB0CDE901310021059105497F
:1009E0007944CDE9031011466846FFF777FC0FB054
:1009F00000BD0000E5FFFFFF0A6802F8010B0A6076
:100A000070470000004870474824002030B5B0F11E
:100A10000A024FEA900E71F100034EEA817EB0EBBC
:100A20000E0061EB91014FEA101E4EEA017E10EBC1
:100A30000E0041EB11114FEA102E4EEA016E10EB41
:100A40000E0041EB11214FEA104E4EEA014E10EB21
:100A50000E0041EB1141401841F100014FEAD00076
:100A600040EA41704FEAD10110EB80054FEA810462
:100A700044EA907444EB01046D1944EB0404521BE6
:100A8000A3414FF0000348BF0A3200D530BD401CDF
:100A900041F1000130BD00002DE9F0411F46044640
:100AA00003260168072A01F4006004DB08B116A5DB
:100AB00005E016A503E008B115A500E015A521F095
:100AC00010002060A069C01EA0610FB1401EA0618F
:100AD0002046FFF79FFB4FB1D4E9012138469047EC
:100AE000206A401C2062C01C206206E0206AFAE7EF
:100AF000D4E9012115F8010B9047761EF8D2204663
:100B0000FFF79EFBBDE8F0814E414E006E616E0026
:100B1000494E4600696E66002DE9F047814616464B
:100B20008AB0354878440DC88DE80D0032487844C5
:100B3000801C03AC0DC884E80D0041F69B300844CE
:100B4000372190FBF1F290FBF1F5A5F1800501FB57
:100B500012041B3C02D56442012000E00020DFF8B3
:100B600098A080460027FA44AAF1BE0A0EE0E007EA
:100B70000AD03246684607EB470101230AEB8101A0
:100B800000F03FFB8DE8070064107F1C002CEED1C5
:100B9000194F7F44AE3F19E0E80715D007EB04106A
:100BA0000DF1180A90E80E008AE80E00C068F042C5
:100BB00001D1981908903246012306A903A800F034
:100BC00020FB03AB83E807006D10641C002DE3D10C
:100BD0004FF0010332466946B8F1000F03A802D076
:100BE00000F0FAFA01E000F00CFBC9E90001C9F8D5
:100BF00008200AB0BDE8F087A858000000487047F8
:100C0000282400207546FFF7F9FFAE460500694627
:100C1000534620F00700854618B020B5FFF7D2FAFA
:100C2000BDE820404FF000064FF000074FF00008ED
:100C30004FF0000B21F00701AC46ACE8C009ACE86E
:100C4000C009ACE8C009ACE8C0098D46704710B5D2
:100C50000446AFF300802046BDE81040FFF79DBA80
:100C60004FF0013C50F8042B51F8043B9A4221D13B
:100C7000A2EB0C03934313EACC1317D150F8042BC7
:100C800051F8043B9A4215D1A2EB0C03934313EAAB
:100C9000CC130BD150F8042B51F8043B9A4209D1E4
:100CA000A2EB0C03934313EACC13DBD04FF000000C
:100CB000704700BFD01A01BAB1FA81F101F01801F2
:100CC00022FA01F0CB40C1F12001DBB2C0B2C01A60
:100CD0002CFA01F3D11A914311EAC311E6D17047FE
:100CE0005FEA400C08BF91F0000F4FEA8C234FEAF7
:100CF000C12243EA51514FEA1C5018BF00F5F040A1
:100D00004FEA300018BF41F000415FEA6C5C00F030
:100D10002980BCF1FF3F08BF40F080407047130CB2
:100D200006BF12044FF0100C4FF0000C130E04BF5E
:100D300012020CF1080C130F04BF12010CF1040C89
:100D4000930F04BF92000CF1020CD30F04BF5200AA
:100D50000CF1010C11464FF00002A0F11F00A0EBB6
:100D60000C00704711F0004F08BF704731F0004190
:100D70003FF4D5AF0B0C06BF09044FF0100C4FF039
:100D8000000C0B0E04BF09020CF1080C0B0F04BF82
:100D900009010CF1040C8B0F04BF89000CF1020C4B
:100DA000CB0F04BF49000CF1010CCCF12003A0EBE8
:100DB0000C0022FA03F302FA0CF241EA030100F1FB
:100DC0000100704720F07F4C80EA030023F07F474A
:100DD000ACEB070303F57C5300F0004003F1FF0385
:100DE0002DE980494FEA154B09B44FEA144325EA2F
:100DF0000B4E24EA03480FF2042606EB132749089A
:100E00003E785FEA320203FB0667C7F5000707FB7F
:100E100006F64FEA54374FEAD64606F1020607FBBC
:100E2000066CCCF1005C4FEA1C472CEA074C07FB30
:100E300006F40CFB06F504EB15464FEA961634BF94
:100E400000204FF000404FEAD13706FB07FC4FEA85
:100E50001C4C0CFB0BF7D21B03FB0CF761EB0701DF
:100E60000CFB0EF7B0EB074072EB17420CFB08F7D8
:100E700034BFA2EB0742B2EB074261EB17414FEAE6
:100E80000C444FEA910706FB07FC4FEA1C4C0CFB95
:100E90000BF7B0EBC74072EB573203FB0CF734BFD4
:100EA000A2EBC742B2EBC74261EB57310CFB0EF726
:100EB000B0EBC70072EB57720CFB08F734BFA2EB24
:100EC000C702B2EBC70261EB5771039F4FEA816122
:100ED00041EA921104EBCC044FEAD1374FEA826227
:100EE00006FB07FC42EA90124FEA80604FEA1C4C76
:100EF0000CFB0BF7D21B03FB0CF761EB07010CFBA0
:100F00000EF7B0EB074072EB17420CFB08F734BF4B
:100F1000A2EB0742B2EB074261EB17414FEA8C5557
:100F20004FEA910704EB9C2406FB07FC4FEA1C4C9C
:100F30000CFB0BF7B0EBC74072EB573203FB0CF71F
:100F400034BFA2EBC742B2EBC74261EB57310CFB97
:100F50000EF7B0EBC70072EB57720CFB08F734BF0B
:100F6000A2EBC702B2EBC70261EB577115EB4C2540
:100F70004FEA816141EA92114FEA82624FEAD1372A
:100F800042EA901206FB07FC44F100044FEA80603D
:100F90004FEA1C4C0CFB0BF7D21B03FB0CF761EB6D
:100FA00007010CFB0EF7B0EB074072EB17420CFB8E
:100FB00008F734BFA2EB0742B2EB074261EB1741DF
:100FC00015EB1C154FEA813141EA92414FEA82321A
:100FD00042EA90424FEA80304FEA0C7644F1000436
:100FE00048EA03434EEA0B484FF0000EB2EB080C00
:100FF00071EB030724BF624639464EEB0E0E4FF0ED
:10100000000B0018524149414BEB0B0BB2EB080CA3
:1010100071EB03077BF1000B24BF624639464EEBB0
:101020000E0E4FF0000B0018524149414BEB0B0BD9
:10103000B2EB080C71EB03077BF1000B24BF624697
:1010400039464EEB0E0E51EA020718BF46F0010674
:1010500016EB0E7655F1000254F1000103D5BDE800
:101060008901BDE80088BDE88901BDE80048B619DE
:10107000524141EB0101A3F10103704780807F7E63
:101080007D7C7B7A797877767675747372717170FE
:101090006F6E6E6D6C6C6B6A6A69686867666665B0
:1010A0006464636362616160605F5F5E5E5D5D5C3E
:1010B0005C5B5B5A5A5959585857575656555555AF
:1010C0005454535352525251515050504F4F4F4E0F
:1010D0004E4D4D4D4C4C4C4B4B4B4A4A4A4949495D
:1010E000484848474747474646464545454444449F
:1010F000444343434342424242414141002B9C46C8
:1011000030D477002BD01CB54FEA370703B44FF02B
:1011100010004FF01001BAF1000F06D0BCF1000F23
:10112000DCBF40F0080040F008014FF000000FBCA9
:10113000BDE810400BF1010BBBF1010F08BF5FEAE6
:10114000170722BF12F1010211F101014FF0004116
:1011500043F1000300F0004043EA00007047F9D378
:101160005708D0E746EA064613F1400F4FEA164605
:101170001FDD13F1200FDFBF16430A460021203385
:101180005B42BED0C3F1200746EA064602FA07F7E3
:101190004FEA164646EA0706C3F1200722FA03F291
:1011A00001FA07F721FA03F14FF0000342EA0702C0
:1011B000A7E746EA020646EA06464FEA164646EA28
:1011C0000106BCBF46EA0646360C4FF000034FF05E
:1011D00000024FF0000194E72DE9804C9A469346B7
:1011E00070B491E8380007C831EA400C48BF34EACF
:1011F000430C03D5FFF7E6FDFFF780FFF0BCBDE829
:10120000008C2DE9804C9A46934670B491E83800E2
:1012100007C810F0804F08BF13F0804F03D100F0D3
:1012200005F8FFF76BFFF0BCBDE8008C20F07F47AE
:1012300080EA030023F07F4C07EB0C03A3F57C53FB
:1012400000F00040A3F1FE0392F0000F00F0B38025
:1012500095F0000F00F077802DE901494FEA114029
:101260004FEA144621EA004800FB06FC24EA064740
:1012700008FB06F607FB08F800FB07F718EB064823
:101280004CEB164C4FEA124B18EB07484FEA154649
:101290004CEB174022EA0B4E0BFB06FC25EA0647F7
:1012A0000EFB06F607FB0EFE0BFB07F71EEB064ECA
:1012B0004CEB164C4FF000061EEB074E4CEB174B59
:1012C00018EB0B0840F1000018EB0E0B58EB000870
:1012D00040F100008F1A4FF000013CBFC943661B6C
:1012E00014BFB5EB040C00213CBFC943F61B4FEA09
:1012F00017444EEA8E0E27EA04454FEA1C4704FBCA
:1013000007622CEA074C05FB07F70CFB05F604FB0C
:101310000CFC16EB074642EB174216EB0C4642EB71
:101320001C421BEB060658EB0202414146EA9E06B0
:1013300001D5BDE80189B619524141EB0101A3F184
:101340000103BDE801894FEA14454FEA114724EA39
:10135000054621EA074C05FB07F406FB07F70CFBE3
:1013600006F105FB0CFC11EB074144EB17444FEA77
:10137000124711EB0C4144EB1C4422EA074C05FBDD
:1013800007F206FB07F70CFB06F605FB0CFC16EB59
:10139000074642EB174216EB0C4642EB1C456A1817
:1013A00054F1000148BF7047B619524141EB0101A9
:1013B000A3F10103704795F0000F37D04FEA1142B7
:1013C0004FEA144721EA024624EA074C02FB07F1E0
:1013D00006FB07F70CFB06F402FB0CFC14EB0744BE
:1013E00041EB17414FEA154714EB0C4441EB1C410C
:1013F00025EA074C02FB07F506FB07F70CFB06F690
:1014000002FB0CFC16EB074645EB174516EB0C46AA
:1014100045EB1C42121951F1000148BF7047B61943
:10142000524141EB0101A3F1010370474FEA14451A
:101430004FEA114724EA054621EA074C05FB07F16C
:1014400006FB07F70CFB06F24FF0000605FB0CFC51
:1014500012EB074241EB174112EB0C4251EB1C41DE
:1014600048BF7047921841EB0101A3F10103704797
:1014700000B587B0142102A8FFF713F800200190EF
:101480000121480200F084FF0121042000F080FFC8
:101490004FF4804000F040FF00F0C8F900F07CF805
:1014A0000120ADF8040000208DF8070001A91F48B5
:1014B00000F0EEFA1E4800F0BDF8002002908DF812
:1014C0000C008DF80D004FF40020049000200590D2
:1014D00001208DF8180002A9154800F003F9002337
:1014E00001221946124800F025F90121104800F0A8
:1014F00021F801210E4800F028F80D4800F076F997
:1015000000BF0B4800F0D9F80028FAD1084800F0D5
:1015100087F900BF064800F0C6F80028FAD101217B
:10152000034800F0B5F807B000BD00000008014016
:101530000024014021B1826842F00102826003E090
:10154000826822F001028260704721B1826842F411
:101550008072826003E0826822F480728260704749
:101560000748806820F00100054988604FF47A60E0
:10157000C8600846806840F001008860704700003D
:10158000000002400348806820F0010001498860A3
:10159000704700000000024000B58DB02C2102A869
:1015A000FEF77FFF002001900121084600F0C0FEF9
:1015B0001D4800F089F91D4802901D480390002045
:1015C00004904FF47A6005900020069080200790E8
:1015D000400008908000099000200A904FF40050CD
:1015E0000B9000200C9002A90F4800F032FA0B205B
:1015F0008DF8040000208DF805008DF8060001200C
:101600008DF8070001A800F0C1FB022000F042F9AC
:1016100001220221044800F013FA0121024800F0DF
:1016200047F90DB000BD0000080002404C24014005
:101630003C00002010B504461248844208D1012124
:10164000401500F0B5FE0021601500F0B1FE17E076
:101650000D48844208D10121001500F0A9FE0021A7
:10166000201500F0A5FE0BE00848844208D10121B6
:10167000C80300F09DFE00214FF4004000F098FEEA
:1016800010BD00000024014000280140003C014042
:1016900021B1826842F48012826003E0826822F401
:1016A000801282607047014600208A6802F00402BE
:1016B0000AB1012000E000207047014600208A683E
:1016C00002F008020AB1012000E00020704700008B
:1016D0000348007808B1012070470020FCE70000B3
:1016E0001200002030B502460020002350680F4C45
:1016F00020400D790C6844EA05242043506090682E
:101700000B4C2040D1E902542C434D7944EA450466
:1017100020439060D06A20F470000C7C641EE4B218
:10172000234340EA0350D06230BD0000FFFEF0FFCB
:10173000FDF7F1FFF0B504460D4600200021092D0C
:1017400011DDE068A5F10A0606EB4607072606FA52
:1017500007F18843A5F10A0606EB460603FA06F1EF
:101760000843E0600CE0206905EB4507072606FA10
:1017700007F1884305EB450603FA06F108432061AB
:10178000072A0FDA606B561E06EB86071F2606FA3D
:1017900007F18843561E06EB860605FA06F1084354
:1017A000606322E00D2A0FDA206BD61F06EB860756
:1017B0001F2606FA07F18843D61F06EB860605FAB0
:1017C00006F10843206310E0E06AA2F10D0606EB83
:1017D00086071F2606FA07F18843A2F10D0606EBDD
:1017E000860605FA06F10843E062F0BD816841F023
:1017F00008018160704700000020014908707047AF
:1018000012000020024A1080121D11807047000053
:101810002804004001200149087070471200002090
:10182000816841F004018160704700000EB500201E
:101830000090019002900121022000F089FD0D48E6
:1018400001F04AFF3720ADF800000120ADF8040098
:101850000020ADF80600ADF802006946054802F028
:1018600099F82021034802F08AF80121014801F08B
:1018700018FF0EBD0004004000BFFEE710B50220B7
:1018800000F0C8F820B1FFF7C5FF022000F002F811
:1018900010BD000000F0805111B10349086001E063
:1018A0000249486070470000040402400000024002
:1018B00021B1026842F00102026004E002684FF6C2
:1018C000FE731A400260704701684FF6FE721140C5
:1018D00001600021016041608160C1604B49884224
:1018E00008D14A490839496841F00F01474A083A86
:1018F00051608AE045491431884208D1434908398A
:10190000496841F0F001414A083A51607DE03F49A1
:101910002831884208D13D490839496841F470614D
:101920003A4A083A516070E038493C31884208D15F
:1019300036490839496841F47041344A083A5160DF
:1019400063E032495031884208D13049083949684A
:1019500041F470212D4A083A516056E02B49643118
:10196000884208D129490839496841F47001274A59
:10197000083A516049E025497831884208D1234925
:101980000839496841F07061204A083A51603CE0EA
:101990001F49884206D1011F096841F00F01021F4B
:1019A000116032E01A491431884208D11849091FE0
:1019B000096841F0F001164A121F116025E0144930
:1019C0002831884208D11249091F096841F4706121
:1019D0000F4A121F116018E00D493C31884208D1AE
:1019E0000B49091F096841F47041094A121F11602F
:1019F0000BE007495031884207D10549091F0968A2
:101A000041F47021024A121F116070470800024021
:101A10000804024001460020002201F0805313B167
:101A2000054B1A6801E0054B1A6802EA01030BB185
:101A3000012000E000207047000402400000024046
:101A40001AB103680B43036002E003688B43036031
:101A5000704710B50022026847F6F0739A430C6A8B
:101A60008B6823430C6923434C6923438C692343CC
:101A7000CC6923434C6A23438C6A23431A43026094
:101A8000CB6843600B6883604B68C36010BD7047D0
:101A90002DE9F04102460025002600200023002405
:101AA000002791F803C00CF00F0591F803C00CF06B
:101AB000100CBCF1000F03D091F802C04CEA0505F0
:101AC00091F800C0BCF1000F31D0146800202BE069
:101AD0004FF0010C0CFA00F3B1F800C00CEA030659
:101AE0009E4220D183004FF00F0C0CFA03F7BC4349
:101AF00005FA03FC4CEA040491F803C0BCF1280F7A
:101B000006D14FF0010C0CFA00FCC2F814C00AE038
:101B100091F803C0BCF1480F05D14FF0010C0CFA4D
:101B200000FCC2F810C0401C0828D1D31460B1F8E2
:101B300000C0BCF1FF0F34DD546800202EE000F13E
:101B4000080C4FF0010808FA0CF3B1F800C00CEAD9
:101B500003069E4221D183004FF00F0C0CFA03F7CD
:101B6000BC4305FA03FC4CEA040491F803C0BCF141
:101B7000280F05D100F1080C08FA0CF8C2F81480FF
:101B800091F803C0BCF1480F07D100F1080C4FF0E9
:101B9000010808FA0CF8C2F81080401C0828CED3BF
:101BA0005460BDE8F081416170470161704700BF3A
:101BB000FEE7000010B580210A48FFF7F6FF40213C
:101BC0000848FFF7F2FF00F037F880210548FFF7DB
:101BD000EAFF00F031F840210248FFF7E4FF00F08F
:101BE0002BF810BD000C014010B580210648FFF70E
:101BF000DAFF40210448FFF7D8FF00F01DF88021EC
:101C00000148FFF7D2FF10BD000C014010B5802144
:101C10000848FFF7CAFF00F00FF840210548FFF71A
:101C2000C4FF00F009F840210248FFF7BCFF00F0B4
:101C300003F810BD000C0140032000BF011EA0F1FD
:101C40000102D0B2FAD1704708B5002000900121FE
:101C5000042000F09DFB0121082000F099FBF020FA
:101C6000ADF8000048208DF8030069460748FFF7EB
:101C70000FFF40F20340ADF8000048208DF803004C
:101C800069460348FFF704FF08BD00000008014053
:101C9000000C014010B5044614B10120364908700B
:101CA00035480078002847D034480068B0B1334840
:101CB000001D006890B131480830006870B12F48AD
:101CC0000C30006850B12E48006838B12C48001D17
:101CD000006818B12A482830006868BB0A2002F062
:101CE00037F80020244908702448006808B901200A
:101CF00010BD2248001D006808B90220F8E71F48FF
:101D00000830006808B90320F2E71C480C3000686E
:101D100008B90420ECE71A48006808B90520E7E78D
:101D20001748001D006808B90620E1E7144828306C
:101D30000068F0B90720DBE710480068C8B10F4819
:101D4000001D0068A8B10D480830006888B10B4834
:101D50000C30006868B10A48006850B10848001D9E
:101D6000006830B106482830006810B101200249EF
:101D700008700020BCE70000130000201001214281
:101D80000081214200BFFEE77047000070B50021CE
:101D900000230F22C47804B3154C246804F4E064D3
:101DA000C4F5E064210AC1F10403CA40447804FA8E
:101DB00003F184781440214309010E4C0678A155A3
:101DC000047804F01F050124AC4005786D11AD00C6
:101DD00005F1E025C5F8004109E0047804F01F058D
:101DE0000124AC40044D0678761145F8264070BDBC
:101DF0000CED00E000E400E080E100E00249014376
:101E0000024A1160704700000000FA050CED00E086
:101E100070B500240CE0002506E00020074901EB26
:101E2000C5010855681CC5B2802DF6DB601CC4B224
:101E3000082CF0DB00F05CF970BD0000A81F00204A
:101E400010B504461CB90021A62000F048FA012C68
:101E500003D10021A72000F042FA10BD10B50446BE
:101E60003CB90021C82000F03AFA0021A12000F07E
:101E700036FA012C07D10021C02000F030FA0021F1
:101E8000A02000F02CFA10BD2DE9FF4F84B0814650
:101E90008A460020029083460698A0EB0905079821
:101EA000A0EB0A06CDF80490CDF800A0002D01DDCE
:101EB000012705E00DB9002702E04FF0FF376D4222
:101EC000002E02DD4FF0010806E016B94FF00008C1
:101ED00002E04FF0FF387642B54201DD2C4600E0CB
:101EE0003446002003901EE0009AD1B2019AD0B28D
:101EF000119A00F01FF8029828440290B344029807
:101F0000A04205DD0298001B029001983844019020
:101F1000A34504DDABEB040B00984044009003980C
:101F2000401C80B20390611C03988842DCDB08B03F
:101F3000BDE8F08FF0B514460B46CF1701EB57778D
:101F4000C7F3C702CF1701EB5777FF10A1EBC70705
:101F5000FEB20123B340DDB24CB1134B03EBC0031F
:101F60009B5C2B43104F07EBC007BB541AE00E4B92
:101F700003EBC0039B5CDB430B4F07EBC007BB5479
:101F8000094B03EBC0039B5C2B43074F07EBC007D8
:101F9000BB54054B03EBC0039B5CDB43024F07EBD9
:101FA000C007BB54F0BD0000A81F002008B50121E8
:101FB000082000F0EDF9C020ADF8000014208DF8E5
:101FC000030003208DF8020069464748FFF760FDD3
:101FD000C0214548FFF7E9FD0420ADF800001020BE
:101FE0008DF8030003208DF8020069463F48FFF793
:101FF0004FFD04213D48FFF7D8FD04213B48FFF782
:10200000D2FDC82001F0A4FE04213848FFF7CDFD21
:102010000021AE2000F063F90021084600F05FF9CE
:102020000021102000F05BF90021402000F057F95A
:102030000021812000F053F90021CF2000F04FF95A
:102040000021A12000F04BF90021C82000F047F941
:102050000021A62000F043F90021A82000F03FF95C
:1020600000213F2000F03BF90021D32000F037F998
:102070000021084600F033F90021D52000F02FF9A7
:102080000021802000F02BF90021D92000F027F951
:102090000021F12000F023F90021DA2000F01FF9DF
:1020A0000021122000F01BF90021DB2000F017F9BD
:1020B0000021302000F013F90021202000F00FF95A
:1020C0000021022000F00BF900218D2000F007F91B
:1020D0000021142000F003F9FFF79AFE0021AF2041
:1020E00000F0FDF808BD0000000C014000080140B0
:1020F00070B500242BE004F1B001C8B2002100F05B
:10210000EEF80021084600F0EAF80021102000F067
:10211000E6F8FFF74FFD782001F036F9FFF776FD7E
:10212000402001F031F9FFF771FD002509E0094970
:1021300001EBC501085D01F027F9FFF767FD681C99
:10214000C5B2802DF3DBFFF74FFD601CC4B2082C35
:10215000D1DB70BDA81F00202DE9FE4F0746884641
:1021600092461C460197CDF80080082C02D14FF012
:1021700006091FE02046E31704EB5373DB102146EA
:102180004FEAE47C04EB5C7C4FEAEC0CA4EBCC0C57
:10219000BCF1000F02D04FF0010C01E04FF0000C39
:1021A0006344224604EBD27C4FEA6C0C03FB0CF335
:1021B00003F0FF09AAF12000C6B200255EE0082C5A
:1021C00007D106EB46002F4901EB400010F805B09F
:1021D0001DE00C2C07D106EB46002B4901EB8000DB
:1021E00010F805B013E0102C05D1284800EB0610BC
:1021F00010F805B00BE0182C07D106EBC6002449F7
:1022000001EB800010F805B001E0BDE8FE8F002072
:1022100002901CE00BF0010028B1414638460C9AB0
:10222000FFF788FE09E00C9808B9012000E00020C3
:10223000024641463846FFF77DFE4FEA6B0B08F138
:10224000010000F0FF080298401CC0B20290029802
:102250000828DFDB781CC7B2082C0BD004EBD47144
:102260004A100199791A8A4204D1019F00980830D6
:10227000C0B20090DDF80080681CC5B24D459EDB01
:1022800000BFC2E75B490008834B0008F74F000816
:10229000E75500082DE9F84106460F4614461D464D
:1022A000DDF81C8013E0CDF8008022782B463946FB
:1022B0003046FFF751FF082D02D1B01DC6B205E030
:1022C000284605EBD07106EB6101CEB2641C207884
:1022D000202802DB20787E28E5DDBDE8F88170B596
:1022E00005460C46FFF766FC782001F04DF8FFF735
:1022F0008DFC1CB1402001F047F802E0002001F005
:1023000043F8FFF783FC284601F03EF8FFF77EFC18
:10231000FFF76AFC70BD704701460020034A506811
:1023200020F4404008435060704700000010024015
:1023300029B1064A52690243044B5A6104E0034A38
:1023400052698243014B5A617047000000100240FD
:1023500029B1064AD2690243044BDA6104E0034A18
:10236000D2698243014BDA617047000000100240DD
:1023700029B1064A12690243044B1A6104E0034A78
:1023800012698243014B1A6170470000001002403D
:1023900029B1064A92690243044B9A6104E0034A58
:1023A00092698243014B9A6170470000001002401D
:1023B00029B1064AD2680243044BDA6004E0034ABA
:1023C000D2688243014BDA6070470000001002407F
:1023D00030B500210022002400232D4D6D6805F04A
:1023E0000C0121B1042905D0082923D105E0294D8C
:1023F000056022E0274D05601FE0254D6D6805F45E
:102400007012234D6D6805F48034022505EB92426D
:102410001CB9214D554305600BE01D4D6D6805F459
:1024200000351DB11C4D5543056002E0194D554363
:10243000056002E0174D056000BF00BF144D6D68D8
:1024400005F0F0010909154D6B5C0568DD4045603C
:102450000F4D6D6805F4E061090A104D6B5C45682D
:10246000DD4085600A4D6D6805F46051C90A0B4D69
:102470006B5C4568DD40C560054D6D6805F4404105
:10248000890B074D6B5CC568B5FBF3F5056130BD85
:102490000010024000127A0000093D0014000020E4
:1024A000240000207047000070B505460E242BE084
:1024B00018490C7000F0DCFCFFF79EF9FFF750F8AC
:1024C00000BFFFF705F90028FBD0284600F09AF975
:1024D000C8B1104840881049098890FBF1F01428D1
:1024E00008DB0C4840880C49098890FBF1F0322841
:1024F00000DA0BE0074840880749098890FBF1F0B3
:10250000142800DA70BD641E002CD1DA00BF00BFB1
:10251000F8E700007C1F00200200002070B5044690
:102520000D461646E9B2E0B20022FFF703FD70BD8A
:102530002DE9F84304460D4616461F46DDF8208077
:102540000120FBB2F2B2E9B20090E0B2FFF79CFCCE
:10255000BDE8F88370B5012415E001250FE00B4BB1
:102560001B8804FB03F291B2094B1B8805FB03F2A5
:1025700090B24FF6FF7200F0D1F8681C85B2042DBE
:10258000EDDD601C84B2042CE7DD70BD0800002086
:10259000060000202DE9FE4F05460E4617461C4654
:1025A0004FF00009E8B20190F0B200902046E21727
:1025B00004EB5272D2102146E31704EB5373DB1085
:1025C000A4EBC3030BB1012300E000231A4494B22F
:1025D0004FF000083CE04FF0000A33E00C9810F890
:1025E00009B009F101001FFA80F90020029016E0FD
:1025F0000BF0010030B14FF6FF723146284600F073
:102600008DF804E0002231462846FFF787FF4FEAA5
:102610006B0B701C86B20298401CC0B202900298EC
:102620000828E5DB681C85B20198281AB84204D155
:10263000019D00980830C0B20090009E0AF1010090
:1026400000F0FF0ABA45C9DB08F1010000F0FF08FD
:10265000A045C0DBBDE8FE8F2DE9FE4F05460E46C6
:1026600017461C464FF00009E8B20190F0B2009006
:102670002046E21704EB5272D2102146E31704EB16
:102680005373DB10A4EBC3030BB1012300E0002361
:102690001A4494B24FF000083CE04FF0000A33E0D7
:1026A0000C9810F809B009F101001FFA80F9002018
:1026B000029016E00BF0010030B14FF6FF72314688
:1026C0002846FFF72BFF04E000223146284600F0A1
:1026D00025F84FEA6B0B701C86B20298401CC0B202
:1026E000029002980828E5DB681C85B20198281A38
:1026F000B84204D1019D00980830C0B20090009EFD
:102700000AF1010000F0FF0ABA45C9DB08F1010037
:1027100000F0FF08A045C0DBBDE8FE8F70B50446A1
:102720000D461646E9B2E0B20122FFF703FC70BD88
:102730002DE9F84304460D4616461F46DDF8208075
:102740000120EBB2F2B2E9B20090E0B2FFF79CFBDD
:102750000120FBB2F2B2F9B20090E0B2FFF794FBB5
:102760000120FBB2E2B2E9B20090E0B2FFF78CFBCD
:102770000120FBB2F2B2E9B20090F0B2FFF784FBA5
:10278000BDE8F8832DE9F04706460F469046994686
:10279000DDF820A000240025BAF1010F18D100BFF8
:1027A00011E0002509E07A1991B2321990B24FF682
:1027B000FF72FFF7B3FF681C85B2A9EB0700A842C0
:1027C000F1DA601C84B2A8EB0600A042E9DA16E058
:1027D000002410E0002508E07A1991B2321990B275
:1027E0000022FFF79BFE681C85B2A9EB0700A842F8
:1027F000F2DA601C84B2A8EB0600A042EADABDE877
:10280000F08700002DE9F05F8246B1484088B14969
:10281000098890FBF1F01FFA80FB504600F088F920
:10282000002876D0AA4800780F2873D2DFE800F09D
:10283000081D32475C73889DB2C7DCF5F3F2F100E6
:10284000584601F0F2FC8046A34AA44B01F000FD7B
:10285000064632460B460020A14901F061FB0446C2
:1028600001F0B6FC9A49C8602CE1584601F0DDFC45
:102870008046994A9B4B01F0EBFC064632460B46DC
:102880000020974901F04CFB044601F0A1FC90495F
:10289000C86017E1584601F0C8FC0646924A934BBF
:1028A00001F0D6FC804642460B4600208C4901F0E0
:1028B00037FB044601F08CFC8549C86002E15846AC
:1028C00001F0B3FC8046884A894B01F0C1FC064602
:1028D00032460B460020824901F022FB044601F0FB
:1028E00077FC7B49C860EDE0584601F09EFC064647
:1028F0007D4A804B01F0ACFC044622460B4600208A
:10290000774901F00DFB804601F062FC7049C86018
:10291000D8E0DBE0D5E0584601F087FC0646764A71
:10292000764B01F095FC804642460B4600206C49F0
:1029300001F0F6FA044601F04BFC6549C860C1E0BD
:10294000584601F072FC80466B4A6D4B01F080FCEA
:10295000064632460B460020614901F0E1FA044682
:1029600001F036FC5A49C860ACE0584601F05DFC05
:102970008046614A634B01F06BFC064632460B46CB
:102980000020574901F0CCFA044601F021FC5049DF
:10299000C86097E0584601F048FC06465A4A5B4B2F
:1029A00001F056FC044622460B4600204C4901F03B
:1029B000B7FA804601F00CFC4549C86082E05846F1
:1029C00001F033FC8046504A514B01F041FC064671
:1029D00032460B460020424901F0A2FA044601F0BB
:1029E000F7FB3B49C8606DE0584601F01EFC80468D
:1029F000454A484B01F02CFC064632460B46002067
:102A0000374901F08DFA044601F0E2FB3049C86015
:102A100058E041E02BE015E0FFE7584601F005FCE7
:102A200006463D4A3D4B01F013FC804642460B46AC
:102A300000202B4901F074FA044601F0C9FB244937
:102A4000C8603FE0584601F0F0FB8046324A344B04
:102A500001F0FEFB064632460B460020204901F0FD
:102A60005FFA044601F0B4FB1949C8602AE05846F1
:102A700001F0DBFB8046284A2A4B01F0E9FB0646C1
:102A800032460B460020164901F04AFA044601F08E
:102A90009FFB0F49C86015E0584601F0C6FB804611
:102AA000214A224B01F0D4FB064632460B46002059
:102AB0000B4901F035FA044601F08AFB0449C8606D
:102AC00000E000BF00BF0120BDE8F09F0020FBE751
:102AD0007C1F0020020000209A9999999999A93F9A
:102AE0000000F03F9999993F7B14AE47E17A843F0B
:102AF000E17A743FE17A643FFCA9F1D24D62503F24
:102B00004D62403F4D62303F2D431CEBE2361A3F91
:102B1000E2360A3FE236FA3EF168E388B5F8E43E71
:102B2000B5F8D43EB5F8C43E8EEDB5A0F7C6B03EBC
:102B30002DE9F04F87B006460027B84600200590E3
:102B4000069002900390049081468246002500245E
:102B50009FE0BAF1000F12D1584B9A88631C36F8E7
:102B6000131036F8140000F0FDF8002835D0A04608
:102B70004FF0010A012D30D1514804802DE036F884
:102B800014004E498988884201DB781C87B24B4B80
:102B90009A88631C36F8131036F8140000F0E2F837
:102BA000D8B1A4EB080005A921F8150031F81500EB
:102BB00001F082FD8346384601F07EFD59460190C2
:102BC00001F07CFC02A941F82500681CC5B2002771
:102BD0004FF00109601E84B2BA46032D57DBBDF8E1
:102BE0001400BDF81610884214DDBDF81400BDF8BD
:102BF0001810884202DDBDF816001FE0BDF8140071
:102C0000BDF81810884202DDBDF8180016E0BDF8C6
:102C1000140013E0BDF81400BDF81810884202DD5E
:102C2000BDF814000AE0BDF81600BDF8181088427F
:102C300002DDBDF8180001E0BDF816001F4948800C
:102C4000DDE9020101F04CFE0FD20499029801F077
:102C500047FE01D2039817E00499029801F040FE64
:102C600001D2049810E002980EE00499029801F055
:102C700037FE01D2029807E0DDE9030101F030FEE2
:102C800001D2049800E003980C49C86106E0601C7A
:102C900084B240F69F708442FFF65BAF00BF002D08
:102CA00007DD032D05DABDF81400044948800298B9
:102CB000C861484607B0BDE8F08F00007C1F0020C7
:102CC000040000202DE9F0410546002640F6FF777C
:102CD00000240DE035F81400B04201DD35F8146031
:102CE00035F81400B84201DA35F81470601C84B26B
:102CF000642CEFDB0B48C6800781304601F0DCFC1A
:102D00008046094901F020FD06494861384601F036
:102D1000D3FC8046044901F017FD02498861BDE8F3
:102D2000F08100007C1F00206740533A10B5092055
:102D30000B490870002048804FF480608880002094
:102D4000C861C8600846407820F003004870084613
:102D5000407820F00400487000F08AF810BD0000B0
:102D60007C1F002003460A484078C0F3C00038B9F1
:102D7000934203DC914201DD012070470020FCE713
:102D8000934203DB914201DA0120F6E70020F4E7E9
:102D90007C1F002010B5FFF7ABF910BD2DE9F84FEF
:102DA00006462F4840882F490988884206DA2C4871
:102DB00040882C490988081A85B200E000250020C7
:102DC00036236322012100900846FFF7DBFC002434
:102DD0003FE02549098804FB015136F8110001F054
:102DE0006BFC83464FF08B4101F068FB82461F4924
:102DF00001F0AAFC814601F03FFC87B2611C1A4A2F
:102E0000128801FB025136F8110001F055FC83468F
:102E10004FF08B4101F052FB8246144901F094FCC3
:102E2000814601F029FC1FFA80F84FF6FF70C8F1C7
:102E30002D0C1FFA8CF304F1010C1FFA8CF2C7F170
:102E40002D0C1FFA8CF10090A0B2FFF771FB601CF3
:102E500084B2642CBDDBFFF77DFBBDE8F88F00007A
:102E60007C1F0020040000200200002000002042FF
:102E700010B5594800780F2873D2DFE800F0081227
:102E80001C262F3B46515C67737E89949F0040F25D
:102E9000F31141F2DF50FEF7B5FC50A04E49086136
:102EA00098E040F6C31140F22F20FEF7ABFC4DA096
:102EB000494908618EE040F2E73140F22F20FEF7E9
:102EC000A1FC4AA04449086184E040F2E731372080
:102ED000FEF798FC47A0404908617BE040F2F311FF
:102EE0003720FEF78FFC05204449088044A03A496A
:102EF00008616FE031213720FEF784FC14203F4940
:102F0000088041A03449086164E013213720FEF7AE
:102F100079FC1920394908803DA02F49086159E002
:102F200009213720FEF76EFC1920344908803AA0A9
:102F3000294908614EE004213720FEF763FC142084
:102F40002E49088036A02449086143E00421372037
:102F5000FEF758FC0A202949088033A01E49086161
:102F600038E036E004213720FEF74CFC05202349E9
:102F700008802FA0184908612CE004213720FEF7B3
:102F800041FC02201D4908802BA01349086121E063
:102F900004213720FEF736FC01201849088028A0BC
:102FA0000D49086116E004211B20FEF72BFC0120CF
:102FB0001249088024A0084908610BE001211B2068
:102FC000FEF720FC01200D49088021A0024908617C
:102FD00000E000BF00BF10BD7C1F0020202031207A
:102FE000730000003530306D730000003230306DFA
:102FF000730000003130306D7300000002000020CB
:103000002035306D730000002032306D73000000F9
:103010002031306D730000002035206D73000000FA
:103020002032206D730000002031206D73000000FD
:103030003530307573000000323030757300000099
:10304000313030757300000020353075730000009A
:1030500020323075730000002DE9F84304460D4618
:1030600016461F46DDF820800120E9B20090E0B24C
:103070003B463246FFF70EF9BDE8F8832DE9F843E9
:1030800004460D4616461F46DDF820800020E9B2B2
:103090000090E0B23B463246FFF7FCF8BDE8F8830B
:1030A00008B54FF6FF7037236422002100900846D0
:1030B000FFF73EFBFFF74EFA08BD00002DE9FC418B
:1030C00004464FF6FF7008238FA200210090652070
:1030D000FFF7C2FF4FF6FF7008238DA2194600903C
:1030E0006920FFF7B9FF2046FFF7ECFD2046FFF708
:1030F00089FB002859D08849C869884901F024FB18
:10310000064601F09DFA05462A4685A18648FDF748
:103110006BF84FF6FF700823834A18210090672050
:10312000FFF79AFF7C48C0684FF47A71B0FBF1F06A
:1031300058B37948C0687D49B0FBF1F058B1764882
:10314000C0684FF47A71B0FBF1F52A4678A1764851
:10315000FDF74AF80FE07049C86801F066F80746C5
:103160000022744B00F0DCFE05462A460B4672A195
:103170006D48FDF739F84FF6FF70082370A2194625
:1031800000906920FFF768FF35E0634868A1C268D6
:103190006548FDF729F84FF6FF70082369A2194624
:1031A00000906920FFF758FF25E067A15E48FDF712
:1031B0001BF84FF6FF70082362A2194600906920A1
:1031C000FFF74AFF5448C08853498988884209DB81
:1031D0004FF6FF7008235EA2182100906720FFF7CA
:1031E0003BFF08E04FF6FF7008235BA21821009018
:1031F0006720FFF731FF4C48FDF734F9C0F10400B8
:10320000652101EBC00085B24FF6FF700823464AE6
:10321000002100902846FFF71FFF2046FFF7BEFD64
:103220004FF6FF7000903C480823382102690020C7
:10323000FFF724FF4A4808230722382100901F2067
:10324000FFF70AFA4FF6FF70082346A238210090D4
:103250002720FFF701FF30484078C0F3800048B1D5
:103260004FF6FF70082340A2382100902F20FFF76F
:1032700005FF08E04FF6FF7008233CA238210090BC
:103280002F20FFF7FBFE3A48082301223821009047
:103290003520FFF7E1F92049486901F0D7F80546E4
:1032A0000E461D49886901F0D1F807463A460B469B
:1032B00030A11D48CDE90056FCF796FF1A48FDF7EE
:1032C000D1F800EB40007F21A1EB400085B24FF622
:1032D000FF700823144A382100902846FFF7BCFEEF
:1032E000274808230322202100900120FFF752F9EC
:1032F000244808230322202100906120FFF74AF987
:10330000FFF748FDBDE8FC812020202020000000C0
:1033100020202020000000007C1F00200000C84268
:1033200020253264252500009C1F0020A086010076
:103330002533640000408F40252E316600000000D8
:103340004B487A0020487A00202D2D2D00000000E7
:103350003130302500000000202030250000000022
:103360004D490008410000005300000052000000D9
:103370005A490008252E32662D252E326676000029
:10338000544900085749000870B5044600251BE061
:1033900004F0800020B180210D48FEF706FC03E018
:1033A00080210B48FEF7FFFBFEF746FC4021084852
:1033B000FEF7FBFBFEF740FC40210548FEF7F3FB60
:1033C0006006040E681CC5B2082DE1DB70BD00006C
:1033D000000C014010B500F001F810BD0CB5002044
:1033E000019000903348006840F480303149086013
:1033F00000BF3048006800F4003000900198401C85
:103400000190009818B90198B0F5A06FF1D1294842
:10341000006800F4003010B10120009001E00020AD
:1034200000900098012843D12348006840F0100024
:10343000214908600846006820F00300086008463B
:10344000006840F0020008601A4840681949486066
:103450000846406848600846406840F4806048601C
:103460000846406820F47C1048600846406840F4F4
:10347000A81048600846006840F08070086000BFEF
:103480000C48006800F000700028F9D00948406836
:1034900020F00300074948600846406840F00200F9
:1034A000486000BF0348406800F00C000828F9D1CC
:1034B0000CBD00000010024000200240042808D18A
:1034C0004FF0E021096941F004014FF0E022116161
:1034D00007E04FF0E021096921F004014FF0E022FC
:1034E000116170477047000010B51348006840F044
:1034F00001001149086008464068104908400E491B
:103500004860084600680E4908400B4908600846B4
:10351000006820F4802008600846406820F4FE001F
:1035200048604FF41F008860FFF754FF4FF00060C1
:103530000449086010BD0000001002400000FFF8C0
:10354000FFFFF6FE08ED00E030B589B005460C46F9
:10355000002008900590069007900190029003903B
:1035600004900121C802FEF713FF01210520FEF798
:103570000FFF4FF48070ADF8200018208DF8230065
:1035800003208DF8220008A91748FEF781FAADF84C
:103590001850ADF814400020ADF81A00ADF8160030
:1035A00005A9124800F0F6F96020ADF804000120EA
:1035B000ADF806000020ADF80C0001A90B4800F0A2
:1035C00089F90121094800F078F80821074800F03E
:1035D000CDF90121054800F055F80121034800F01C
:1035E00060F809B030BD000000080140002C014027
:1035F00010B50B4801880088401C094A1080B1F5BD
:103600007A7F07DB07480088401C064908800020B5
:10361000114608800121880700F040F810BD000025
:10362000100000200E0000207FB505460C46012149
:103630000846FEF78DFEADF80850ADF804400020B6
:10364000ADF80A00ADF8060001A94FF0804000F087
:10365000A1F91C208DF8000002208DF80100002047
:103660008DF8020001208DF803006846FEF78EFBFE
:1036700001221146900700F023F90121880700F08C
:1036800010F87FBD21B1028842F08002028004E080
:1036900002884FF67F731A4002807047CA43028245
:1036A000704721B1028842F00102028004E00288E2
:1036B0004FF6FE731A400280704731B1B0F84420D3
:1036C00042F40042A0F8442005E0B0F84420C2F3E0
:1036D0000E02A0F84420704710B5044668488442A2
:1036E00008D10121C014FEF763FE0021E014FEF7AB
:1036F0005FFEC4E0B4F1804F08D101210846FEF717
:1037000037FE00210120FEF733FEB8E05D48844219
:1037100008D101210220FEF72BFE00210220FEF736
:1037200027FEACE05848844208D101210420FEF76E
:103730001FFE00210420FEF71BFEA0E05348844238
:1037400008D101210820FEF713FE00210820FEF712
:103750000FFE94E04E48844208D101211020FEF76C
:1037600007FE00211020FEF703FE88E0494884424E
:1037700008D101212020FEF7FBFD00212020FEF7CB
:10378000F7FD7CE04448844208D101214014FEF753
:103790000FFE00216014FEF70BFE70E03F488442EC
:1037A00009D10121C804FEF703FE00214FF40020D7
:1037B000FEF7FEFD63E03A48844209D10121080585
:1037C000FEF7F6FD00214FF48010FEF7F1FD56E004
:1037D0003448844209D101214805FEF7E9FD002162
:1037E0004FF40010FEF7E4FD49E02F48844208D171
:1037F00001214020FEF7BCFD00214020FEF7B8FD6E
:103800003DE02A48844208D101218020FEF7B0FD26
:1038100000218020FEF7ACFD31E02548844208D12C
:1038200001218015FEF7A4FD0021A015FEF7A0FDE3
:1038300025E02048844209D101210804FEF7B8FDA3
:1038400000214FF48030FEF7B3FD18E01A4884429F
:1038500009D101214804FEF7ABFD00214FF40030EF
:10386000FEF7A6FD0BE01548844208D1012188042B
:10387000FEF79EFD00214FF48020FEF799FD10BD5C
:10388000002C01400004004000080040000C0040F3
:10389000001000400014004000340140004C014082
:1038A000005001400054014000180040001C00403E
:1038B0000020004000400140004401400048014019
:1038C0001AB183890B43838102E083898B4383810F
:1038D0007047000070B5002400220023058C4FF6CD
:1038E000FE7635400584028C8388048B4FF68F75F5
:1038F0002C40B51E2C400D882C43751E2A400D8986
:103900002A434D882A43144DA8420BD0134DA84298
:1039100008D0134DA84205D0124DA84202D0124D36
:10392000A84213D14FF6F7752A404D892A434FF626
:10393000FB752A408D882A434FF6FF652B404FF6D2
:10394000FF552B408D892B43CD892B4383800483E6
:10395000CD888586028470BD002C01400034014072
:103960000040014000440140004801400A46002157
:10397000018B4FF6F773194011430183704782881A
:103980004FF68F731A40828082880A438280704784
:1039900081867047002202881D4B98420ED01D4B35
:1039A00098420BD0B0F1804F08D01B4B984205D005
:1039B0001A4B984202D01A4B984204D14FF68F739B
:1039C0001A404B881A43174B984207D0164B98421F
:1039D00004D04FF6FF431A40CB881A4302808B88ED
:1039E00083850B8803850A4B98420BD0094B98427C
:1039F00008D00E4B984205D00D4B984202D00D4B8B
:103A0000984201D10B7A038601238382704700001C
:103A1000002C014000340140000400400008004038
:103A2000000C004000100040001400400040014025
:103A3000004401400048014010B586B00446002013
:103A400005900190029003900490009025208DF83D
:103A5000000002208DF8010001208DF802008DF891
:103A600003006846FEF792F901210420FEF790FC5E
:103A700001218803FEF78CFC4FF40070ADF81400B0
:103A800018208DF8170003208DF8160005A9154899
:103A9000FDF7FEFF4FF48060ADF8140004208DF8B0
:103AA000170005A90F48FDF7F3FF01940020ADF8BA
:103AB0000800ADF80A00ADF80C00ADF810000C20BD
:103AC000ADF80E0001A9084800F090F8012240F27C
:103AD0002551054800F064F80121034800F02AF858
:103AE00006B010BD000801400038014010B540F29A
:103AF0002551054800F02AF820B1034800F0E2F80B
:103B00000249087010BD000000380140000000208C
:103B100010B540F22551054800F018F820B10348CF
:103B200000F0D0F80249087010BD000000440040C9
:103B30000100002021B1828942F40052828104E018
:103B400082894DF6FF731A408281704770B5024634
:103B5000002400230025002040F66A16B14200D15F
:103B600000BFC1F3421501F01F03012606FA03F35B
:103B7000012D02D19689334006E0022D02D1168A2A
:103B8000334001E0968A33400C12012606FA04F411
:103B90001688344013B10CB1012000E0002070BD44
:103BA000F0B50346002400260025002040F66A17E1
:103BB000B94200D100BF1846C1F3421401F01F06FC
:103BC000012707FA06F5012C01D10C3004E0022C84
:103BD00001D1103000E014301AB107682F4307609C
:103BE00002E00768AF430760F0BD00002DE9F04731
:103BF00086B005460E460024A24600BFA146002717
:103C0000B08900B100BF2F462C8A4CF6FF700440EB
:103C1000F08804432C82AC894EF6F3100440B0883F
:103C200031890843718908430443AC81AC8A4FF65B
:103C3000FF400440B0890443AC8201A8FEF7C8FBF2
:103C40001F48874202D1DDF810A001E0DDF80CA08A
:103C5000A88900F4004040B10AEBCA0000EB0A104A
:103C600031684900B0FBF1F807E00AEBCA0000EB4D
:103C70000A1031688900B0FBF1F86420B8FBF0F05D
:103C800004012009642101FB1089A88900F4004087
:103C900040B1322000EBC900B0FBF1F000F00700AA
:103CA000044308E0322000EB09106421B0FBF1F07E
:103CB00000F00F0004432C8106B0BDE8F08700003F
:103CC0000038014001468888C0F30800704700BFF3
:103CD000FEE7490050EAC12018BF04204A0D18BF72
:103CE00040F0010040F2FF72B2EB515F08BF40F0BC
:103CF0000200012808BF0520704730380A2801D289
:103D0000012070470020704700BF704710B56FF06A
:103D10000400FFF7D3FB0A4800680A49B0FBF1F042
:103D2000094908700846007800EB4001C1EBC0105B
:103D30004FF6FF7101EAC0000449088010BD000081
:103D40002800002000127A000A0000200C00002049
:103D5000F0B504464FF47A70B4FBF0F087B24FF43C
:103D60007A70B4FBF0F100FB1145002604E04FF43B
:103D70007A7000F009F8761CBE42F8DB15B12846CF
:103D800000F002F8F0BD00000146114A12884A43D3
:103D90004FF0E0235A6100229A611A46126942F0FC
:103DA00001021A6100BF4FF0E022106900F0010229
:103DB0001AB100F48032002AF5D04FF0E0221269E7
:103DC00022F001024FF0E0231A6100229A6170474D
:103DD0000C00002001254FF4A060FEF70FF8FFF75C
:103DE00095FF4FF4E130FFF727FE372140F2E7302F
:103DF000FFF71AFC41F2DF51C720FFF7A5FB322184
:103E00003948FFF7C5FDFDF733FBFEF7CFF800207B
:103E1000FEF716F80020FEF721F8FDF715FFFEF774
:103E200085FFFFF73DF9A80230498880FEF760F969
:103E300058E00020FDF72EFF0446012C0DD12B4841
:103E400001780078401C294A10700E2902DB0E20F0
:103E500011460870FFF70CF826E0022C0DD123481C
:103E600001780078401E214A1070002902DC0020F1
:103E700011460870FEF7FCFF16E0052C0FD10DB9B6
:103E8000012000E000200546184840788008C04323
:103E90001649497860F382011448417004E0032C0C
:103EA00002D11348FEF700FB8DB10BE00120FFF7B4
:103EB0004FFF3046711C8EB240F6B831884201DBAC
:103EC000002603E0FDF704FC0028EFD000BF0848FF
:103ED000FFF7F4F815B1FDF743FB01E0FDF752FBE6
:103EE000FDF78AFCA5E70000002C01407C1F0020A4
:103EF0003C00002010B500290AD00878002807D01F
:103F000005487844FCF7ACFE002801D0002010BD25
:103F10000248784410BD000006250000FE24000081
:103F20002DE9C04130B4DFF8A0C23CEA111418BF3B
:103F30003CEA131400F0EC8081EA03051CEA11143A
:103F400044EAD57418BF1CEA131500F0C780A4EB2F
:103F500005044FF0004545EAC12145EAC32341EA83
:103F6000505143EA525304F17F74994204F50034EE
:103F70004FEAC0204FEAC22208BF904200F09C8066
:103F80004FEA13650FF24016765D4FEA134506FBC4
:103F900005F7C7F1807706FB07F74FEAD737A7FB8E
:103FA00003687642C8F58038A7FB06CE38BFA8F173
:103FB000010807FB08E64FF0000EA6FB028CE6FBAB
:103FC00003CEDCF1000CCEF1004E38BFAEF1010E95
:103FD000A6FB0C584FF000074FF00005E6FB0E87DC
:103FE000A1FB08C6A0FB07CE16EB0E0645F10005A7
:103FF000E1FB076515F1E04E7EBFA4F580345FEA72
:1040000046066D4116F1800745F100054FEA172776
:104010004FEA066647EA0567A6F1DE46B6F1805F1D
:104020004FEA15251FD9384624F0010C05EBC47161
:10403000BCF1FE6F01EB0C1102D8F0BCBDE80081B1
:1040400024425CBF01F5801E9EEAC47F02D4F0BC0E
:10405000BDE80081244238D4F0BCA1F1C041BDE8E4
:10406000004100F0EDB94FEAD22242EA43524FEA52
:10407000D323A7FB02864FEAD02040EA415007FB3A
:1040800003661EEA0E0F4FEAD12105FB026658BFF8
:10409000A6EB0056B6EB00564FEA520E4EEAC37E30
:1040A00018EB0E0E56EB530EBDD518EB02085E4111
:1040B0007F1C55F10005B6E74FF480154FF000075F
:1040C0004FF000064FF00008ADE7F0BC4FF00000E5
:1040D00001F1C04101F00041BDE8008111EA0C1F6F
:1040E0000CEA131500D00CE013EA0C1F00F0258039
:1040F0004FF00000F0BC81EA030101F00041BDE88F
:104100000081F0BCBDE8004181EA030100F098B9EC
:10411000F0BCBDE8004170B500F044F9097EFC3EFA
:1041200000F007B881EA03014FF0000001F0004100
:10413000704781EA030100F083B9F0BCBDE800419B
:104140004FF0000021497047FFFDFBF9F7F5F4F24D
:10415000F0EEEDEBE9E8E6E4E3E1E0DEDDDBDAD822
:10416000D7D5D4D3D1D0CFCDCCCBCAC8C7C6C5C480
:10417000C2C1C0BFBEBDBCBBBAB9B8B7B6B5B4B397
:10418000B2B1B0AFAEADACABAAA9A8A8A7A6A5A482
:10419000A3A3A2A1A09F9F9E9D9C9C9B9A99999846
:1041A0009797969595949393929191908F8F8E8EE9
:1041B0008D8C8C8B8B8A8989888887878685858476
:1041C00084838382828181800000FF070000F87F62
:1041D0004FEA1153A3F58063D3F11E03A8BFD3F1B7
:1041E000200C08DB4FF0004242EAC12252EA505252
:1041F00032FA03F0704709420BD4102BC4BF0020E1
:10420000704703F5787CBCF1FF3F05D04FF0FF30DD
:1042100070474FF00000704770B500F0C3F800BF62
:104220004992248000207047F0E7B0FA80F310FA3A
:1042300003F10AD0C3F11D0303F580634FEA415037
:104240004FEA035202EBD12170474FF00000704754
:10425000DFF848C170B51CEA111E1EBF1CEA131519
:104260009EEA0C0F95EA0C0F00F06F8081EA0304C0
:1042700023EA4C134EEAD47E21EA4C1141F480111A
:1042800043F48013AE44A1FB024CA0FB0365AEF1E6
:104290007F7E361955EB0C05A1FB034C4CF1000356
:1042A000A0FB021C16EB0C06654153F1000309420A
:1042B00018BF46F0010613F4007F0BD14FEA03311B
:1042C0004FEA0530340341EA155140EA16506FF0C9
:1042D00003020AE04FEAC3214FEAC520F40241EA93
:1042E000555140EA56506FF0020202EB2E4201EBAC
:1042F000025585EACE710AD05FEA440C18BF24F05B
:10430000004450F1000041F1000120EAD47040F275
:10431000FE7C624500D270BDA84214BF4FF08044BD
:104320004FF04044002E08BF0024BEF1806FA8BFAC
:10433000A1F1C041BDE8704080F282804FF00000E2
:1043400001F1C04101F0004170479EEA0C0F0CEAF8
:10435000131518BF95EA0C0F06D04FF0000081EA44
:10436000030E0EF0004170BD00F01CF88900013E04
:1043700000F007B800F009B84FEA430C5FEA5C5C54
:1043800008D081EA030100F05BB84FEA410C5FEA14
:104390005C5CF6D14FF00000014970470000FF0758
:1043A0000000F87F0EF1020E2EF0030E5EF8046B93
:1043B000364205D4012A43EB030515F5001F12D838
:1043C000012841EB010C1CF5001F0CD80ED14FEA5F
:1043D000D17C15F5001F0CEB4C0C0CF1020C08BF46
:1043E0004CEBD37C04E04FF0080C01E04FEAD37CA7
:1043F0000CEB4C0526FA05F606F00706B6F1040CA0
:1044000006D20EEB860CBDE870404CF0010C604704
:10441000DFE80CF0090B02024FF000414FF0000002
:10442000A1F5002170BD19461046012851EB010489
:1044300018BFD4F5001484BF002001F0004170BD06
:104440000808A0F500114FEA3101704743004FEA18
:10445000D30C4FEA3C0C43401FBF40070CF16051A6
:1044600013F0FE4F70471CF0006F03D100200CF0DA
:10447000004170470CF0004343EA507010B540EA29
:10448000CC0000F0E2F900BF000000924FEA00010A
:10449000FFF7D6BF4FF000414FF00000A1F500211B
:1044A0007047401058BFC0F14040491058BFC1F19B
:1044B00040418142EFF30080704700004FF47F0CD1
:1044C0001CEAD0121EBF1CEAD11392EA0C0F93EA29
:1044D0000C0F00F0858090EA010F48BF42F4807213
:1044E00040F4000C41F400002CF07F4120F07F40AC
:1044F00000B58142A2EB03020FF2081CACEB504E58
:10450000C0F100009EF800E04FEA4E0E00FB0EFCEA
:1045100038BF49004FEA2C1C02F5FA020CFB0EF3DF
:104520004FEACE1E4FEA112C4FEAC1210EEB635E1B
:1045300042EB22420EFB0CFC4FEA1C5300FB031122
:104540004FEA112C4FEA01310EFB0CFC4FEADC4C18
:1045500000FB0C11C14228BF09184CEB03335DF876
:1045600004EB10EB410143EBC250B2F57C0F38BFB6
:10457000704729D512F0F00F1CBF00F1C04000F0C9
:1045800000407047008182838485868788898B8C70
:104590008D8E8F919293959697999A9C9D9FA0A2AC
:1045A000A3A5A7A8AAACAEB0B2B3B5B7B9BCBEC0FC
:1045B000C2C5C7C9CCCED1D4D7D9DCDFE2E6E9EC9D
:1045C000F0F3F7FAFE0000004FEA400C0CF1807C9B
:1045D000BCF17E4F28BF7047B0F1C04000F07BB9FE
:1045E00090EA010F0CEAD11348BF42F48072624591
:1045F00038BF634507D213F47F0F16D080EA01005D
:1046000000F00040704710B500F01FF9097EFC3E35
:1046100000F005B880EA010000F00040704780EA31
:10462000010000F0004000F056B912F47F0F04BF03
:104630000248704780EA010000F04DB90000C07FD9
:1046400041000B0ED3F19E0208D950F400034FEA4B
:10465000032323FA02F048BF4042704710B500F030
:10466000F4F800BF49922480002070476FF00042A8
:1046700082EA200070470000C10DD1F19E0206DBE6
:104680004FEA002343F0004323FA02F07047004250
:1046900007D54FEA4001B1F1FE4F02D24FF00000C2
:1046A000704710B500F0D1F849922480002070477F
:1046B0006FEA200070470000B0FA80F310FA03F2AE
:1046C000C3F19D030AD0D90501EB1220530638BF70
:1046D000704700F1010008BF20F0010070470000A2
:1046E00050EA010C00F113801CF5000F58BFBCF517
:1046F000000F01D48842704707D710F5000F58BF4C
:1047000011F5000F15D488427047894270471CF597
:10471000000F04D5BCF5000FF7D5814270474FF06C
:10472000807C1CEB400F38BF1CEB410F01D2814253
:10473000704710B500F089F8922449004FF00050FE
:104740004FF08051FFF7ADBE4FF47F0C1CEAD01242
:104750001EBF1CEAD11392EA0C0F93EA0C0F00F073
:10476000478090EA010F48BF42F480724FF0004C3E
:104770004CEA00204CEA012102EB0302A0FB0113EA
:10478000A2F50002002918BF43F001035B0028BF17
:104790004FEA330342EB22425FEA132C4CEBC25048
:1047A0002EBFBCEB436FB2F57C0F70474FEA036C32
:1047B000BCF1004F08BF20F00100B2F57C0F38BFFC
:1047C00070470BD582F0FF0212F5803FC8BF7047DB
:1047D00000F1C040D8BF00F00040704700F5000C69
:1047E0005FEA4C0C48BF7047B0F1C04000F073B8AE
:1047F00090EA010F0CEAD11348BF42F4807262457F
:1048000038BF634504D280EA010000F000407047E1
:1048100010B500F01AF800BF8900013E00F007B89B
:1048200000F009B85FEA410C5FEA1C6C08D080EA2E
:10483000010000F050B85FEA400C5FEA1C6CF6D152
:104840004FF00040A0F5800070470EF1020E2EF0F0
:10485000030E5EF8044B244204D44FEA4102B2F145
:104860007F4F11D84FEA4003B3F17F4F0CD80ED1E0
:104870004FEAD07CB2F17F4F0CEB4C0C0CF1020CE8
:1048800008BF4CEBD17C04E04FF0080C01E04FEA8C
:10489000D17C0CEB4C0324FA03F404F00704B4F1CC
:1048A000040C06D20EEB840CBDE810404CF0010C59
:1048B0006047DFE80CF0070802024FF00040A0F567
:1048C000800010BD0846420018BFD2F1807288BF38
:1048D00000F0004010BDFF2141EAD050C0057047F4
:1048E00051EA000C00F113801CF5000F58BFBCF515
:1048F000000F01D48142704707D711F5000F58BF50
:1049000010F5000F15D481427047894270471CF59D
:10491000000F04D5BCF5000FF7D5884270474FF063
:10492000807C1CEB410F38BF1CEB400F01D288424A
:10493000704780EA010081EA000180EA0100FFF788
:10494000F8BEFBF70ABF00020A7E5040000040504C
:104950007E0A02007E3C18183C7E00000000000029
:10496000000000002F000000000700070000147F77
:10497000147F1400242A7F2A120062640813230083
:10498000364955225000000503000000001C22415A
:1049900000000041221C000014083E081400080812
:1049A0003E0808000000A060000008080808080091
:1049B0000060600000002010080402003E514945DC
:1049C0003E0000427F4000004261514946002141C3
:1049D000454B31001814127F10002745454539001A
:1049E0003C4A4949300001710905030036494949EB
:1049F0003600064949291E000036360000000056E0
:104A0000360000000814224100001414141414008D
:104A1000004122140800020151090600324959518F
:104A20003E007C1211127C007F49494936003E410C
:104A3000414122007F4141221C007F4949494100F8
:104A40007F09090901003E4149497A007F080808A9
:104A50007F0000417F4100002040413F01007F086E
:104A6000142241007F40404040007F020C027F0042
:104A70007F0408107F003E4141413E007F09090943
:104A800006003E4151215E007F0919294600464932
:104A90004949310001017F0101003F4040403F0092
:104AA0001F2040201F003F4038403F00631408147F
:104AB0006300070870080700615149454300007F03
:104AC00041410000552A552A55000041417F000010
:104AD0000402010204004040404040000001020482
:104AE00000002054545478007F484444380038442F
:104AF00044442000384444487F003854545418003B
:104B0000087E0901020018A4A4A47C007F08040404
:104B1000780000447D4000004080847D00007F10CC
:104B20002844000000417F4000007C041804780005
:104B30007C0804047800384444443800FC242424CD
:104B4000180018242418FC007C08040408004854A9
:104B500054542000043F444020003C4040207C004E
:104B60001C2040201C003C4030403C0044281028C1
:104B700044001CA0A0A07C004464544C44141414B1
:104B800014141400000000000000000000000000E9
:104B900000FC000000000002000000000C020C02FB
:104BA0000000000000000090D0BCD0BC90000300CA
:104BB0000300001824FE448C0003020702010018C1
:104BC00024D8B04C80000300010201C038E438E072
:104BD00000010202010202080600000000000000BD
:104BE000000000000000F8040200000001020400C0
:104BF0000204F800000004020100009060F86090D8
:104C0000000000010000002020FC20200000000126
:104C10000000000000000000000806000000002066
:104C20002020202000000000000000000000000004
:104C3000000002000000000080601C02000403006D
:104C4000000000F8040404F8000102020201000060
:104C500008FC00000000020302000018844424182D
:104C60000003020202020008042424D80001020208
:104C700002010040B088FC80000000000302003CFC
:104C8000242424C400010202020100F824242CC0C0
:104C9000000102020201000C04E41C0400000003F5
:104CA000000000D8242424D80001020202010038A8
:104CB000444444F800000302020100000010000018
:104CC00000000002000000000020000000000006BC
:104CD0000000000020508804020000000001029043
:104CE00090909090000000000000000002048850A6
:104CF000200002010000001804C424180000000273
:104D0000000000F804E494F800010202020200002E
:104D1000E09CF0800002030000030204FC2424D87D
:104D200000020302020100F80404040C0001020264
:104D300002010004FC0404F8000203020201000462
:104D4000FC24740C0002030202030004FC24740C13
:104D500000020302000000F0080444CC40000102FD
:104D600002010004FC2020FC0402030000030204F2
:104D700004FC040400020203020200000404FC0418
:104D80000406040403000004FC24D00C0402030203
:104D900000030204FC04000000020302020203FC00
:104DA0003CC03CFC0003000300030004FC30C4FCD6
:104DB00004020302000300F8040404F800010202E4
:104DC00002010004FC24241800020302000000F881
:104DD000848404F80001020207050004FC2464989E
:104DE00000020302000302182424448C0003020280
:104DF0000201000C04FC040C000002030200000489
:104E0000FC0000FC04000102020100047C80E01CA4
:104E1000040000030000001CE03CE01C0000030054
:104E2000030000049C609C040002030003020004D1
:104E30001CE01C04000002030200000C84641C043B
:104E4000000203020203000000FE0202000000074D
:104E5000040400000E30C000000000000102000049
:104E60000202FE0000000404070000000402040027
:104E7000000000000000000000000000000808081A
:104E80000808080000020000000000000000000008
:104E900040A0A0C00000010202030204FC2020C0C8
:104EA0000000030202010000C02020600000010297
:104EB00002020000C02024FC0000010202030200E4
:104EC000C0A0A0C0000001020202000020F82424BB
:104ED000040002030202000040A0A0602000070AB4
:104EE0000A0A0404FC2020C000020302000302009E
:104EF00020E4000000000203020000000020E400A3
:104F00000008080807000004FC80E02020020302DB
:104F10000003020404FC000000020203020200E09D
:104F200020E020C00003000300030020E02020C098
:104F30000002030200030200C02020C000000102A2
:104F400002010020E02020C000080F0A020100003A
:104F5000C02020E0000001020A0F0820E0402020CD
:104F6000000203020000000060A0A0200000020276
:104F70000203000020F820000000000102020020CF
:104F8000E00020E00000010202030220E020806037
:104F9000200000030100006080E08060000003004A
:104FA0000300002060806020000203000302002054
:104FB000E0208060200808070100000020A0602099
:104FC00000000203020200000020DE0200000000D8
:104FD000070400000000FF00000000000F000000B8
:104FE00002DE2000000004070000000201020404A9
:104FF00002000000000000000000000000000000AF
:1050000000000000000000000000F80000000000A8
:105010000000333000000000100C06100C060000E9
:105020000000000000000040C07840C0784000044C
:105030003F04043F040400007088FC0830000000B6
:105040001820FF211E0000F008F000E0180000000A
:10505000211C031E211E0000F00888700000001EA5
:105060002123241927211010160E00000000000033
:1050700000000000000000000000E0180402000032
:105080000000071820400000020418E000000000A3
:1050900040201807000000404080F080404000029F
:1050A00002010F01020200000000F00000000001F8
:1050B00001011F010101000000000000000000804C
:1050C000B0700000000000000000000000000000C0
:1050D00001010101010101000000000000000000C9
:1050E0003030000000000000000000806018040064
:1050F0006018060100000000E010080810E0000041
:105100000F102020100F00001010F8000000000009
:1051100020203F2020000000700808088870000050
:1051200030282422213000003008888848300000D0
:1051300018202020110E000000C02010F8000000F0
:10514000070424243F240000F80888880808000089
:1051500019212020110E0000E0108888180000009E
:105160000F112020110E0000380808C83808000070
:1051700000003F00000000007088080888700000F0
:105180001C222121221C0000E010080810E0000071
:1051900000312222110F00000000C0C000000000FA
:1051A000000030300000000000008000000000001F
:1051B0000080600000000000008040201008000017
:1051C00001020408102000404040404040400004DC
:1051D00004040404040400000810204080000000BF
:1051E00020100804020100007048080808F00000C0
:1051F00000003036010000C030C828E810E0000789
:1052000018272423140B000000C038E00000002001
:105210003C23020227382008F88888887000002084
:105220003F202020110E00C0300808080838000771
:105230001820202010080008F808080810E00020B6
:105240003F202020100F0008F88888E80810002070
:105250003F20202320180008F88888E80810002044
:105260003F200003000000C0300808083800000795
:10527000182020221E020008F808000008F8082064
:105280003F210101213F20000808F8080800000024
:1052900020203F2020000000000808F8080800C077
:1052A0008080807F00000008F888C028180800204F
:1052B0003F20012638200008F808000000000020E8
:1052C0003F20202020300008F8F800F8F8080020DF
:1052D0003F003F003F200008F830C00008F80820D9
:1052E0003F200007183F00E01008080810E0000FFA
:1052F00010202020100F0008F808080808F00020EF
:105300003F210101010000E01008080810E0000F33
:1053100018242438504F0008F888888888700020A6
:105320003F2000030C302000708808080838000077
:1053300038202121221C00180808F808081800004D
:1053400000203F2000000008F808000008F80800CE
:105350001F202020201F000878880000C83808007F
:105360000007380E010000F80800F80008F80003F4
:105370003C0700073C030008186880806818082074
:10538000302C03032C30200838C800C8380800002F
:1053900000203F2000000010080808C8380800203E
:1053A00038262120201800000000FE020202000022
:1053B00000007F40404000000C30C00000000000B2
:1053C0000000010638C00000020202FE00000000DA
:1053D0004040407F00000000000402020204000080
:1053E000000000000000000000000000000000803D
:1053F0008080808080808000020204000000000025
:10540000000000000000000000808080800000009C
:1054100019242222223F2008F8008080000000008A
:105420003F112020110E000000008080800000004D
:105430000E112020201100000000808088F800005C
:105440000E112020103F200000808080800000008E
:105450001F222222221300008080F08888881800F2
:1054600020203F20200000000080808080800000FD
:105470006B94949493600008F80080808000002072
:105480003F210000203F200080989800000000008D
:1054900020203F202000000000008098980000009D
:1054A000C08080807F000008F8000080808000209D
:1054B0003F24022D302000000808F8000000000002
:1054C00020203F202000008080808080808000207D
:1054D0003F20003F20003F8080008080800000202F
:1054E0003F210000203F20000080808080000000DD
:1054F0001F202020201F008080008080000000806E
:10550000FFA12020110E000000008080808000009C
:105510000E112020A0FF80808080008080800020ED
:10552000203F21200001000000808080808000005A
:1055300033242424241900008080E08080000000AF
:1055400000001F20200000808000000080800000FC
:105550001F202020103F208080800000808080005D
:10556000010E300806010080800080008080800FDE
:10557000300C030C300F0000808000808080000021
:1055800020312E0E312000808080000080808080BD
:10559000818E70180601000080808080808000006D
:1055A00021302C2221300000000000807C0202000B
:1055B000000000003F404000000000FF000000002D
:1055C000000000FF0000000002027C8000000000DC
:1055D00040403F00000000000601010202040400F8
:1055E00000000000000000000000000000000000BB
:1055F00000000000000000000000000000000000AB
:10560000000000000000000000000000000000009A
:10561000F0F0F0000000000000000000017F010039
:1056200000000000000000001C1C1C000000000026
:10563000008060301C8C60301C0C000000000000FA
:10564000000000000000000000000000000000005A
:10565000000000000000E00000000000E00000008A
:1056600086E69F86868686E69F860000011F0101EA
:105670000101011F010100000080C06020F820E04E
:10568000C00000000003070C18FF70E1810000005B
:1056900000070F10107F100F07000080602060804F
:1056A000000000E02000000F3020309F70DC371039
:1056B00030C0000000100E0300071810180700008B
:1056C00000C02020E0C0000000000080E01F38E89B
:1056D0008703C43C040000070F1810100B070D10BF
:1056E00010080000808C4C38000000000000000012
:1056F00000000000000000000000000000000000AA
:105700000000000000000000000000000080E03009
:105710000804000000000000FEFF0100000000007F
:105720000000000000030F1820400000040830E0D3
:10573000800000000000000000000001FFFE0000EB
:10574000000000004020180F0300000000000000CF
:105750000000000000C00000000000004266663C3F
:1057600018FF183C666642000000000000030000BD
:1057700000000000000000000080000000000000A9
:105780001010101010FF101010101000000000007A
:105790000003000000000000000000000000000006
:1057A00000000000000000000000000000000000F9
:1057B000808C4C3800000000000000000000000059
:1057C0000000000000000000101010101010101059
:1057D00010100000000000000000000000000000A9
:1057E00000000000000000000000000000000000B9
:1057F0000000000000000000001C1C1C0000000055
:105800000000000000000000000000E0380C000074
:1058100000000080701C03000000000060380E01D2
:1058200000000000000000000080C060202060C078
:1058300080000000FEFF010000000001FFFE0000EC
:1058400001070E181010180E07010000008080805C
:10585000C0E000000000000000000000FFFF0000AA
:1058600000000000001010101F1F1010100000009A
:1058700080402020202060C08000000003030080C2
:105880004020381F070000001C1A19181818181893
:105890001F00000080C020202060C08000000000A9
:1058A0000303001010182FE780000000070F1010EE
:1058B0001010180F070000000000000000C0E0F00A
:1058C00000000000C0B088868180FFFF808000005B
:1058D0000000000010101F1F1010000000E06060AA
:1058E0006060606060000000003F1008080818F069
:1058F000E0000000070B101010101C0F0300000048
:105900000080C040202020E0C0000000FCFF2110EB
:1059100008080818F0E0000001070C181010100823
:105920000F03000000C0E06060606060E0600000A5
:105930000003000000E01807000000000000000065
:105940001F1F00000000000080C060202020206099
:10595000C080000087EF2C1818303068CF8300001B
:10596000070F0810101010180F07000000C0C0200B
:10597000202020C0800000001F3F604040402010D9
:10598000FFFE0000000C1C101010080F03000000A8
:105990000000000000000000000000000000000007
:1059A0000E0E0E0000000000000000001C1C1C0079
:1059B00000000000000000000000000000000000E7
:1059C000000000000C0C00000000000000000000BF
:1059D0005838000000000000000000000000804077
:1059E0002010000000102844820100000000000088
:1059F0000000000000010204081000000000000088
:105A00000000000000000000848484848484848476
:105A1000848400000000000000000000000000007E
:105A20000010204080000000000000000000000086
:105A30000001824428100000001008040201000048
:105A400000000000C020201010101030E0C0000046
:105A500003030000F010080C070300000000001C06
:105A60001C1C0000000000000000C040602020203E
:105A700040C00000FCFF01F00E03C1FE03807F0068
:105A800001070E0811111011090402000000008026
:105A9000E0E000000000000000807C4340477FF809
:105AA00080000010181F1000000000131F1C1020A1
:105AB000E0E02020202060C080000000FFFF1010E8
:105AC0001010182FE78000101F1F10101010101852
:105AD0000F0700000080C0402020202060E0000070
