:020000040800F2
:10000000A02A0020A9010008491D00086F1B000854
:10001000451D00083918000883430008000000004F
:10002000000000000000000000000000652400083F
:100030004F1A000800000000D7220008713B00089A
:10004000C3010008C3010008C3010008C301000880
:10005000C3010008C3010008C3010008C301000870
:10006000C3010008C3010008C30100083D180008CF
:10007000C3010008C3010008C3010008C301000850
:10008000C3010008C3010008C3010008C301000840
:10009000C3010008C3010008C3010008C301000830
:1000A000C3010008C3010008C3010008C301000820
:1000B0007D3C0008C3010008C3010008C30100081B
:1000C000C3010008C3010008C3010008C301000800
:1000D000C3010008A1410008C5410008C301000890
:1000E000C3010008C3010008C301000800F002F8C2
:1000F00000F04AF80AA090E8000C82448344AAF178
:100100000107DA4501D100F03FF8AFF2090EBAE875
:100110000F0013F0010F18BFFB1A43F0010318473B
:10012000906A0000B06A0000103A24BF78C878C115
:10013000FAD8520724BF30C830C144BF04680C60ED
:10014000704700000023002400250026103A28BF35
:1001500078C1FBD8520728BF30C148BF0B60704739
:10016000662904F0CE87642900F07C800020704767
:100170001FB500F027FC04000020002104F0B8F9AE
:10018000E0601FBD10B510BD00F01CFD1146FFF76B
:10019000EFFF04F079F900F03AFD03B4FFF7F2FF46
:1001A00003BC04F00BF900000948804709480047E8
:1001B000FEE7FEE7FEE7FEE7FEE7FEE7FEE7FEE717
:1001C000FEE7FEE704480549054A064B7047000074
:1001D000753B0008ED000008A0240020A02A0020A4
:1001E000A0260020A02600200FB41CB5084B06AAAC
:1001F0007B4469460090059800F0CBFB0446002044
:10020000694600F0D9FB20461CBC5DF814FB0000D9
:10021000C507000070B5044685690068C10601D5B0
:10022000302600E02026C00707D070BDD4E90121A8
:1002300030469047206A401C20626D1EF6D570BD86
:1002400070B5044685690078C00707D170BDD4E950
:10025000012120209047206A401C20626D1EF6D5A7
:1002600070BD00002DE9F041064600241068752994
:10027000314616A510D0AFF30080002802DA4042C4
:1002800013A507E031688A0701D512A502E04907E6
:1002900004D511A5012401E0AFF3008000210A225A
:1002A00006F1240709E0B0FBF2FCB0FBF2F302FB1D
:1002B0001C00303078541846491C0028F3D12346DE
:1002C0002A463046BDE8F04100F0F6B800000000D4
:1002D0002D0000002B000000200000002DE9F05F41
:1002E000894604464FF0000ADFF874B1FB44C0F8B9
:1002F00020A02046E1688847002874D0252806D031
:10030000D4E901219047206A401C2062F1E70026D1
:100310005F462046E16888472028054607DB312DE7
:1003200005D2781910F8200C08B10643F1E7B007A0
:1003300001D526F00406C4F81CA00027C4F818A0B4
:100340002A2D09D0284604F032F838B304EB870888
:10035000303DC8F8185019E059F8041B204604EB4A
:1003600087029161E1688847012F054618D1E0694D
:10037000002820DA26F020061DE0D8F8180000EB4F
:10038000800005EB40003038C8F818002046E168CE
:100390008847054604F00BF80028EED1012F0AD05B
:1003A0002E2D08D12046E16888477F1C0546022F84
:1003B00046F02006C4DBA069002803DA404246F07C
:1003C0000106A061F00701D026F010066C2D0BD0BD
:1003D000682D09D04C2D39D06A2D35D0742D35D0EB
:1003E0007A2D33D016E038E0E1682F462046884762
:1003F000B842054609D16C2F26D04FF48060E168E1
:10040000064320468847054604E06C2F1AD04FF477
:10041000807006430DB3A5F14100192802D820359C
:1004200046F400664A462946204626604E46FFF7B7
:1004300097FE80B101280BD0F61D26F0070000F1D1
:10044000080956E74020E4E78020D8E70020D6E7F7
:1004500006F104094DE7284652E7206ABDE8F09FFF
:100460001A6800004FF0000200B513469446964605
:10047000203922BFA0E80C50A0E80C50B1F12001B7
:10048000BFF4F7AF090728BFA0E80C5048BF0CC065
:100490005DF804EB890028BF40F8042B08BF7047C3
:1004A00048BF20F8022B11F0804F18BF00F8012B35
:1004B00070477047704770472DE9F0470D469946E1
:1004C0009246044600F124080168880604D5E069D4
:1004D00021F01001216000E00120A84201DD471B4E
:1004E00000E00027A1697A1902EB0900081AA0614F
:1004F0002078C00602D42046FFF78CFE002608E0D4
:10050000D4E901211AF806009047206A401C761CA5
:1005100020624E45F4DB2078C0060AD52046FFF75E
:1005200079FE06E0D4E9012130209047206A401C82
:100530002062381EA7F10107F4DC07E0D4E90121AD
:1005400018F805009047206A401C2062281EA5F17B
:100550000105F3DC2046FFF773FE2078000602D584
:100560000220BDE8F0870120FBE770472DE9FF4F2F
:100570000C461E464FF0FF378BB0D2E90001DDF884
:1005800060800A908A46C1F30A5505B93D460021AC
:1005900008464FF00000BAF1000F00F4400005DA01
:1005A00000EB80004FF4400101EA50004FEA9059FF
:1005B000B9F1010F00DDB9460A9850EA4A000ED0A1
:1005C00044F61050A5F2FF3545432F14B8F1000F43
:1005D0001ED07542291E1EDDC9F100021CE0B8F1D3
:1005E000010F4FF0000001D0302103E0F24305E09D
:1005F0002154401CB042FBDB304600220021215434
:100600000B99C1F80880C1E900200FB0BDE8F08F58
:10061000BD1B6D1CDEE74A4600DA694206A800F001
:100620005BFA06AB93E8070003AB83E8070050468C
:100630000A9900F035FB8DE80700A0F500501F383F
:1006400000900398002D0ADD42F21F014A4608443B
:10065000002303A90390684600F09EFD09E0A0F581
:1006600000504A461F38002303A90390684600F053
:10067000A8FD8DE807000004000C03D04FF0FF3008
:10068000410800E01046B8F1000F03D000220092AC
:1006900015461EE0751E05D400F098F930326255FB
:1006A0006D1EF9D5B3460122084302D000227F1CFB
:1006B00004E02078302801D100227F1E002A09970B
:1006C00084D01DE0112D07DA00F080F93032625538
:1006D0006D1C50EA0102F5D1084302D00098C8B160
:1006E0000EE00021681E05E0235C625C6354225426
:1006F000401E491C8142F7DBAB46A81B401E0990F7
:10070000002004F80B000B98099AC0F80880C0E993
:10071000002B7AE711264FF0000857E72DE9F04F3C
:1007200088460446D21D22F0070191B0D1E90001AC
:10073000CDE90A0103F027FE02460B98C00F01D055
:100740002D2007E02068810701D52B2002E0202121
:1007500001EAC000032A099001D0072A05DB0346FD
:100760004146204600F078F90BE12078800601D55B
:10077000E06900E00620B8F1650F814606D0B8F1C7
:10078000660F18D0B8F1670F70D131E00020B9F1D1
:10079000110F009001DB112301E009F101030AAA06
:1007A00001A90CA8FFF7E2FEDDE90C70002609F1B3
:1007B0000105834647E001204B4600904FF000477B
:1007C0000AAA01A90CA8FFF7D1FEDDE90DB00C992A
:1007D0005D46002610B909F101000D18B9EB0500BE
:1007E00003D4C0F1FF3609F10105A5EB09002BE0A8
:1007F000B9F1010F01DA4FF001090020B9F1110F31
:100800000090484601DD112300E003460AAA01A931
:100810000CA8FFF7ABFEDDE90C704D4600268346C1
:10082000207800070AD4AB4500DA5D4601A8012D07
:1008300004DD411911F8011C302907D04F4502DAB7
:1008400017F1040F04DA012082460FE06D1EEEE777
:10085000002F02DCED1B3E4403E0781CA84200DDC3
:100860007D1CB81B00F1010A4FF0004720780007FB
:1008700003D4AA4501DB4FF0FF3A0021B7F1004F46
:100880000DF143088DF8431024D002202B23002FB4
:1008900001DA7F422D230A21021EA0F1010000DCB3
:1008A0005FB197FBF1FC97FBF1F201FB1C7C174653
:1008B0000CF1300C08F801CDEEE7A8F1010003704F
:1008C0002188090501D5452100E06521A0F1010835
:1008D00000F8011C09980FA9A1EB0807FF1D00B142
:1008E0000120411901EBEA70A1693844081A401E41
:1008F000A0612078C00602D42046FFF78BFC09983F
:1009000028B1D4E901219047206A401C2062207858
:10091000C00622D52046FFF77DFC1EE0002E04DB3A
:10092000B34502DD01A8805D00E03020D4E901215B
:100930009047206A401C2062761CAAF101005FEA01
:10094000000A0AD100F03EF8C0680168405CD4E9B2
:1009500001219047206A401C2062281EA5F1010554
:10096000DCDC07E0D4E9012118F8010B9047206A8C
:10097000401C2062381EA7F10107F3DC2046FFF778
:100980005FFC032011B041E601694A1C026108784E
:10099000704700B58FB0CDE90131002105910549BF
:1009A0007944CDE9031011466846FFF797FC0FB074
:1009B00000BD0000E5FFFFFF0A6802F8010B0A60B6
:1009C00070470000004870475C24002030B5B0F14B
:1009D0000A024FEA900E71F100034EEA817EB0EBFD
:1009E0000E0061EB91014FEA101E4EEA017E10EB02
:1009F0000E0041EB11114FEA102E4EEA016E10EB82
:100A00000E0041EB11214FEA104E4EEA014E10EB61
:100A10000E0041EB1141401841F100014FEAD000B6
:100A200040EA41704FEAD10110EB80054FEA8104A2
:100A300044EA907444EB01046D1944EB0404521B26
:100A4000A3414FF0000348BF0A3200D530BD401C1F
:100A500041F1000130BD00002DE9F0411F46044680
:100A600003260168072A01F4006004DB08B116A51B
:100A700005E016A503E008B115A500E015A521F0D5
:100A800010002060A069C01EA0610FB1401EA061CF
:100A90002046FFF7BFFB4FB1D4E90121384690470C
:100AA000206A401C2062C01C206206E0206AFAE72F
:100AB000D4E9012115F8010B9047761EF8D22046A3
:100AC000FFF7BEFBBDE8F0814E414E006E616E0047
:100AD000494E4600696E66002DE9F047814616468C
:100AE0008AB0354878440DC88DE80D003248784406
:100AF000801C03AC0DC884E80D0041F69B3008440F
:100B0000372190FBF1F290FBF1F5A5F1800501FB97
:100B100012041B3C02D56442012000E00020DFF8F3
:100B200098A080460027FA44AAF1BE0A0EE0E0072A
:100B30000AD03246684607EB470101230AEB8101E0
:100B400000F03FFB8DE8070064107F1C002CEED105
:100B5000194F7F44AE3F19E0E80715D007EB0410AA
:100B60000DF1180A90E80E008AE80E00C068F04205
:100B700001D1981908903246012306A903A800F074
:100B800020FB03AB83E807006D10641C002DE3D14C
:100B90004FF0010332466946B8F1000F03A802D0B6
:100BA00000F0FAFA01E000F00CFBC9E90001C9F815
:100BB00008200AB0BDE8F087B06000000048704728
:100BC0003C2400207546FFF7F9FFAE460500694654
:100BD000534620F00700854618B020B5FFF7F2FA1B
:100BE000BDE820404FF000064FF000074FF000082E
:100BF0004FF0000B21F00701AC46ACE8C009ACE8AF
:100C0000C009ACE8C009ACE8C0098D46704710B512
:100C10000446AFF300802046BDE81040FFF7BDBAA0
:100C20004FF0013C50F8042B51F8043B9A4221D17B
:100C3000A2EB0C03934313EACC1317D150F8042B07
:100C400051F8043B9A4215D1A2EB0C03934313EAEB
:100C5000CC130BD150F8042B51F8043B9A4209D124
:100C6000A2EB0C03934313EACC13DBD04FF000004C
:100C7000704700BFD01A01BAB1FA81F101F0180132
:100C800022FA01F0CB40C1F12001DBB2C0B2C01AA0
:100C90002CFA01F3D11A914311EAC311E6D170473E
:100CA0005FEA400C08BF91F0000F4FEA8C234FEA37
:100CB000C12243EA51514FEA1C5018BF00F5F040E1
:100CC0004FEA300018BF41F000415FEA6C5C00F071
:100CD0002980BCF1FF3F08BF40F080407047130CF3
:100CE00006BF12044FF0100C4FF0000C130E04BF9F
:100CF00012020CF1080C130F04BF12010CF1040CCA
:100D0000930F04BF92000CF1020CD30F04BF5200EA
:100D10000CF1010C11464FF00002A0F11F00A0EBF6
:100D20000C00704711F0004F08BF704731F00041D0
:100D30003FF4D5AF0B0C06BF09044FF0100C4FF079
:100D4000000C0B0E04BF09020CF1080C0B0F04BFC2
:100D500009010CF1040C8B0F04BF89000CF1020C8B
:100D6000CB0F04BF49000CF1010CCCF12003A0EB28
:100D70000C0022FA03F302FA0CF241EA030100F13B
:100D80000100704720F07F4C80EA030023F07F478A
:100D9000ACEB070303F57C5300F0004003F1FF03C5
:100DA0002DE980494FEA154B09B44FEA144325EA6F
:100DB0000B4E24EA03480FF2042606EB13274908DA
:100DC0003E785FEA320203FB0667C7F5000707FBC0
:100DD00006F64FEA54374FEAD64606F1020607FBFD
:100DE000066CCCF1005C4FEA1C472CEA074C07FB71
:100DF00006F40CFB06F504EB15464FEA961634BFD5
:100E000000204FF000404FEAD13706FB07FC4FEAC5
:100E10001C4C0CFB0BF7D21B03FB0CF761EB07011F
:100E20000CFB0EF7B0EB074072EB17420CFB08F718
:100E300034BFA2EB0742B2EB074261EB17414FEA26
:100E40000C444FEA910706FB07FC4FEA1C4C0CFBD5
:100E50000BF7B0EBC74072EB573203FB0CF734BF14
:100E6000A2EBC742B2EBC74261EB57310CFB0EF766
:100E7000B0EBC70072EB57720CFB08F734BFA2EB64
:100E8000C702B2EBC70261EB5771039F4FEA816162
:100E900041EA921104EBCC044FEAD1374FEA826267
:100EA00006FB07FC42EA90124FEA80604FEA1C4CB6
:100EB0000CFB0BF7D21B03FB0CF761EB07010CFBE0
:100EC0000EF7B0EB074072EB17420CFB08F734BF8C
:100ED000A2EB0742B2EB074261EB17414FEA8C5598
:100EE0004FEA910704EB9C2406FB07FC4FEA1C4CDD
:100EF0000CFB0BF7B0EBC74072EB573203FB0CF760
:100F000034BFA2EBC742B2EBC74261EB57310CFBD7
:100F10000EF7B0EBC70072EB57720CFB08F734BF4B
:100F2000A2EBC702B2EBC70261EB577115EB4C2580
:100F30004FEA816141EA92114FEA82624FEAD1376A
:100F400042EA901206FB07FC44F100044FEA80607D
:100F50004FEA1C4C0CFB0BF7D21B03FB0CF761EBAD
:100F600007010CFB0EF7B0EB074072EB17420CFBCE
:100F700008F734BFA2EB0742B2EB074261EB17411F
:100F800015EB1C154FEA813141EA92414FEA82325A
:100F900042EA90424FEA80304FEA0C7644F1000476
:100FA00048EA03434EEA0B484FF0000EB2EB080C40
:100FB00071EB030724BF624639464EEB0E0E4FF02D
:100FC000000B0018524149414BEB0B0BB2EB080CE4
:100FD00071EB03077BF1000B24BF624639464EEBF1
:100FE0000E0E4FF0000B0018524149414BEB0B0B1A
:100FF000B2EB080C71EB03077BF1000B24BF6246D8
:1010000039464EEB0E0E51EA020718BF46F00106B4
:1010100016EB0E7655F1000254F1000103D5BDE840
:101020008901BDE80088BDE88901BDE80048B6191E
:10103000524141EB0101A3F10103704780807F7EA3
:101040007D7C7B7A7978777676757473727171703E
:101050006F6E6E6D6C6C6B6A6A69686867666665F0
:101060006464636362616160605F5F5E5E5D5D5C7E
:101070005C5B5B5A5A5959585857575656555555EF
:101080005454535352525251515050504F4F4F4E4F
:101090004E4D4D4D4C4C4C4B4B4B4A4A4A4949499D
:1010A00048484847474747464646454545444444DF
:1010B000444343434342424242414141002B9C4608
:1010C00030D477002BD01CB54FEA370703B44FF06C
:1010D00010004FF01001BAF1000F06D0BCF1000F64
:1010E000DCBF40F0080040F008014FF000000FBCEA
:1010F000BDE810400BF1010BBBF1010F08BF5FEA27
:10110000170722BF12F1010211F101014FF0004156
:1011100043F1000300F0004043EA00007047F9D3B8
:101120005708D0E746EA064613F1400F4FEA164645
:101130001FDD13F1200FDFBF16430A4600212033C5
:101140005B42BED0C3F1200746EA064602FA07F723
:101150004FEA164646EA0706C3F1200722FA03F2D1
:1011600001FA07F721FA03F14FF0000342EA070200
:10117000A7E746EA020646EA06464FEA164646EA68
:101180000106BCBF46EA0646360C4FF000034FF09E
:1011900000024FF0000194E72DE9804C9A469346F7
:1011A00070B491E8380007C831EA400C48BF34EA0F
:1011B000430C03D5FFF7E6FDFFF780FFF0BCBDE869
:1011C000008C2DE9804C9A46934670B491E8380023
:1011D00007C810F0804F08BF13F0804F03D100F014
:1011E00005F8FFF76BFFF0BCBDE8008C20F07F47EF
:1011F00080EA030023F07F4C07EB0C03A3F57C533C
:1012000000F00040A3F1FE0392F0000F00F0B38065
:1012100095F0000F00F077802DE901494FEA114069
:101220004FEA144621EA004800FB06FC24EA064780
:1012300008FB06F607FB08F800FB07F718EB064863
:101240004CEB164C4FEA124B18EB07484FEA154689
:101250004CEB174022EA0B4E0BFB06FC25EA064737
:101260000EFB06F607FB0EFE0BFB07F71EEB064E0A
:101270004CEB164C4FF000061EEB074E4CEB174B99
:1012800018EB0B0840F1000018EB0E0B58EB0008B0
:1012900040F100008F1A4FF000013CBFC943661BAC
:1012A00014BFB5EB040C00213CBFC943F61B4FEA49
:1012B00017444EEA8E0E27EA04454FEA1C4704FB0A
:1012C00007622CEA074C05FB07F70CFB05F604FB4D
:1012D0000CFC16EB074642EB174216EB0C4642EBB2
:1012E0001C421BEB060658EB0202414146EA9E06F1
:1012F00001D5BDE80189B619524141EB0101A3F1C5
:101300000103BDE801894FEA14454FEA114724EA79
:10131000054621EA074C05FB07F406FB07F70CFB23
:1013200006F105FB0CFC11EB074144EB17444FEAB7
:10133000124711EB0C4144EB1C4422EA074C05FB1D
:1013400007F206FB07F70CFB06F605FB0CFC16EB99
:10135000074642EB174216EB0C4642EB1C456A1857
:1013600054F1000148BF7047B619524141EB0101E9
:10137000A3F10103704795F0000F37D04FEA1142F7
:101380004FEA144721EA024624EA074C02FB07F120
:1013900006FB07F70CFB06F402FB0CFC14EB0744FE
:1013A00041EB17414FEA154714EB0C4441EB1C414C
:1013B00025EA074C02FB07F506FB07F70CFB06F6D0
:1013C00002FB0CFC16EB074645EB174516EB0C46EB
:1013D00045EB1C42121951F1000148BF7047B61984
:1013E000524141EB0101A3F1010370474FEA14455B
:1013F0004FEA114724EA054621EA074C05FB07F1AD
:1014000006FB07F70CFB06F24FF0000605FB0CFC91
:1014100012EB074241EB174112EB0C4251EB1C411E
:1014200048BF7047921841EB0101A3F101037047D7
:1014300000B587B0142102A8FFF714F8002001902E
:101440000121480200F084FF0121042000F080FF08
:101450004FF4804000F040FF00F0C8F900F07CF845
:101460000120ADF8040000208DF8070001A91F48F5
:1014700000F0EEFA1E4800F0BDF8002002908DF852
:101480000C008DF80D004FF4002004900020059012
:1014900001208DF8180002A9154800F003F9002377
:1014A00001221946124800F025F90121104800F0E8
:1014B00021F801210E4800F028F80D4800F076F9D7
:1014C00000BF0B4800F0D9F80028FAD1084800F016
:1014D00087F900BF064800F0C6F80028FAD10121BC
:1014E000034800F0B5F807B000BD00000008014057
:1014F0000024014021B1826842F00102826003E0D1
:10150000826822F001028260704721B1826842F451
:101510008072826003E0826822F480728260704789
:101520000748806820F00100054988604FF47A6020
:10153000C8600846806840F001008860704700007D
:10154000000002400348806820F0010001498860E3
:10155000704700000000024000B58DB02C2102A8A9
:10156000FEF780FF002001900121084600F0C0FE38
:101570001D4800F089F91D4802901D480390002085
:1015800004904FF47A600590002006908020079028
:10159000400008908000099000200A904FF400500D
:1015A0000B9000200C9002A90F4800F032FA0B209B
:1015B0008DF8040000208DF805008DF8060001204C
:1015C0008DF8070001A800F0C1FB022000F042F9ED
:1015D00001220221044800F013FA0121024800F020
:1015E00047F90DB000BD0000080002404C24014046
:1015F0004C00002010B504461248844208D1012155
:10160000401500F0B5FE0021601500F0B1FE17E0B6
:101610000D48844208D10121001500F0A9FE0021E7
:10162000201500F0A5FE0BE00848844208D10121F6
:10163000C80300F09DFE00214FF4004000F098FE2A
:1016400010BD00000024014000280140003C014082
:1016500021B1826842F48012826003E0826822F441
:10166000801282607047014600208A6802F00402FE
:101670000AB1012000E000207047014600208A687E
:1016800002F008020AB1012000E0002070470000CB
:101690000348007808B1012070470020FCE70000F3
:1016A0002000002030B502460020002350680F4C77
:1016B00020400D790C6844EA05242043506090686E
:1016C0000B4C2040D1E902542C434D7944EA4504A7
:1016D00020439060D06A20F470000C7C641EE4B259
:1016E000234340EA0350D06230BD0000FFFEF0FF0C
:1016F000FDF7F1FFF0B504460D4600200021092D4D
:1017000011DDE068A5F10A0606EB4607072606FA92
:1017100007F18843A5F10A0606EB460603FA06F12F
:101720000843E0600CE0206905EB4507072606FA50
:1017300007F1884305EB450603FA06F108432061EB
:10174000072A0FDA606B561E06EB86071F2606FA7D
:1017500007F18843561E06EB860605FA06F1084394
:10176000606322E00D2A0FDA206BD61F06EB860796
:101770001F2606FA07F18843D61F06EB860605FAF0
:1017800006F10843206310E0E06AA2F10D0606EBC3
:1017900086071F2606FA07F18843A2F10D0606EB1D
:1017A000860605FA06F10843E062F0BD816841F063
:1017B00008018160704700000020014908707047EF
:1017C00020000020024A1080121D11807047000086
:1017D00028040040012001490870704720000020C3
:1017E000816841F004018160704700000EB500205F
:1017F0000090019002900121022000F089FD0D4827
:1018000002F0B4FA3720ADF800000120ADF8040072
:101810000020ADF80600ADF802006946054802F068
:1018200013FC2021034802F004FC0121014802F0CE
:1018300082FA0EBD0004004000BFFEE710B5022092
:1018400000F0C8F820B1FFF7C5FF022000F002F851
:1018500010BD000000F0805111B10349086001E0A3
:101860000249486070470000040402400000024042
:1018700021B1026842F00102026004E002684FF602
:10188000FE731A400260704701684FF6FE72114005
:1018900001600021016041608160C1604B49884264
:1018A00008D14A490839496841F00F01474A083AC6
:1018B00051608AE045491431884208D143490839CA
:1018C000496841F0F001414A083A51607DE03F49E2
:1018D0002831884208D13D490839496841F470618E
:1018E0003A4A083A516070E038493C31884208D1A0
:1018F00036490839496841F47041344A083A516020
:1019000063E032495031884208D13049083949688A
:1019100041F470212D4A083A516056E02B49643158
:10192000884208D129490839496841F47001274A99
:10193000083A516049E025497831884208D1234965
:101940000839496841F07061204A083A51603CE02A
:101950001F49884206D1011F096841F00F01021F8B
:10196000116032E01A491431884208D11849091F20
:10197000096841F0F001164A121F116025E0144970
:101980002831884208D11249091F096841F4706161
:101990000F4A121F116018E00D493C31884208D1EE
:1019A0000B49091F096841F47041094A121F11606F
:1019B0000BE007495031884207D10549091F0968E2
:1019C00041F47021024A121F116070470800024062
:1019D0000804024001460020002201F0805313B1A8
:1019E000054B1A6801E0054B1A6802EA01030BB1C6
:1019F000012000E000207047000402400000024087
:101A00001AB103680B43036002E003688B43036071
:101A1000704710B50022026847F6F0739A430C6ACB
:101A20008B6823430C6923434C6923438C6923430C
:101A3000CC6923434C6A23438C6A23431A430260D4
:101A4000CB6843600B6883604B68C36010BD704710
:101A50002DE9F04102460025002600200023002445
:101A6000002791F803C00CF00F0591F803C00CF0AB
:101A7000100CBCF1000F03D091F802C04CEA050530
:101A800091F800C0BCF1000F31D0146800202BE0A9
:101A90004FF0010C0CFA00F3B1F800C00CEA030699
:101AA0009E4220D183004FF00F0C0CFA03F7BC4389
:101AB00005FA03FC4CEA040491F803C0BCF1280FBA
:101AC00006D14FF0010C0CFA00FCC2F814C00AE079
:101AD00091F803C0BCF1480F05D14FF0010C0CFA8E
:101AE00000FCC2F810C0401C0828D1D31460B1F823
:101AF00000C0BCF1FF0F34DD546800202EE000F17F
:101B0000080C4FF0010808FA0CF3B1F800C00CEA19
:101B100003069E4221D183004FF00F0C0CFA03F70D
:101B2000BC4305FA03FC4CEA040491F803C0BCF181
:101B3000280F05D100F1080C08FA0CF8C2F814803F
:101B400091F803C0BCF1480F07D100F1080C4FF029
:101B5000010808FA0CF8C2F81080401C0828CED3FF
:101B60005460BDE8F081416170470161704700BF7A
:101B7000FEE7000010B580210A48FFF7F6FF40217C
:101B80000848FFF7F2FF00F037F880210548FFF71B
:101B9000EAFF00F031F840210248FFF7E4FF00F0CF
:101BA0002BF810BD000C014010B580210648FFF74E
:101BB000DAFF40210448FFF7D8FF00F01DF880212C
:101BC0000148FFF7D2FF10BD000C014010B5802185
:101BD0000848FFF7CAFF00F00FF840210548FFF75B
:101BE000C4FF00F009F840210248FFF7BCFF00F0F5
:101BF00003F810BD000C0140032000BF011EA0F13E
:101C00000102D0B2FAD1704708B50020009001213E
:101C1000042000F09DFB0121082000F099FBF0203A
:101C2000ADF8000048208DF8030069460748FFF72B
:101C30000FFF40F20340ADF8000048208DF803008C
:101C400069460348FFF704FF08BD00000008014093
:101C5000000C014010B5044614B10120364908704B
:101C600035480078002847D034480068B0B1334880
:101C7000001D006890B131480830006870B12F48ED
:101C80000C30006850B12E48006838B12C48001D57
:101C9000006818B12A482830006868BB0A2002F0A2
:101CA000B1FB0020244908702448006808B90120CD
:101CB00010BD2248001D006808B90220F8E71F483F
:101CC0000830006808B90320F2E71C480C300068AF
:101CD00008B90420ECE71A48006808B90520E7E7CE
:101CE0001748001D006808B90620E1E714482830AD
:101CF0000068F0B90720DBE710480068C8B10F485A
:101D0000001D0068A8B10D480830006888B10B4874
:101D10000C30006868B10A48006850B10848001DDE
:101D2000006830B106482830006810B1012002492F
:101D300008700020BCE700002100002010012142B3
:101D40000081214200BFFEE77047000070B500210E
:101D500000230F22C47804B3154C246804F4E06413
:101D6000C4F5E064210AC1F10403CA40447804FACE
:101D700003F184781440214309010E4C0678A155E3
:101D8000047804F01F050124AC4005786D11AD0006
:101D900005F1E025C5F8004109E0047804F01F05CD
:101DA0000124AC40044D0678761145F8264070BDFC
:101DB0000CED00E000E400E080E100E002490143B6
:101DC000024A1160704700000000FA050CED00E0C7
:101DD00070B500240CE0002506E00020074901EB67
:101DE000C5010855681CC5B2802DF6DB601CC4B265
:101DF000082CF0DB00F05CF970BD0000BC1F002077
:101E000010B504461CB90021A62000F048FA012CA8
:101E100003D10021A72000F042FA10BD10B50446FE
:101E20003CB90021C82000F03AFA0021A12000F0BE
:101E300036FA012C07D10021C02000F030FA002131
:101E4000A02000F02CFA10BD2DE9FF4F84B0814690
:101E50008A460020029083460698A0EB0905079861
:101E6000A0EB0A06CDF80490CDF800A0002D01DD0E
:101E7000012705E00DB9002702E04FF0FF376D4262
:101E8000002E02DD4FF0010806E016B94FF0000801
:101E900002E04FF0FF387642B54201DD2C4600E00B
:101EA0003446002003901EE0009AD1B2019AD0B2CD
:101EB000119A00F01FF8029828440290B344029847
:101EC000A04205DD0298001B029001983844019061
:101ED000A34504DDABEB040B00984044009003984D
:101EE000401C80B20390611C03988842DCDB08B080
:101EF000BDE8F08FF0B514460B46CF1701EB5777CE
:101F0000C7F3C702CF1701EB5777FF10A1EBC70745
:101F1000FEB20123B340DDB24CB1134B03EBC0035F
:101F20009B5C2B43104F07EBC007BB541AE00E4BD2
:101F300003EBC0039B5CDB430B4F07EBC007BB54B9
:101F4000094B03EBC0039B5C2B43074F07EBC00718
:101F5000BB54054B03EBC0039B5CDB43024F07EB19
:101F6000C007BB54F0BD0000BC1F002008B5012114
:101F7000082000F0EDF9C020ADF8000014208DF825
:101F8000030003208DF8020069464748FFF760FD13
:101F9000C0214548FFF7E9FD0420ADF800001020FE
:101FA0008DF8030003208DF8020069463F48FFF7D3
:101FB0004FFD04213D48FFF7D8FD04213B48FFF7C2
:101FC000D2FDC82002F01EFA04213848FFF7CDFDEB
:101FD0000021AE2000F063F90021084600F05FF90F
:101FE0000021102000F05BF90021402000F057F99B
:101FF0000021812000F053F90021CF2000F04FF99B
:102000000021A12000F04BF90021C82000F047F981
:102010000021A62000F043F90021A82000F03FF99C
:1020200000213F2000F03BF90021D32000F037F9D8
:102030000021084600F033F90021D52000F02FF9E7
:102040000021802000F02BF90021D92000F027F991
:102050000021F12000F023F90021DA2000F01FF91F
:102060000021122000F01BF90021DB2000F017F9FD
:102070000021302000F013F90021202000F00FF99A
:102080000021022000F00BF900218D2000F007F95B
:102090000021142000F003F9FFF79AFE0021AF2081
:1020A00000F0FDF808BD0000000C014000080140F0
:1020B00070B500242BE004F1B001C8B2002100F09B
:1020C000EEF80021084600F0EAF80021102000F0A8
:1020D000E6F8FFF74FFD782001F09CFCFFF776FD56
:1020E000402001F097FCFFF771FD002509E0094948
:1020F00001EBC501085D01F08DFCFFF767FD681C71
:10210000C5B2802DF3DBFFF74FFD601CC4B2082C75
:10211000D1DB70BDBC1F00202DE9FE4F074688466D
:1021200092461C460197CDF80080082C02D14FF052
:1021300006091FE02046E31704EB5373DB1021462A
:102140004FEAE47C04EB5C7C4FEAEC0CA4EBCC0C97
:10215000BCF1000F02D04FF0010C01E04FF0000C79
:102160006344224604EBD27C4FEA6C0C03FB0CF375
:1021700003F0FF09AAF12000C6B200255EE0082C9A
:1021800007D106EB46002F4901EB400010F805B0DF
:102190001DE00C2C07D106EB46002B4901EB80001B
:1021A00010F805B013E0102C05D1284800EB0610FC
:1021B00010F805B00BE0182C07D106EBC600244937
:1021C00001EB800010F805B001E0BDE8FE8F0020B3
:1021D00002901CE00BF0010028B1414638460C9AF1
:1021E000FFF788FE09E00C9808B9012000E0002004
:1021F000024641463846FFF77DFE4FEA6B0B08F179
:10220000010000F0FF080298401CC0B20290029842
:102210000828DFDB781CC7B2082C0BD004EBD47184
:102220004A100199791A8A4204D1019F0098083016
:10223000C0B20090DDF80080681CC5B24D459EDB41
:1022400000BFC2E7225100084A530008BE570008E9
:10225000AE5D00082DE9F84106460F4614461D46BE
:10226000DDF81C8013E0CDF8008022782B4639463B
:102270003046FFF751FF082D02D1B01DC6B205E070
:10228000284605EBD07106EB6101CEB2641C2078C4
:10229000202802DB20787E28E5DDBDE8F88170B5D6
:1022A00005460C46FFF766FC782001F0B3FBFFF70C
:1022B0008DFC1CB1402001F0ADFB02E0002001F0DC
:1022C000A9FBFFF783FC284601F0A4FBFFF77EFC87
:1022D000FFF76AFC70BD704701460020034A506852
:1022E00020F4404008435060704700000010024056
:1022F00029B1064A52690243044B5A6104E0034A79
:1023000052698243014B5A6170470000001002403D
:1023100029B1064AD2690243044BDA6104E0034A58
:10232000D2698243014BDA6170470000001002401D
:1023300029B1064A12690243044B1A6104E0034AB8
:1023400012698243014B1A6170470000001002407D
:1023500029B1064A92690243044B9A6104E0034A98
:1023600092698243014B9A6170470000001002405D
:1023700029B1064AD2680243044BDA6004E0034AFA
:10238000D2688243014BDA607047000000100240BF
:1023900030B500210022002400232D4D6D6805F08A
:1023A0000C0121B1042905D0082923D105E0294DCC
:1023B000056022E0274D05601FE0254D6D6805F49E
:1023C0007012234D6D6805F48034022505EB9242AE
:1023D0001CB9214D554305600BE01D4D6D6805F49A
:1023E00000351DB11C4D5543056002E0194D5543A4
:1023F000056002E0174D056000BF00BF144D6D6819
:1024000005F0F0010909154D6B5C0568DD4045607C
:102410000F4D6D6805F4E061090A104D6B5C45686D
:10242000DD4085600A4D6D6805F46051C90A0B4DA9
:102430006B5C4568DD40C560054D6D6805F4404145
:10244000890B074D6B5CC568B5FBF3F5056130BDC5
:102450000010024000127A0000093D002200002016
:10246000320000207047000010B5074841784078DE
:10247000401C054A50700E2902DB0E2011464870A0
:1024800001F07AF910BD00008C1F002070B50546E0
:102490000E242BE018494C7001F06EF9FFF78CF90F
:1024A000FFF73EF800BFFFF7F3F80028FBD02846FF
:1024B00000F0E2F9C8B1104840881049098890FB43
:1024C000F1F0142808DB0C4840880C49098890FB7F
:1024D000F1F0322800DA0BE0074840880749098804
:1024E00090FBF1F0142800DA70BD641E002CD1DAE4
:1024F00000BF00BFF8E700008C1F0020080000208C
:1025000070B504460D461646E9B2E0B20022FFF768
:10251000F1FC70BD2DE9F84304460D4616461F46F2
:10252000DDF820800120FBB2F2B2E9B20090E0B207
:10253000FFF78AFCBDE8F88338B54FF6FF70372304
:102540000022082100901046FFF7E4FF4FF6FF70CD
:1025500037236422082100901046FFF7DBFF4FF677
:10256000FF7008230322194600900020FFF7D2FFD6
:102570004FF6FF7008236422194600906120FFF790
:10258000C9FF4FF6FF700C236722194600905E20AA
:10259000FFF7C0FF4FF6FF70372364221946009003
:1025A0000020FFF7B7FF01244BE0002510E0264B89
:1025B0001B8805FB03F20C3291B2244B1B8804FBF1
:1025C00003F290B24FF6FF7200F006F9681C85B274
:1025D000062DECDB4FF6FF701C4B00901B8804FBB4
:1025E00003F1C91C8AB2194B1B8804FB03F1891E35
:1025F00088B208231946FFF78DFF4FF6FF70134B83
:1026000000901B8804FB03F18AB2104B1B8804FB6B
:1026100003F188B20B230821FFF77CFF4FF6FF7010
:102620000A4B00901B8804FB03F18AB2074B1B88FE
:1026300004FB03F188B237233521FFF76BFF601CE1
:1026400084B2042CB1DD38BD14000020120000203B
:102650002DE9FE4F05460E4617461C464FF0000971
:10266000E8B20190F0B200902046E21704EB5272FB
:10267000D2102146E31704EB5373DB10A4EBC30322
:102680000BB1012300E000231A4494B24FF000087C
:102690003CE04FF0000A33E00C9810F809B009F163
:1026A00001001FFA80F90020029016E00BF00100F3
:1026B00030B14FF6FF723146284600F08DF804E045
:1026C000002231462846FFF71BFF4FEA6B0B701CB8
:1026D00086B20298401CC0B2029002980828E5DB3E
:1026E000681C85B20198281AB84204D1019D00984F
:1026F0000830C0B20090009E0AF1010000F0FF0A0D
:10270000BA45C9DB08F1010000F0FF08A045C0DBB5
:10271000BDE8FE8F2DE9FE4F05460E4617461C46C6
:102720004FF00009E8B20190F0B200902046E217A5
:1027300004EB5272D2102146E31704EB5373DB1003
:10274000A4EBC3030BB1012300E000231A4494B2AD
:102750004FF000083CE04FF0000A33E00C9810F80E
:1027600009B009F101001FFA80F90020029016E07B
:102770000BF0010030B14FF6FF7231462846FFF7EB
:10278000BFFE04E000223146284600F025F84FEA5B
:102790006B0B701C86B20298401CC0B2029002986B
:1027A0000828E5DB681C85B20198281AB84204D1D4
:1027B000019D00980830C0B20090009E0AF101000F
:1027C00000F0FF0ABA45C9DB08F1010000F0FF087C
:1027D000A045C0DBBDE8FE8F70B504460D46164629
:1027E000E9B2E0B20122FFF785FB70BD2DE9F047A9
:1027F00006460F4690469946DDF820A000240025A5
:10280000BAF1010F18D100BF11E0002509E07A19D3
:1028100091B2321990B24FF6FF72FFF7DDFF681CDC
:1028200085B2A9EB0700A842F1DA601C84B2A8EBDC
:102830000600A042E9DA16E0002410E0002508E0D6
:102840007A1991B2321990B20022FFF759FE681C32
:1028500085B2A9EB0700A842F2DA601C84B2A8EBAB
:102860000600A042EADABDE8F087000001480068EF
:10287000704700000C0000202DE9F05F8246B1484F
:102880004088B149098890FBF1F01FFA80FB50465F
:1028900000F088F9002876D0AA4840780F2873D233
:1028A000DFE800F0081D32475C73889DB2C7DCF595
:1028B000F3F2F100584601F0B6FF8046A34AA44B5C
:1028C00001F0C4FF064632460B460020A14901F044
:1028D00025FE044601F07AFF9A49C8602CE158466B
:1028E00001F0A1FF8046994A9B4B01F0AFFF0646DD
:1028F00032460B460020974901F010FE044601F0D5
:1029000065FF9049C86017E1584601F08CFF064604
:10291000924A934B01F09AFF804642460B460020B4
:102920008C4901F0FBFD044601F050FF8549C86069
:1029300002E1584601F077FF8046884A894B01F052
:1029400085FF064632460B460020824901F0E6FD2F
:10295000044601F03BFF7B49C860EDE0584601F0BA
:1029600062FF06467D4A804B01F070FF0446224616
:102970000B460020774901F0D1FD804601F026FF8B
:102980007049C860D8E0DBE0D5E0584601F04BFF65
:102990000646764A764B01F059FF804642460B4682
:1029A00000206C4901F0BAFD044601F00FFF6549B3
:1029B000C860C1E0584601F036FF80466B4A6D4B57
:1029C00001F044FF064632460B460020614901F003
:1029D000A5FD044601F0FAFE5A49C860ACE058462D
:1029E00001F021FF8046614A634B01F02FFF06464C
:1029F00032460B460020574901F090FD044601F095
:102A0000E5FE5049C86097E0584601F00CFF0646C5
:102A10005A4A5B4B01F01AFF044622460B4600203F
:102A20004C4901F07BFD804601F0D0FE4549C8606D
:102A300082E0584601F0F7FE8046504A514B01F0C3
:102A400005FF064632460B460020424901F066FD6E
:102A5000044601F0BBFE3B49C8606DE0584601F0FA
:102A6000E2FE8046454A484B01F0F0FE06463246FB
:102A70000B460020374901F051FD044601F0A6FE47
:102A80003049C86058E041E02BE015E0FFE75846C8
:102A900001F0C9FE06463D4A3D4B01F0D7FE804697
:102AA00042460B4600202B4901F038FD044601F058
:102AB0008DFE2449C8603FE0584601F0B4FE8046D0
:102AC000324A344B01F0C2FE064632460B46002025
:102AD000204901F023FD044601F078FE1949C86041
:102AE0002AE0584601F09FFE8046284A2A4B01F012
:102AF000ADFE064632460B460020164901F00EFD9B
:102B0000044601F063FE0F49C86015E0584601F025
:102B10008AFE8046214A224B01F098FE0646324644
:102B20000B4600200B4901F0F9FC044601F04EFE73
:102B30000449C86000E000BF00BF0120BDE8F09F6D
:102B40000020FBE78C1F0020080000209A9999992B
:102B50009999A93F0000F03F9999993F7B14AE479E
:102B6000E17A843FE17A743FE17A643FFCA9F1D2D3
:102B70004D62503F4D62403F4D62303F2D431CEB54
:102B8000E2361A3FE2360A3FE236FA3EF168E3885F
:102B9000B5F8E43EB5F8D43EB5F8C43E8EEDB5A028
:102BA000F7C6B03E2DE9F04F87B006460027B8467D
:102BB0000020059006900290039004908146824682
:102BC000002500249FE0BAF1000F12D1584B9A88DB
:102BD000631C36F8131036F8140000F0D9FC0028F6
:102BE00035D0A0464FF0010A012D30D15148048064
:102BF0002DE036F814004E498988884201DB781CA4
:102C000087B24B4B9A88631C36F8131036F81400C1
:102C100000F0BEFCD8B1A4EB080005A921F815000E
:102C200031F8150002F0A8F88346384602F0A4F8FF
:102C30005946019001F0A2FF02A941F82500681C45
:102C4000C5B200274FF00109601E84B2BA46032DB9
:102C500057DBBDF81400BDF81610884214DDBDF82E
:102C60001400BDF81810884202DDBDF816001FE000
:102C7000BDF81400BDF81810884202DDBDF8180038
:102C800016E0BDF8140013E0BDF81400BDF81810EC
:102C9000884202DDBDF814000AE0BDF81600BDF858
:102CA0001810884202DDBDF8180001E0BDF81600DA
:102CB0001F494880DDE9020102F072F90FD2049940
:102CC000029802F06DF901D2039817E00499029876
:102CD00002F066F901D2049810E002980EE004991F
:102CE000029802F05DF901D2029807E0DDE90301E4
:102CF00002F056F901D2049800E003980C490862EA
:102D000006E0601C84B240F69F708442FFF65BAF21
:102D100000BF002D07DD032D05DABDF814000449BE
:102D2000488002980862484607B0BDE8F08F00006E
:102D30008C1F00200A0000202DE9F04105460026E6
:102D400040F6FF7700240DE035F81400B04201DDB5
:102D500035F8146035F81400B84201DA35F814700B
:102D6000601C84B20E48008864214843A042EBDC1A
:102D70000C48C6800781304601F0FEFF80460A49B4
:102D800002F042F807498861384601F0F5FF8046B5
:102D9000054902F039F80349C861BDE8F081000037
:102DA000080000208C1F0020010F703B2DE9FC471C
:102DB0000446FFF75BFDFB490860084600683221C6
:102DC000B0FBF1F201FB120008B9012000E0002085
:102DD00008B100F0BFFAF34800684FF49671B0FBF9
:102DE000F1F201FB120008B9012000E0002008B355
:102DF000ED48007800F0030078B9EB480078C0F3A4
:102E0000800010B1FEF79EFB1EE0FEF741FC88B18A
:102E1000FEF7D2FCFEF784FB16E0E348007800F0F2
:102E2000030001280FD1E0480078C0F3800010B102
:102E3000FEF788FB08E0FEF72BFC28B1FEF7BCFC90
:102E4000FEF76EFB00E000BFD64800686421B0FBCF
:102E5000F1F201FB120008B9012000E00020002877
:102E60007ED0D148007800F0030028B1CE48007829
:102E700000F00300012874D1CB48007800F0030073
:102E8000012802D12046FFF701FBFEF701FC0028D4
:102E90005AD02046FFF750FF2046FFF7EDFC70B3F5
:102EA000C149086AC14901F0AFFF064601F028FF99
:102EB00005462A46BEA1C048FDF796F94FF6FF70B9
:102EC0000823BD4A002100903C2000F049FDB6488F
:102ED000C0684FF47A71B0FBF1F088B1B249C868AC
:102EE00001F0A1FC07460022B44B01F017FB054698
:102EF0002A460B46B2A1B048FDF776F924E006E079
:102F0000A948B2A1C268AC48FDF76EF91CE0B1A1B6
:102F1000A948FDF769F9A448C088A349898888426F
:102F200009DB4FF6FF700823ADA2002100903C2082
:102F300000F016FD08E04FF6FF700823AAA200215A
:102F400000903C2000F00CFD4FF6FF7008239A4AD9
:102F500000210090084600F003FD9349886901E0D4
:102F6000D1E026E001F070FD05460E468E49C869A5
:102F700001F06AFD07463A460B469DA18E48CDE911
:102F80000056FDF731F94FF6FF7008238A4A3821C1
:102F90000090372000F0E4FC8348007800F0030044
:102FA00018B9204600F050FB04E0204600F08EFBEC
:102FB00000E000BF4FF6FF7000907B4808233821E7
:102FC0004269002000F0DEFC77480078C0F3001072
:102FD00098BB75480078C0F3C00080B988480823C2
:102FE0000122382100903520FFF794FB8548082303
:102FF0000722382100901F20FFF78CFB0FE080484C
:1030000008230122382100903520FFF783FB7E48FA
:1030100008230722382100901F20FFF77BFB62481E
:10302000007800F0030048B94FF6FF70082377A23C
:1030300038210090272000F093FC1EE05A480078C9
:1030400000F00300012809D14FF6FF70082370A299
:1030500038210090272000F083FC0EE052480078D1
:1030600000F00300022808D14FF6FF70082369A280
:1030700038210090272000F073FC4B480078C0F303
:10308000800048B14FF6FF70082362A238210090FB
:103090002F2000F077FC08E04FF6FF7008235EA2B7
:1030A000382100902F2000F06DFC554808230122A4
:1030B000382100903520FFF72DFB584808230322C4
:1030C000302100900120FFF7C3FA3749888801F0CA
:1030D00053FE8146524901F051FD8046514901F0AD
:1030E00093FE0746504901F08CFF064601F024FE8E
:1030F00085B24E4808230322294600906120FFF73D
:10310000A7FA00F09DFA274800684FF44871B0FB19
:10311000F1F201FB120008B9012000E000200028B4
:103120003ED021480078C0F300100028F8D0404875
:103130000078A0BB1C48807C10B1012831D179E017
:103140001948007800F0030048B94FF6FF700823D3
:103150002EA238210090272000F002FC1EE0124829
:10316000007800F00300012809D14FF6FF70082312
:1031700027A238210090272000F0F2FB0EE00A4839
:10318000007800F00300022808D14FF6FF700823F2
:1031900020A238210090272000F0E2FB72E072E0CC
:1031A000CCE06EE0180000208C1F00200000C84218
:1031B0002025326425250000B01F002000408F40EC
:1031C00025352E31664B487A0000000025336420F7
:1031D00020487A0020202D2D2D20487A0000000064
:1031E0003130302500000000202030250000000094
:1031F00025352E32662D25352E32667600000000EC
:10320000215100080D510008145100084E00000023
:103210004100000053000000520000001B51000854
:1032200000F07F450000204200004C421E51000883
:103230001000002042480078C0F3C00080B9414827
:1032400008230122382100903520FFF763FA3E4819
:1032500008230722382100901F20FFF75BFA0FE0B8
:10326000384808230122382100903520FFF752FA10
:10327000364808230722382100901F20FFF74AFA1A
:1032800000E000BF50E02E48807C10B1012849D1F9
:1032900031E02B48007800F0030050B94FF6FF7082
:1032A0000823AFF2980238210090272000F06AFB33
:1032B00020E02348007800F0030001280AD14FF6EF
:1032C000FF700823AFF2B80238210090272000F0E9
:1032D00059FB0FE01A48007800F00300022809D1DA
:1032E0004FF6FF700823AFF2D40238210090272058
:1032F00000F048FB17E012480078C0F3C00040B966
:10330000114808230722382100901F20FFF7A0F959
:1033100007E00E4808230722382100901F20FFF7FE
:1033200097F900E000BF00BF0948007808B9012004
:1033300000E000200649087000F082F9BDE8FC8733
:103340008C1F0020215100080D5100081451000865
:103350001000002010B500F033F97C48007CC0F369
:10336000001070B1794800780009C04377490978A6
:1033700060F3041175480170007C20F0100073495F
:10338000087472480078C0F3001000286ED06F48AF
:10339000007CC0F3800088B16C48817C807C401E3A
:1033A0006A4A9074002902DC01201146887467483B
:1033B000007C20F004006549087415E06348007C37
:1033C000C0F3C00080B16148817C807C401C5F4AB2
:1033D0009074012902DB0020114688745B48007C50
:1033E00020F00800594908745848807CE8BB5748C9
:1033F000007C00F00100D8B15448007800F00302CE
:1034000052480078401C5149097860F301014F4847
:103410000170022A05DB007820F00300801C4B4974
:1034200008704A48007C20F00100484908748CE08C
:103430004648007CC0F340000028F8D0434800789C
:1034400000F0030241480078401E4049097860F3CB
:1034500001013E480170002A04DC007820F00300DE
:103460003A4908703948007C01E005E032E020F07C
:1034700002003649087468E03448807C012864D131
:103480003248007C00F0010078B130480078C00874
:10349000C0432E49097860F3C3012C480170007CB9
:1034A00020F00100294908744FE02848007CC0F34F
:1034B0004000E0B325480078C008C043234909789C
:1034C00060F3C30121480170007C20F002001F4915
:1034D00008743AE01D48007800F0030040BB1B4828
:1034E000407C00F0010058B1184800788008C043C3
:1034F0001649097860F38201144801700021417473
:103500001248007C00F0010038B1FEF7ADFF0F4813
:10351000007C20F001000D4908740C48007CC0F3C9
:10352000400020B100F044FA0848007C01E00CE0C3
:1035300004E020F002000549087406E00348007822
:1035400000F00300012800D000BF10BD8C1F002038
:1035500010B50C200D494870002048804FF4806061
:10356000888000200862C8600846007820F00300C8
:1035700008700846007820F00400087008460078BB
:1035800020F01000087000F0F7F810BD8C1F00202C
:1035900003460A480078C0F3C00038B9934203DC00
:1035A000914201DD012070470020FCE7934203DBDC
:1035B000914201DA0120F6E70020F4E78C1F002099
:1035C00010B50020FEF746FB0446012C07D11B482E
:1035D000007C20F00100401C184908742CE0022CEB
:1035E00007D11648007C20F00200801C13490874A3
:1035F00022E0052C03D10121104841741CE0062C67
:1036000007D10E48007C20F0100010300B490874E0
:1036100012E0032C07D10948007C20F00400001DB3
:103620000649087408E0042C06D10448007C20F008
:10363000080008300149087410BD00008C1F0020EC
:1036400010B5FEF735FD10BD2DE9F8430546002005
:1036500036236322092100900120FFF7C7F80024D8
:103660002CE019490988614335F8110001F084FB09
:1036700081464FF08B4101F081FA804600F0B8F9A5
:103680000646611C104A1288514335F8110001F0BA
:1036900073FB81464FF08B4101F070FA804600F0D9
:1036A000A7F907464FF6FF70611C8AB20090A0B2DE
:1036B0003B463146FEF72EFF601C84B2642CD0DB03
:1036C000FEF73AFFBDE8F883080000202DE9F84F27
:1036D00006462648408826490988884206DA234853
:1036E000408823490988081A85B200E00025002097
:1036F00036236322092100900120FFF777F8002488
:103700002EE01C49098804FB015136F8110001F034
:1037100033FB82464FF08B4101F030FA814600F0D6
:1037200067F90746611C134A128801FB025136F8FB
:10373000110001F021FB82464FF08B4101F01EFA8F
:10374000814600F055F980464FF6FF70611C8AB241
:103750000090A0B243463946FEF7DCFE601C84B2FE
:10376000642CCEDBFEF7E8FEBDE8F88F8C1F00204E
:103770000A0000200800002010B5594840780F28A2
:1037800073D2DFE800F008121C262F3B46515C671D
:10379000737E89949F0040F2F31141F2DF50FEF7EF
:1037A00011F850A04E49486198E040F6C31140F22C
:1037B0002F20FEF707F84DA0494948618EE040F2FE
:1037C000E73140F22F20FDF7FDFF4AA04449486150
:1037D00084E040F2E7313720FDF7F4FF47A040498D
:1037E00048617BE040F2F3113720FDF7EBFF052045
:1037F0004449088044A03A4948616FE031213720AC
:10380000FDF7E0FF14203F49088041A0344948619A
:1038100064E013213720FDF7D5FF192039490880CE
:103820003DA02F49486159E009213720FDF7CAFF23
:103830001920344908803AA0294948614EE0042102
:103840003720FDF7BFFF14202E49088036A02449F9
:10385000486143E004213720FDF7B4FF0A202949DD
:10386000088033A01E49486138E036E00421372043
:10387000FDF7A8FF0520234908802FA018494861BB
:103880002CE004213720FDF79DFF02201D49088010
:103890002BA01349486121E004213720FDF792FF56
:1038A00001201849088028A00D49486116E004212C
:1038B0001B20FDF787FF01201249088024A008493A
:1038C00048610BE001211B20FDF77CFF01200D4921
:1038D000088021A00249486100E000BF00BF10BD80
:1038E0008C1F002020203120730000003530306D07
:1038F000730000003230306D730000003130306DE5
:1039000073000000080000202035306D73000000B7
:103910002032306D730000002031306D73000000E4
:103920002035206D730000002032206D73000000F0
:103930002031206D730000003530307573000000B9
:103940003230307573000000313030757300000084
:103950002035307573000000203230757300000090
:103960002DE9F84304460D4616461F46DDF8208033
:103970000120E9B20090E0B23B463246FEF76AFC15
:10398000BDE8F8832DE9F84304460D4616461F4668
:10399000DDF820800020E9B20090E0B23B463246DC
:1039A000FEF758FCBDE8F88310B5FEF7C5FD10BD65
:1039B00010B5074841784078401E054A50700029EC
:1039C00002DC002011464870FFF7D6FE10BD000053
:1039D0008C1F002010B504462046FFF7E7F910BD04
:1039E000024909680144014A116070470C00002037
:1039F00070B505460649284601F006FA064601F06C
:103A00009BF984B2C4F1330084B2204670BD00003B
:103A100000001C4270B5044600251BE004F0800045
:103A200020B180210D48FEF7A0F803E080210B486B
:103A3000FEF799F8FEF7E0F840210848FEF795F800
:103A4000FEF7DAF840210548FEF78DF86006040E0F
:103A5000681CC5B2082DE1DB70BD0000000C014000
:103A600010B500F001F810BD0CB5002001900090D9
:103A70003348006840F480303149086000BF304866
:103A8000006800F4003000900198401C01900098FC
:103A900018B90198B0F5A06FF1D12948006800F479
:103AA000003010B10120009001E00020009000984B
:103AB000012843D12348006840F0100021490860E4
:103AC0000846006820F0030008600846006840F0DF
:103AD000020008601A484068194948600846406872
:103AE00048600846406840F4806048600846406886
:103AF00020F47C1048600846406840F4A8104860F4
:103B00000846006840F08070086000BF0C480068FC
:103B100000F000700028F9D00948406820F0030048
:103B2000074948600846406840F00200486000BF0E
:103B30000348406800F00C000828F9D10CBD0000D3
:103B40000010024000200240042808D14FF0E0217C
:103B5000096941F004014FF0E022116107E04FF0E4
:103B6000E021096921F004014FF0E0221161704762
:103B70007047000010B51348006840F0010011497B
:103B8000086008464068104908400E4948600846E9
:103B900000680E4908400B4908600846006820F498
:103BA000802008600846406820F4FE0048604FF41A
:103BB0001F008860FFF754FF4FF000600449086061
:103BC00010BD0000001002400000FFF8FFFFF6FEED
:103BD00008ED00E030B589B005460C46002008909D
:103BE00005900690079001900290039004900121A7
:103BF000C802FEF7ADFB01210520FEF7A9FB4FF43B
:103C00008070ADF8200018208DF8230003208DF877
:103C1000220008A91748FDF71BFFADF81850ADF8B2
:103C200014400020ADF81A00ADF8160005A912489E
:103C300000F00AFA6020ADF804000120ADF806009B
:103C40000020ADF80C0001A90B4800F09DF90121FE
:103C5000094800F07CF80821074800F0E1F901214B
:103C6000054800F059F80121034800F064F809B054
:103C700030BD000000080140002C014010B50121BA
:103C8000880700F067F998B10120FFF7A9FE0948FD
:103C90000088B0F57A7F07DB07480068401C0649BA
:103CA00008600020034908800121880700F040F8DF
:103CB00010BD000004000020000000207FB5054674
:103CC0000C4601210846FEF723FBADF80850ADF87D
:103CD00004400020ADF80A00ADF8060001A94FF03D
:103CE000804000F0B1F91C208DF8000002208DF812
:103CF000010000208DF8020001208DF803006846C5
:103D0000FEF724F801221146900700F034F9012152
:103D1000880700F010F87FBD21B1028842F08002D0
:103D2000028004E002884FF67F731A4002807047D9
:103D3000CA430282704721B1028842F00102028028
:103D400004E002884FF6FE731A400280704731B1DA
:103D5000B0F8442042F40042A0F8442005E0B0F856
:103D60004420C2F30E02A0F84420704710B5044668
:103D70006848844208D10121C014FEF7F9FA0021F5
:103D8000E014FEF7F5FAC4E0B4F1804F08D1012148
:103D90000846FEF7CDFA00210120FEF7C9FAB8E087
:103DA0005D48844208D101210220FEF7C1FA0021BA
:103DB0000220FEF7BDFAACE05848844208D1012148
:103DC0000420FEF7B5FA00210420FEF7B1FAA0E0C6
:103DD0005348844208D101210820FEF7A9FA0021A6
:103DE0000820FEF7A5FA94E04E48844208D101214C
:103DF0001020FEF79DFA00211020FEF799FA88E0C6
:103E00004948844208D101212020FEF791FA00217F
:103E10002020FEF78DFA7CE04448844208D101213D
:103E20004014FEF7A5FA00216014FEF7A1FA70E035
:103E30003F48844209D10121C804FEF799FA0021C4
:103E40004FF40020FEF794FA63E03A48844209D127
:103E500001210805FEF78CFA00214FF48010FEF7CF
:103E600087FA56E03448844209D101214805FEF71B
:103E70007FFA00214FF40010FEF77AFA49E02F484C
:103E8000844208D101214020FEF752FA002140204F
:103E9000FEF74EFA3DE02A48844208D101218020F5
:103EA000FEF746FA00218020FEF742FA31E025486D
:103EB000844208D101218015FEF73AFA0021A015AD
:103EC000FEF736FA25E02048844209D10121080492
:103ED000FEF74EFA00214FF48030FEF749FA18E061
:103EE0001A48844209D101214804FEF741FA002111
:103EF0004FF40030FEF73CFA0BE01548844208D13D
:103F000001218804FEF734FA00214FF48020FEF7E7
:103F10002FFA10BD002C01400004004000080040B2
:103F2000000C00400010004000140040003401402C
:103F3000004C014000500140005401400018004076
:103F4000001C0040002000400040014000440140AF
:103F50000048014030B50246002000230024158AA5
:103F600005EA0103958905EA010413B10CB10120AA
:103F700000E0002030BD1AB183890B43838102E049
:103F800083898B438381704770B50024002200230E
:103F9000058C4FF6FE7635400584028C8388048BB1
:103FA0004FF68F752C40B51E2C400D882C43751E86
:103FB0002A400D892A434D882A43144DA8420BD02C
:103FC000134DA84208D0134DA84205D0124DA84267
:103FD00002D0124DA84213D14FF6F7752A404D89F1
:103FE0002A434FF6FB752A408D882A434FF6FF651A
:103FF0002B404FF6FF552B408D892B43CD892B430A
:1040000083800483CD888586028470BD002C0140A6
:10401000003401400040014000440140004801409C
:104020000A460021018B4FF6F773194011430183B3
:10403000704782884FF68F731A40828082880A43C5
:104040008280704781867047002202881D4B98420B
:104050000ED01D4B98420BD0B0F1804F08D01B4BB7
:10406000984205D01A4B984202D01A4B984204D17C
:104070004FF68F731A404B881A43174B984207D05C
:10408000164B984204D04FF6FF431A40CB881A4390
:1040900002808B8883850B8803850A4B98420BD05E
:1040A000094B984208D00E4B984205D00D4B9842D0
:1040B00002D00D4B984201D10B7A038601238382F3
:1040C00070470000002C0140003401400004004013
:1040D00000080040000C00400010004000140040A8
:1040E00000400140004401400048014010B586B046
:1040F00004460020059001900290039004900090E7
:1041000025208DF8000002208DF8010001208DF897
:1041100002008DF803006846FDF718FE0121042017
:10412000FEF716F901218803FEF712F94FF400702B
:10413000ADF8140018208DF8170003208DF8160034
:1041400005A91548FDF784FC4FF48060ADF8140014
:1041500004208DF8170005A90F48FDF779FC01949C
:104160000020ADF80800ADF80A00ADF80C00ADF87D
:1041700010000C20ADF80E0001A9084800F090F8DE
:10418000012240F22551054800F064F8012103485E
:1041900000F02AF806B010BD0008014000380140C8
:1041A00010B540F22551054800F02AF820B1034827
:1041B00000F0E2F80249087010BD0000003801402C
:1041C0000600002010B540F22551054800F018F80F
:1041D00020B1034800F0D0F80249087010BD00007B
:1041E000004400400700002021B1828942F40052BF
:1041F000828104E082894DF6FF731A408281704704
:1042000070B50246002400230025002040F66A16FF
:10421000B14200D100BFC1F3421501F01F030126D6
:1042200006FA03F3012D02D19689334006E0022DF0
:1042300002D1168A334001E0968A33400C120126DF
:1042400006FA04F41688344013B10CB1012000E0E2
:10425000002070BDF0B50346002400260025002094
:1042600040F66A17B94200D100BF1846C1F34214A4
:1042700001F01F06012707FA06F5012C01D10C30C9
:1042800004E0022C01D1103000E014301AB10768AC
:104290002F43076002E00768AF430760F0BD0000EE
:1042A0002DE9F04786B005460E460024A24600BF21
:1042B000A1460027B08900B100BF2F462C8A4CF6DA
:1042C000FF700440F08804432C82AC894EF6F31052
:1042D0000440B08831890843718908430443AC81A4
:1042E000AC8A4FF6FF400440B0890443AC8201A879
:1042F000FEF74EF81F48874202D1DDF810A001E01A
:10430000DDF80CA0A88900F4004040B10AEBCA0017
:1043100000EB0A1031684900B0FBF1F807E00AEB46
:10432000CA0000EB0A1031688900B0FBF1F8642084
:10433000B8FBF0F004012009642101FB1089A88971
:1043400000F4004040B1322000EBC900B0FBF1F0B6
:1043500000F00700044308E0322000EB091064215C
:10436000B0FBF1F000F00F0004432C8106B0BDE873
:10437000F08700000038014001468888C0F308003B
:10438000704700BFFEE7490050EAC12018BF042073
:104390004A0D18BF40F0010040F2FF72B2EB515FCE
:1043A00008BF40F00200012808BF052070473038E0
:1043B0000A2801D2012070470020704700BF7047D3
:1043C00010B56FF00400FFF7BFFB0A4800680A4908
:1043D000B0FBF1F0094908700846007800EB400195
:1043E000C1EBC0104FF6FF7101EAC000044908801C
:1043F00010BD00003800002000127A001C000020D0
:104400001E000020F0B504464FF47A70B4FBF0F0C3
:1044100087B24FF47A70B4FBF0F100FB114500262F
:1044200004E04FF47A7000F009F8761CBE42F8DB25
:1044300015B1284600F002F8F0BD00000146114A0F
:1044400012884A434FF0E0235A6100229A611A46CB
:10445000126942F001021A6100BF4FF0E0221069B8
:1044600000F001021AB100F48032002AF5D04FF0BA
:10447000E022126922F001024FF0E0231A610022CB
:104480009A6170471E00002000BF4FF4A060FDF746
:1044900095FCFFF795FF4FF4E130FFF727FE37213A
:1044A00040F2E730FFF70AFC3721C720FFF792FB05
:1044B00032210D48FFF7C6FDFCF7BAFFFDF756FDA8
:1044C0000020FDF79DFC0020FDF7A8FCFDF79CFBFC
:1044D000FFF73EF8FFF768FAFDF7EAFD02E0034850
:1044E000FFF778FAFBE70000002C01404C000020A9
:1044F00010B500290AD00878002807D0054878446C
:10450000FCF78EFB002801D0002010BD0248784443
:1045100010BD0000D2260000CA2600002DE9C041CF
:1045200030B4DFF8A0C23CEA111418BF3CEA1314FF
:1045300000F0EC8081EA03051CEA111444EAD5740A
:1045400018BF1CEA131500F0C780A4EB05044FF058
:10455000004545EAC12145EAC32341EA505143EAF7
:10456000525304F17F74994204F500344FEAC0209D
:104570004FEAC22208BF904200F09C804FEA1365C8
:104580000FF24016765D4FEA134506FB05F7C7F1BB
:10459000807706FB07F74FEAD737A7FB0368764219
:1045A000C8F58038A7FB06CE38BFA8F1010807FB85
:1045B00008E64FF0000EA6FB028CE6FB03CEDCF112
:1045C000000CCEF1004E38BFAEF1010EA6FB0C5828
:1045D0004FF000074FF00005E6FB0E87A1FB08C671
:1045E000A0FB07CE16EB0E0645F10005E1FB0765C3
:1045F00015F1E04E7EBFA4F580345FEA46066D41BA
:1046000016F1800745F100054FEA17274FEA0666C5
:1046100047EA0567A6F1DE46B6F1805F4FEA152549
:104620001FD9384624F0010C05EBC471BCF1FE6FB4
:1046300001EB0C1102D8F0BCBDE8008124425CBF44
:1046400001F5801E9EEAC47F02D4F0BCBDE8008163
:10465000244238D4F0BCA1F1C041BDE8004100F0D3
:10466000EDB94FEAD22242EA43524FEAD323A7FBE5
:1046700002864FEAD02040EA415007FB03661EEA5B
:104680000E0F4FEAD12105FB026658BFA6EB00567C
:10469000B6EB00564FEA520E4EEAC37E18EB0E0EF2
:1046A00056EB530EBDD518EB02085E417F1C55F149
:1046B0000005B6E74FF480154FF000074FF00006F5
:1046C0004FF00008ADE7F0BC4FF0000001F1C04131
:1046D00001F00041BDE8008111EA0C1F0CEA13153E
:1046E00000D00CE013EA0C1F00F025804FF0000012
:1046F000F0BC81EA030101F00041BDE80081F0BC9B
:10470000BDE8004181EA030100F098B9F0BCBDE8C2
:10471000004170B500F044F9097EFC3E00F007B896
:1047200081EA03014FF0000001F00041704781EA87
:10473000030100F083B9F0BCBDE800414FF0000078
:1047400021497047FFFDFBF9F7F5F4F2F0EEEDEBD0
:10475000E9E8E6E4E3E1E0DEDDDBDAD8D7D5D4D37F
:10476000D1D0CFCDCCCBCAC8C7C6C5C4C2C1C0BFCB
:10477000BEBDBCBBBAB9B8B7B6B5B4B3B2B1B0AFD1
:10478000AEADACABAAA9A8A8A7A6A5A4A3A3A2A1B5
:10479000A09F9F9E9D9C9C9B9A9999989797969570
:1047A00095949393929191908F8F8E8E8D8C8C8B0C
:1047B0008B8A898988888787868585848483838294
:1047C000828181800000FF070000F87F4FEA1153CB
:1047D000A3F58063D3F11E03A8BFD3F1200C08DB3F
:1047E0004FF0004242EAC12252EA505232FA03F03C
:1047F000704709420BD4102BC4BF0020704703F54B
:10480000787CBCF1FF3F05D04FF0FF3070474FF090
:104810000000704770B500F0C3F800BF49922480D3
:1048200000207047F0E7B0FA80F310FA03F10AD0E5
:10483000C3F11D0303F580634FEA41504FEA035271
:1048400002EBD12170474FF000007047DFF848C1FC
:1048500070B51CEA111E1EBF1CEA13159EEA0C0F50
:1048600095EA0C0F00F06F8081EA030423EA4C13F1
:104870004EEAD47E21EA4C1141F4801143F48013B6
:10488000AE44A1FB024CA0FB0365AEF17F7E36195E
:1048900055EB0C05A1FB034C4CF10003A0FB021CE3
:1048A00016EB0C06654153F10003094218BF46F0B0
:1048B000010613F4007F0BD14FEA03314FEA0530B4
:1048C000340341EA155140EA16506FF003020AE042
:1048D0004FEAC3214FEAC520F40241EA555140EAAC
:1048E00056506FF0020202EB2E4201EB025585EAB0
:1048F000CE710AD05FEA440C18BF24F0004450F196
:10490000000041F1000120EAD47040F2FE7C6245D3
:1049100000D270BDA84214BF4FF080444FF0404415
:10492000002E08BF0024BEF1806FA8BFA1F1C041D6
:10493000BDE8704080F282804FF0000001F1C0417C
:1049400001F0004170479EEA0C0F0CEA131518BFE6
:1049500095EA0C0F06D04FF0000081EA030E0EF02E
:10496000004170BD00F01CF88900013E00F007B85E
:1049700000F009B84FEA430C5FEA5C5C08D081EABA
:10498000030100F05BB84FEA410C5FEA5C5CF6D1D2
:104990004FF00000014970470000FF070000F87F5A
:1049A0000EF1020E2EF0030E5EF8046B364205D4B3
:1049B000012A43EB030515F5001F12D8012841EB2E
:1049C000010C1CF5001F0CD80ED14FEAD17C15F557
:1049D000001F0CEB4C0C0CF1020C08BF4CEBD37C11
:1049E00004E04FF0080C01E04FEAD37C0CEB4C05DF
:1049F00026FA05F606F00706B6F1040C06D20EEB11
:104A0000860CBDE870404CF0010C6047DFE80CF00C
:104A1000090B02024FF000414FF00000A1F5002108
:104A200070BD19461046012851EB010418BFD4F59A
:104A3000001484BF002001F0004170BD0808A0F5FB
:104A400000114FEA3101704743004FEAD30C4FEA9F
:104A50003C0C43401FBF40070CF1605113F0FE4F68
:104A600070471CF0006F03D100200CF0004170472C
:104A70000CF0004343EA507010B540EACC0000F05F
:104A800044FA00BF000000924FEA0001FFF7D6BFD2
:104A90004FF000414FF00000A1F5002170470000E9
:104AA00090EA010F48BF81F0004100F1BC82421A38
:104AB0003CBF801A89184FEAD0524FF07F4C1CEA55
:104AC000410FA2EBD15318BF9CEA026F00F03B806C
:104AD0004FF0004C4CEA00204CEA012121FA03FC83
:104AE00010EB0C0C1ED202F1FF325FEA1C2040EBEF
:104AF000C25038BF70471CF07F0F4FEA400C18BF00
:104B0000BCF17F4F38BF7047C3F12003994008BF05
:104B100020F00100BCF17F4F38BF7047A0F1C040CA
:104B200000F039BA4FEA3C00000A40EBC25028BFFF
:104B30001CF0FF0F4FEA400CE6D018BFBCF17F4FCE
:104B400038BF7047EAE79CEA026F05D010EA5C0FB5
:104B500008BF00F00040704710B500F0D6F900BF64
:104B600064FBBE3E401058BFC0F14040491058BFE2
:104B7000C1F140418142EFF3008070474FF47F0C58
:104B80001CEAD0121EBF1CEAD11392EA0C0F93EA62
:104B90000C0F00F0858090EA010F48BF42F480724C
:104BA00040F4000C41F400002CF07F4120F07F40E5
:104BB00000B58142A2EB03020FF2081CACEB504E91
:104BC000C0F100009EF800E04FEA4E0E00FB0EFC24
:104BD00038BF49004FEA2C1C02F5FA020CFB0EF319
:104BE0004FEACE1E4FEA112C4FEAC1210EEB635E55
:104BF00042EB22420EFB0CFC4FEA1C5300FB03115C
:104C00004FEA112C4FEA01310EFB0CFC4FEADC4C51
:104C100000FB0C11C14228BF09184CEB03335DF8AF
:104C200004EB10EB410143EBC250B2F57C0F38BFEF
:104C3000704729D512F0F00F1CBF00F1C04000F002
:104C400000407047008182838485868788898B8CA9
:104C50008D8E8F919293959697999A9C9D9FA0A2E5
:104C6000A3A5A7A8AAACAEB0B2B3B5B7B9BCBEC035
:104C7000C2C5C7C9CCCED1D4D7D9DCDFE2E6E9ECD6
:104C8000F0F3F7FAFE0000004FEA400C0CF1807CD4
:104C9000BCF17E4F28BF7047B0F1C04000F07BB937
:104CA00090EA010F0CEAD11348BF42F480726245CA
:104CB00038BF634507D213F47F0F16D080EA010096
:104CC00000F00040704710B500F01FF9097EFC3E6F
:104CD00000F005B880EA010000F00040704780EA6B
:104CE000010000F0004000F056B912F47F0F04BF3D
:104CF0000248704780EA010000F04DB90000C07F13
:104D000041000B0ED3F19E0208D950F400034FEA84
:104D1000032323FA02F048BF4042704710B500F069
:104D2000F4F800BF49922480002070476FF00042E1
:104D300082EA200070470000C10DD1F19E0206DB1F
:104D40004FEA002343F0004323FA02F07047004289
:104D500007D54FEA4001B1F1FE4F02D24FF00000FB
:104D6000704710B500F0D1F84992248000207047B8
:104D70006FEA200070470000B0FA80F310FA03F2E7
:104D8000C3F19D030AD0D90501EB1220530638BFA9
:104D9000704700F1010008BF20F0010070470000DB
:104DA00050EA010C00F113801CF5000F58BFBCF550
:104DB000000F01D48842704707D710F5000F58BF85
:104DC00011F5000F15D488427047894270471CF5D1
:104DD000000F04D5BCF5000FF7D5814270474FF0A6
:104DE000807C1CEB400F38BF1CEB410F01D281428D
:104DF000704710B500F089F8922449004FF0005038
:104E00004FF08051FFF7AEBE4FF47F0C1CEAD0127A
:104E10001EBF1CEAD11392EA0C0F93EA0C0F00F0AC
:104E2000478090EA010F48BF42F480724FF0004C77
:104E30004CEA00204CEA012102EB0302A0FB011323
:104E4000A2F50002002918BF43F001035B0028BF50
:104E50004FEA330342EB22425FEA132C4CEBC25081
:104E60002EBFBCEB436FB2F57C0F70474FEA036C6B
:104E7000BCF1004F08BF20F00100B2F57C0F38BF35
:104E800070470BD582F0FF0212F5803FC8BF704714
:104E900000F1C040D8BF00F00040704700F5000CA2
:104EA0005FEA4C0C48BF7047B0F1C04000F073B8E7
:104EB00090EA010F0CEAD11348BF42F480726245B8
:104EC00038BF634504D280EA010000F0004070471B
:104ED00010B500F01AF800BF8900013E00F007B8D5
:104EE00000F009B85FEA410C5FEA1C6C08D080EA68
:104EF000010000F050B85FEA400C5FEA1C6CF6D18C
:104F00004FF00040A0F5800070470EF1020E2EF029
:104F1000030E5EF8044B244204D44FEA4102B2F17E
:104F20007F4F11D84FEA4003B3F17F4F0CD80ED119
:104F30004FEAD07CB2F17F4F0CEB4C0C0CF1020C21
:104F400008BF4CEBD17C04E04FF0080C01E04FEAC5
:104F5000D17C0CEB4C0324FA03F404F00704B4F105
:104F6000040C06D20EEB840CBDE810404CF0010C92
:104F70006047DFE80CF0070802024FF00040A0F5A0
:104F8000800010BD0846420018BFD2F1807288BF71
:104F900000F0004010BDFF2141EAD050C00570472D
:104FA00051EA000C00F113801CF5000F58BFBCF54E
:104FB000000F01D48142704707D711F5000F58BF89
:104FC00010F5000F15D481427047894270471CF5D7
:104FD000000F04D5BCF5000FF7D5884270474FF09D
:104FE000807C1CEB410F38BF1CEB400F01D2884284
:104FF000704780EA010081EA000180EA0100FFF7C2
:10500000F8BE80F0004090EA010F7FF550AD81F0CE
:10501000004100F008B8000090EA010F48BF81F09D
:1050200000413FF544AD421A04D882F00042A0EBA3
:10503000020011444FEAD0524FF07F4C1CEA410F5E
:10504000A2EBD15318BF9CEA026F4AD04FF0004C3C
:105050004CEA00204CEA012121FA03FCB0EB0C0CD5
:105060000FD412F0FE0F36D05FEA4C001DD50012AF
:1050700040EBC25038BF70471CF03F0F18BF70475D
:105080000BE0A2F101025FEA1C2040EBC25038BFE6
:1050900070471CF07F0F18BF7047C3F12003994081
:1050A00014BF401E20F00100704780084FEA122311
:1050B00008BF7047B0FA80FCA2EB0C02CCF1280CC0
:1050C00060FA0CF093EA122F04BF00EBC250704755
:1050D0004FEAC3707047130A5FEADC1008BF7047DD
:1050E000F6E79CEA026F04D010EA5C0F08BF0020CC
:1050F000704710B5FFF709FF40DFF63E81F0004032
:105100007047FBF70BBB00020A7E50400000405086
:105110007E0A020000020A7E5040007E3C18183CC5
:105120007E000000000000000000002F00000000D2
:105130000700070000147F147F1400242A7F2A121E
:10514000006264081323003649552250000005030D
:10515000000000001C224100000041221C0000143D
:10516000083E08140008083E0808000000A060007F
:10517000000808080808000060600000002010080F
:105180000402003E5149453E0000427F400000427B
:1051900061514946002141454B31001814127F10DE
:1051A000002745454539003C4A494930000171090D
:1051B000050300364949493600064949291E0000C1
:1051C0003636000000005636000000081422410068
:1051D0000014141414140000412214080002015198
:1051E000090600324959513E007C1211127C007FA1
:1051F00049494936003E41414122007F4141221C3C
:10520000007F49494941007F09090901003E4149A0
:10521000497A007F0808087F0000417F4100002094
:1052200040413F01007F08142241007F4040404040
:10523000007F020C027F007F0408107F003E414186
:10524000413E007F09090906003E4151215E007F71
:10525000091929460046494949310001017F0101E8
:10526000003F4040403F001F2040201F003F40388B
:10527000403F0063140814630007087008070061CA
:105280005149454300007F41410000552A552A55A8
:10529000000041417F000004020102040040404040
:1052A0004040000001020400002054545478007F64
:1052B0004844443800384444442000384444487F3B
:1052C00000385454541800087E0901020018A4A4A0
:1052D000A47C007F080404780000447D4000004066
:1052E00080847D00007F102844000000417F400042
:1052F000007C04180478007C0804047800384444D6
:10530000443800FC242424180018242418FC007CB1
:105310000804040800485454542000043F4440202A
:10532000003C4040207C001C2040201C003C4030C1
:10533000403C004428102844001CA0A0A07C00444D
:1053400064544C441414141414140000000000009D
:105350000000000000000000FC000000000002004F
:105360000000000C020C020000000000000090D0C1
:10537000BCD0BC900003000300001824FE448C0045
:105380000302070201001824D8B04C80000300017A
:105390000201C038E438E0000102020102020806FE
:1053A00000000000000000000000000000F80402FF
:1053B000000000010204000204F8000000040201E1
:1053C00000009060F86090000000010000002020C4
:1053D000FC20200000000100000000000000000090
:1053E000080600000000202020202000000000000F
:1053F000000000000000000000020000000000802B
:10540000601C0200040300000000F8040404F8001B
:105410000102020201000008FC0000000002030279
:105420000000188444241800030202020200080449
:105430002424D80001020202010040B088FC800050
:105440000000000302003C242424C40001020202E4
:105450000100F824242CC0000102020201000C0407
:10546000E41C0400000003000000D8242424D80019
:1054700001020202010038444444F8000003020221
:105480000100000010000000000002000000000009
:1054900020000000000006000000002050880402E8
:1054A0000000000001029090909090000000000029
:1054B00000000002048850200002010000001804CF
:1054C000C4241800000002000000F804E494F8006E
:1054D00001020202020000E09CF0800002030000D2
:1054E000030204FC2424D800020302020100F80491
:1054F00004040C0001020202010004FC0404F80090
:1055000002030202010004FC24740C0002030202E4
:10551000030004FC24740C00020302000000F008E5
:105520000444CC4000010202010004FC2020FC04E1
:105530000203000003020404FC040400020203024C
:105540000200000404FC040406040403000004FC3C
:1055500024D00C0402030200030204FC0400000037
:10556000020302020203FC3CC03CFC0003000300F7
:10557000030004FC30C4FC04020302000300F8042E
:105580000404F80001020202010004FC24241800B3
:10559000020302000000F8848404F80001020207FC
:1055A000050004FC2464980002030200030218248E
:1055B00024448C000302020201000C04FC040C00D1
:1055C00000020302000004FC0000FC0400010202CF
:1055D0000100047C80E01C040000030000001CE0CB
:1055E0003CE01C00000300030000049C609C0400DD
:1055F000020300030200041CE01C0400000203027A
:1056000000000C84641C040002030202030000007A
:10561000FE020200000007040400000E30C000007B
:10562000000000010200000202FE00000004040766
:105630000000000402040000000000000000000060
:105640000000000008080808080800000200000028
:105650000000000000000040A0A0C0000001020205
:10566000030204FC2020C00000030202010000C06D
:105670002020600000010202020000C02024FC0083
:1056800000010202030200C0A0A0C000000102024B
:1056900002000020F824240400020302020000405B
:1056A000A0A0602000070A0A0A0404FC2020C00011
:1056B0000203020003020020E400000000020302D3
:1056C0000000000020E4000008080807000004FCB7
:1056D00080E020200203020003020404FC0000001A
:1056E000020203020200E020E020C00003000300E9
:1056F000030020E02020C00002030200030200C0DB
:105700002020C00000010202010020E02020C00093
:10571000080F0A02010000C02020E0000001020A78
:105720000F0820E04020200002030200000000607B
:10573000A0A020000002020203000020F8200000C8
:1057400000000102020020E00020E000000102024F
:10575000030220E020806020000003010000608040
:10576000E0806000000300030000206080602000F3
:1057700002030003020020E02080602008080701E7
:1057800000000020A06020000002030202000000D0
:1057900020DE0200000000070400000000FF0000FF
:1057A0000000000F00000002DE20000000040700DF
:1057B00000000201020404020000000000000000DA
:1057C00000000000000000000000000000000000D9
:1057D00000F800000000000000333000000000105E
:1057E0000C06100C0600000000000000000040C085
:1057F0007840C0784000043F04043F040400007077
:1058000088FC08300000001820FF211E0000F0086E
:10581000F000E018000000211C031E211E0000F013
:105820000888700000001E2123241927211010165B
:105830000E0000000000000000000000000000005A
:1058400000E01804020000000007182040000002D9
:105850000418E0000000004020180700000040404D
:1058600080F0804040000202010F010202000000AF
:1058700000F0000000000101011F01010100000013
:1058800000000000000080B0700000000000000078
:105890000000000000000001010101010101000001
:1058A0000000000000000030300000000000000098
:1058B000000080601804006018060100000000E08D
:1058C00010080810E000000F102020100F0000103A
:1058D00010F8000000000020203F20200000007091
:1058E0000808088870000030282422213000003089
:1058F0000888884830000018202020110E00000081
:10590000C02010F8000000070424243F240000F801
:105910000888880808000019212020110E0000E0E6
:10592000108888180000000F112020110E00003888
:105930000808C83808000000003F000000000070A0
:10594000880808887000001C222121221C0000E029
:1059500010080810E0000000312222110F000000A2
:1059600000C0C00000000000003030000000000057
:1059700000800000000000008060000000000000C7
:105980008040201008000001020408102000404060
:1059900040404040400004040404040404000008A3
:1059A0001020408000000020100804020100007058
:1059B00048080808F0000000003036010000C03040
:1059C000C828E810E0000718272423140B00000063
:1059D000C038E0000000203C23020227382008F8ED
:1059E000888888700000203F202020110E00C030E1
:1059F000080808083800071820202010080008F8B8
:105A000008080810E000203F202020100F0008F8B0
:105A10008888E8081000203F20202320180008F87C
:105A20008888E8081000203F200003000000C030F4
:105A300008080838000007182020221E020008F875
:105A400008000008F808203F210101213F2000083C
:105A500008F8080800000020203F20200000000077
:105A60000808F8080800C08080807F00000008F85F
:105A700088C028180800203F20012638200008F898
:105A8000080000000000203F20202020300008F8FF
:105A9000F800F8F80800203F003F003F200008F819
:105AA00030C00008F808203F200007183F00E01031
:105AB00008080810E0000F10202020100F0008F840
:105AC00008080808F000203F210101010000E01053
:105AD00008080810E0000F18242438504F0008F878
